:020000040800F2
:10000000880C00208D010008C10F00081F0A00089D
:10001000BD0F000835040008471700080000000065
:100020000000000000000000000000002113000894
:1000300039040008000000004910000835140008C9
:10004000A7010008A7010008A7010008A7010008F0
:10005000A7010008A7010008A7010008A7010008E0
:10006000A7010008A7010008A7010008A7010008D0
:10007000A7010008A7010008A7010008A7010008C0
:10008000A7010008A7010008A7010008A7010008B0
:10009000A7010008A7010008A7010008A7010008A0
:1000A000A7010008A7010008A7010008A701000890
:1000B000A7010008A7010008A7010008A701000880
:1000C000A7010008A7010008A7010008A701000870
:1000D000A7010008B51400083D150008A701000895
:1000E000A7010008A7010008A701000800F002F816
:1000F00000F03CF80AA090E8000C82448344AAF186
:100100000107DA4501D100F031F8AFF2090EBAE883
:100110000F0013F0010F18BFFB1A43F0010318473B
:10012000AC3E0000CC3E0000103A24BF78C878C135
:10013000FAD8520724BF30C830C144BF04680C60ED
:10014000704700000023002400250026103A28BF35
:1001500078C1FBD8520728BF30C148BF0B60704739
:10016000002070471FB51FBD10B510BD00F032F95B
:100170001146FFF7F7FF01F0C1FB00F050F903B49F
:10018000FFF7F2FF03BC01F060FB00000948804765
:1001900009480047FEE7FEE7FEE7FEE7FEE7FEE769
:1001A000FEE7FEE7FEE7FEE704480549054A064B81
:1001B0007047000039140008ED0000088806002090
:1001C000880C002088080020880800207047000064
:1001D0000FB4044910B503AA029800F0E5F810BC6A
:1001E0005DF814FB8C0000202DE9F05F8946044681
:1001F0004FF0000ADFF874B1FB44C0F820A020469D
:10020000E1688847002874D0252806D0D4E9012168
:100210009047206A401C2062F1E700265F46204696
:10022000E16888472028054607DB312D05D278197B
:1002300010F8200C08B10643F1E7B00701D526F00D
:100240000406C4F81CA00027C4F818A02A2D09D061
:10025000284601F0F3FA38B304EB8708303DC8F8BC
:10026000185019E059F8041B204604EB87029161ED
:10027000E1688847012F054618D1E069002820DA97
:1002800026F020061DE0D8F8180000EB800005EBF2
:1002900040003038C8F818002046E1688847054615
:1002A00001F0CCFA0028EED1012F0AD02E2D08D172
:1002B0002046E16888477F1C0546022F46F020064D
:1002C000C4DBA069002803DA404246F00106A061C1
:1002D000F00701D026F010066C2D0BD0682D09D048
:1002E0004C2D39D06A2D35D0742D35D07A2D33D0A0
:1002F00016E038E0E1682F4620468847B8420546B8
:1003000009D16C2F26D04FF48060E1680643204667
:100310008847054604E06C2F1AD04FF480700643DE
:100320000DB3A5F14100192802D8203546F4006626
:100330004A462946204626604E46FFF711FF80B107
:1003400001280BD0F61D26F0070000F1080956E73A
:100350004020E4E78020D8E70020D6E706F1040932
:100360004DE7284652E7206ABDE8F09FBD3D0000FA
:10037000704770477047704701694A1C02610878EE
:10038000704700B58FB0CDE90131002105910549D5
:100390007944CDE9031011466846FFF725FF0FB0F9
:1003A00000BD0000E5FFFFFF074B70B50D467B4425
:1003B000FFF7E7FF0446284600F008F810B14FF0B9
:1003C000FF3070BD204670BD2F150000007B00F08F
:1003D00080007047754600F029F8AE460500694672
:1003E000534620F00700854618B020B5FFF7DCFE25
:1003F000BDE820404FF000064FF000074FF0000826
:100400004FF0000B21F00701AC46ACE8C009ACE8A6
:10041000C009ACE8C009ACE8C0098D467047044685
:10042000AFF300802046FFF7AAFE000000487047A7
:100430002806002000BFFEE77047F8B506460F46C5
:1004400014461D464FF6FF700090601E82B23B4678
:100450003946304600F076FA4FF6FF700090681E7D
:1004600083B232463946304600F06CFA48F210400A
:100470006A1E93B291B2721C009090B2224600F0B4
:1004800061FA44F208202B46224629460090304665
:1004900000F058FA48F21040631E9AB27B1C99B2E1
:1004A000631E009098B22B4600F04CFA44F20820EC
:1004B0002B46224639460090204600F043FAF8BD0C
:1004C0002DE9F041024600250026002000230024EB
:1004D000002791F803C00CF00F0591F803C00CF051
:1004E000100CBCF1000F03D091F802C04CEA0505D6
:1004F00091F800C0BCF1000F31D0146800202BE04F
:100500004FF0010C0CFA00F3B1F800C00CEA03063E
:100510009E4220D183004FF00F0C0CFA03F7BC432E
:1005200005FA03FC4CEA040491F803C0BCF1280F5F
:1005300006D14FF0010C0CFA00FCC2F814C00AE01E
:1005400091F803C0BCF1480F05D14FF0010C0CFA33
:1005500000FCC2F810C0401C0828D1D31460B1F8C8
:1005600000C0BCF1FF0F34DD546800202EE000F124
:10057000080C4FF0010808FA0CF3B1F800C00CEABF
:1005800003069E4221D183004FF00F0C0CFA03F7B3
:10059000BC4305FA03FC4CEA040491F803C0BCF127
:1005A000280F05D100F1080C08FA0CF8C2F81480E5
:1005B00091F803C0BCF1480F07D100F1080C4FF0CF
:1005C000010808FA0CF8C2F81080401C0828CED3A5
:1005D0005460BDE8F0810161704700001CB505243E
:1005E00047F67C506449088044F2082060235A2270
:1005F00000210090104600F0A5F944F20820602385
:100600005B2200210090104600F09CF944F2082083
:1006100060237F2219460090002000F093F944F2F5
:10062000082061237F2219460090002000F08AF9FB
:1006300052A00C210B463C22CDE900100021602085
:1006400000F0BAFA4FA00C210B463022CDE9001081
:100650001021622000F0B0FA1E237E220D215E20C0
:10066000FFF7EBFE49A00C210B461822CDE9001044
:100670002021622000F0A0FA00BF08E04FF4784388
:10068000224633216E2000F0C7F8601EC4B2002C51
:10069000F4DC3C237E222C215E20FFF7CEFE3DA021
:1006A0000C210B463C22CDE900103E21662000F0D3
:1006B00083FA052408E04FF47843224653216E2044
:1006C00000F0AAF8601EC4B2002CF4DC5B237E228A
:1006D0004B215E20FFF7B1FE2FA00C210B465A22C2
:1006E000CDE900100021084600F066FA2EA00C218A
:1006F0000B465A22CDE90010002000F05DFA2EA032
:100700000C210B465A22CDE900101821002000F0E0
:1007100053FA2DA00C210B465A22CDE900102421BA
:10072000002000F049FA2CA00C210B465A22CDE9FA
:1007300000103021002000F03FFA2BA00C210B46C6
:100740005A22CDE900103C21002000F035FA2AA001
:100750000C210B465A22CDE900104821002000F060
:100760002BFA29A00C210B465A22CDE90010542166
:10077000002000F021FA1CBD96000020426F756E2B
:100780006400000039363030000000002042542060
:100790000000000041565200546869732070726F67
:1007A0006A6563742069730064657369676E2062AB
:1007B00079204561676C6500696620796F752068EE
:1007C00061766520616E79007175657374696F6E0D
:1007D0002C706C6561736500636F6E6E6563742069
:1007E0006D652C5E5F5E200051513A203134363009
:1007F000383533353639200054656C3A3133363765
:100800003934323735373900202020202D2D2D4521
:1008100061676C65777A77002DE9F04706460F46E9
:1008200090469A46002445464FEA4800C0F1030925
:100830004AE07A1991B2321990B2524600F0DFF8CC
:100840007A1991B2321B90B2524600F0D8F87A1B56
:1008500091B2321990B2524600F0D1F87A1B91B29F
:10086000321B90B2524600F0CAF83A1991B272198E
:1008700090B2524600F0C3F83A1991B2721B90B28E
:10088000524600F0BCF83A1B91B2721990B252462F
:1008900000F0B5F83A1B91B2721B90B2524600F0CC
:1008A000AEF8B9F1000F05DA042000FB049000F166
:1008B000060907E0601B042101FB009000F10A0912
:1008C000681E85B2601C84B2AC42B2DBAC4237D148
:1008D0007A1991B2321990B2524600F090F87A1912
:1008E00091B2321990B2524600F089F87A1B91B257
:1008F000321990B2524600F082F87A1B91B2321B44
:1009000090B2524600F07BF83A1991B2721990B247
:10091000524600F074F83A1991B2721B90B25246E6
:1009200000F06DF83A1B91B2721990B2524600F085
:1009300066F83A1B91B2721B90B2524600F05FF813
:10094000BDE8F0872DE9FF4F83B0804689464946D0
:10095000404600F000FB0598A0EB08050698A0EBC8
:100960000906002D02DB0120029003E04FF0FF306A
:1009700002906D42002E02DB0120019003E04FF057
:10098000FF30019076424FEA450A4FEA460BB542E6
:1009900019DDABEB0504002712E049464046109AEA
:1009A00000F02DF8002C05DBA4EB0A040198484464
:1009B0001FFA80F95C44029840441FFA80F87F1CBB
:1009C000AF42EADD18E0AAEB0604002712E0494630
:1009D0004046109A00F013F8002C05DBA4EB0B0442
:1009E000029840441FFA80F85444019848441FFA82
:1009F00080F97F1CB742EADD07B0BDE8F08F70B523
:100A000004460D461646681C83B2601C82B2294615
:100A1000204600F075FA304600F002F970BD00BFC4
:100A2000FEE7000008B50121042000F01FFBE020D4
:100A3000ADF8000048208DF8030069460148FFF733
:100A40003FFD08BD0008014008B50121042000F069
:100A50000DFB0320ADF800008DF8020010208DF88A
:100A6000030069460A48FFF72BFD0121082000F02A
:100A7000FDFA4FF47070ADF8000003208DF802000D
:100A800010208DF8030069460248FFF719FD08BDE4
:100A900000080140000C01402DE9F84F80460E4649
:100AA00017461C46B3462046E31704EB5373DB108E
:100AB00021464FEAE47C04EB5C7C4FEAEC0CA4EBAF
:100AC000CC0CBCF1000F02D04FF0010C01E04FF054
:100AD000000C6344224604EBD27C4FEA6C0C03FB0F
:100AE0000CF3DBB20093A7F12000C7B2002553E05E
:100AF0000C2C07D107EB47002A4901EB800010F8C6
:100B0000059013E0102C05D1274800EB071010F8D2
:100B100005900BE0182C07D107EBC700234901EB28
:100B2000800010F8059001E0BDE8F88F4FF0000A52
:100B30002CE009F0800030B11D4802883146404663
:100B4000FFF75DFF07E00A9828B91A480288314686
:100B50004046FFF754FF4FEA49604FEA1069701CA6
:100B600086B2802E00DBDFE7A6EB0B00A04209D1A6
:100B70005E4608F101001FFA80F8B8F1800F00DB33
:100B8000D2E706E00AF1010000F0FF0ABAF1080F0F
:100B9000CFDB00BF681CC5B200988542A8DB00BF50
:100BA000C2E70000F92700086D2C00085D3200083C
:100BB00094000020960000202DE9F84F04460D46D1
:100BC00090469946DDE90A6704F0FF0A08EB040045
:100BD0001FFA80F809EB05001FFA80F916E044457A
:100BE00002DB5446A81985B24D4500DB14E0002015
:100BF00000903A78334629462046FFF74DFF3046AD
:100C000006EBD07104EB61018CB27F1C38787E2832
:100C100002DC38782028E2DA00BFBDE8F88F000057
:100C200010B50446012008490860402007490860C3
:100C3000201200F055FBE0B200F052FB0120024907
:100C4000091F086010BD000014080140100C01408D
:100C500008B50121102000F009FA4FF40050ADF85A
:100C6000000010208DF8030003208DF80200694673
:100C70000448FFF725FC4FF400510248FFF7ABFC96
:100C800008BD00000010014070B506467F231A46DB
:100C90000021084600F034F92C2000F07BF90024F4
:100CA00008E0002503E03046FFF7BAFF6D1C802DF9
:100CB000F9D3641C802CF4D370BD10B5FFF7C4FECB
:100CC00000F00CF9112000F065F9782000F0E2FD49
:100CD000B12000F05FF9012000F048F92C2000F06D
:100CE00045F92D2000F042F9B22000F053F901201F
:100CF00000F03CF92C2000F039F92D2000F036F9F5
:100D0000B32000F047F9012000F030F92C2000F06A
:100D10002DF92D2000F02AF9012000F027F92C20D0
:100D200000F024F92D2000F021F9B42000F032F970
:100D3000072000F01BF9C02000F02CF9A22000F0E1
:100D400015F9022000F012F9842000F00FF9C120FB
:100D500000F020F9C52000F009F9C22000F01AF9CE
:100D60000A2000F003F9002000F000F9C32000F091
:100D700011F98A2000F0FAF82A2000F0F7F8C420D0
:100D800000F008F98A2000F0F1F8EE2000F0EEF80B
:100D9000C52000F0FFF80E2000F0E8F8362000F043
:100DA000F9F8C82000F0E2F8E02000F0F3F80F2096
:100DB00000F0DCF81A2000F0D9F80F2000F0D6F887
:100DC000182000F0D3F82F2000F0D0F8282000F0F1
:100DD000CDF8202000F0CAF8222000F0C7F81F202C
:100DE00000F0C4F81B2000F0C1F8232000F0BEF88A
:100DF000372000F0BBF8002000F0B8F8072000F022
:100E0000B5F8022000F0B2F8102000F0AFF8E120B1
:100E100000F0C0F80F2000F0A9F81B2000F0A6F8A1
:100E20000F2000F0A3F8172000F0A0F8332000F006
:100E30009DF82C2000F09AF8292000F097F82E2039
:100E400000F094F8302000F091F8302000F08EF897
:100E5000392000F08BF83F2000F088F8002000F0E7
:100E600085F8072000F082F8032000F07FF81020BA
:100E700000F07CF82A2000F08DF8002000F076F8D1
:100E8000002000F073F8002000F070F87F2000F0E0
:100E90006DF82B2000F07EF8002000F067F80020AD
:100EA00000F064F8002000F061F89F2000F05EF888
:100EB000F02000F06FF8012000F058F8F62000F064
:100EC00069F8002000F052F83A2000F063F805209D
:100ED00000F04CF8292000F05DF810BD10B580201E
:100EE00006490860642000F0D5FC80200349091FF2
:100EF0000860322000F0CEFC10BD0000140C014050
:100F0000F0B504460D4616461F462A2000F042F86A
:100F1000002000F02BF8A11CC8B200F027F8002038
:100F200000F024F8B11CC8B200F020F82B2000F02B
:100F300031F8002000F01AF8E91CC8B200F016F8E9
:100F4000002000F013F8F91CC8B200F00FF82C20B4
:100F500000F020F8F0BD30B504460D462B46224681
:100F600029462046FFF7CCFF30BD000010B50446EF
:100F7000012006490860402005490860204600F02D
:100F8000AFF901200149091F086010BD1408014094
:100F9000100C014010B504460120064908604020AD
:100FA00005490860204600F09BF901200149091F0E
:100FB000086010BD14080140140C014000BFFEE79A
:100FC0007047000070B5002100230F22C47804B3DD
:100FD000154C246804F4E064C4F5E064210AC1F10E
:100FE0000403CA40447804FA03F18478144021438E
:100FF00009010E4C0678A155047804F01F05012460
:10100000AC4005786D11AD0005F1E025C5F8004153
:1010100009E0047804F01F050124AC40044D067873
:10102000761145F8264070BD0CED00E000E400E0CC
:1010300080E100E002490143024A1160704700006C
:101040000000FA050CED00E07047000029B1064AE7
:10105000D2690243044BDA6104E0034AD269824355
:10106000014BDA61704700000010024029B1064AC6
:1010700092690243044B9A6104E0034A92698243F5
:10108000014B9A61704700000010024030B500210A
:101090000022002400232D4D6D6805F00C0121B1C4
:1010A000042905D0082923D105E0294D056022E057
:1010B000274D05601FE0254D6D6805F47012234D26
:1010C0006D6805F48034022505EB92421CB9214D70
:1010D000554305600BE01D4D6D6805F400351DB1ED
:1010E0001C4D5543056002E0194D5543056002E073
:1010F000174D056000BF00BF144D6D6805F0F0018D
:101100000909154D6B5C0568DD4045600F4D6D6844
:1011100005F4E061090A104D6B5C4568DD408560AF
:101120000A4D6D6805F46051C90A0B4D6B5C45684A
:10113000DD40C560054D6D6805F44041890B074DE4
:101140006B5CC568B5FBF3F5056130BD001002406E
:1011500000127A0000093D009C000020AC00002035
:1011600000B587B001210820FFF780FF0121880327
:10117000FFF76CFF4FF46040ADF8180018208DF8B1
:101180001B0003208DF81A0006A91848FFF798F9EC
:101190004FF460411548FFF71EFA0020ADF8040037
:1011A0004FF48270ADF806000020ADF80800022070
:1011B000ADF80A000120ADF80C004002ADF80E00B9
:1011C0003820ADF810000020ADF812000720ADF86F
:1011D000140001A9064800F065F80121044800F058
:1011E00047F8FF2000F006F807B000BD000C0140F2
:1011F0000038004070B50546002405E0601CC4B20C
:10120000C82C01DD002070BD02210E4800F03CF822
:101210000028F3D029460B4800F042F8002405E0EE
:10122000601CC4B2C82C01DD0020ECE70121054898
:1012300000F02AF80028F3D0024800F02EF8C0B2DF
:10124000E1E700000038004010B504460748008878
:101250004FF6C771084005490880084600882043BA
:1012600008800121014800F003F810BD003800405B
:1012700021B1028842F04002028004E002884FF669
:10128000BF731A40028070470246002013890B404A
:101290000BB1012000E000207047014688897047AB
:1012A0008181704710B50022028802F441520B88F8
:1012B0004C8823438C882343CC8823430C892343C5
:1012C0004C8923438C892343CC8923431A430280CE
:1012D000838B4FF2FF74234083830B8A038210BDFC
:1012E0000021082117E000F0800222B14FF4807243
:1012F0000A4B1A6004E04FF48072084B1B1D1A6001
:101300004FF40072054B1B1D1A601B1F1A6042062A
:10131000100E4A1ED1B20029E5DC7047100C0140C6
:10132000704710B500F002F810BD00000CB50020A9
:10133000019000903348006840F4803031490860E3
:1013400000BF3048006800F4003000900198401C55
:101350000190009818B90198B0F5A06FF1D1294813
:10136000006800F4003010B10120009001E000207E
:1013700000900098012843D12348006840F01000F5
:10138000214908600846006820F00300086008460C
:10139000006840F0020008601A4840681949486037
:1013A0000846406848600846406840F480604860ED
:1013B0000846406820F47C1048600846406840F4C5
:1013C000E81048600846006840F08070086000BF80
:1013D0000C48006800F000700028F9D00948406807
:1013E00020F00300074948600846406840F00200CA
:1013F000486000BF0348406800F00C000828F9D19D
:101400000CBD00000010024000200240042808D15A
:101410004FF0E021096941F004014FF0E022116131
:1014200007E04FF0E021096921F004014FF0E022CC
:10143000116170477047000010B51348006840F014
:1014400001001149086008464068104908400E49EB
:101450004860084600680E4908400B490860084685
:10146000006820F4802008600846406820F4FE00F0
:1014700048604FF41F008860FFF753FF4FF0006093
:101480000449086010BD0000001002400000FFF891
:10149000FFFFF6FE08ED00E021B1028842F00102F4
:1014A000028004E002884FF6FE731A400280704703
:1014B0008184704710B540F225511D4800F082F834
:1014C00010B31B4800F03AF9C4B21A48008800F47F
:1014D0000040C8B91748008800F4804060B10A2C69
:1014E00003D000201349088020E01248008840F40F
:1014F00000401049088019E00D2C06D10D480088E5
:1015000040F480400B49088010E00A480088C0F38E
:101510000D0009490C5407480088401C0549088003
:1015200008460088C72801DD0020088010BD0000A3
:101530000038014090000020B000002010B540F2BB
:101540002551164800F03EF8F8B1144800F0F6F8BE
:10155000C4B21348008800F40040B0B910480088B5
:10156000B0F5167F12DA00210E48FFF7A1FF0C48F4
:10157000008818B901210B48FFF78EFF0849088839
:10158000411C074A118008490C5405E004480088B2
:1015900040F400400249088010BD000000440040B3
:1015A0009A000020001400407801002021B18289B7
:1015B00042F40052828104E082894DF6FF731A40A2
:1015C0008281704770B50246002400230025002068
:1015D00040F66A16B14200D100BFC1F3421501F0D6
:1015E0001F03012606FA03F3012D02D19689334029
:1015F00006E0022D02D1168A334001E0968A33407C
:101600000C12012606FA04F41688344013B10CB10A
:10161000012000E0002070BDF0B503460024002644
:101620000025002040F66A17B94200D100BF1846D5
:10163000C1F3421401F01F06012707FA06F5012C39
:1016400001D10C3004E0022C01D1103000E0143044
:101650001AB107682F43076002E00768AF430760CD
:10166000F0BD00002DE9F04786B005460E46002487
:10167000A24600BFA1460027B08900B100BF2F4697
:101680002C8A4CF6FF700440F08804432C82AC890D
:101690004EF6F3100440B08831890843718908433D
:1016A0000443AC81AC8A4FF6FF400440B089044348
:1016B000AC8201A8FFF7EAFC1F48874202D1DDF89F
:1016C00010A001E0DDF80CA0A88900F4004040B1B2
:1016D0000AEBCA0000EB0A1031684900B0FBF1F8D0
:1016E00007E00AEBCA0000EB0A1031688900B0FB82
:1016F000F1F86420B8FBF0F004012009642101FB3B
:101700001089A88900F4004040B1322000EBC900E4
:10171000B0FBF1F000F00700044308E0322000EBDA
:1017200009106421B0FBF1F000F00F0004432C819C
:1017300006B0BDE8F0870000003801400146888807
:10174000C0F30800704700BFFEE7000008B50121A4
:101750000820FFF78BFC4FF48050ADF800001020FC
:101760008DF8030003208DF8020069460A48FEF751
:10177000A7FE4FF480510848FEF72DFF01200749CE
:101780000860FFF7EDFC0020FFF75EFD00F032F887
:101790000349088008BD0000000C0140B0812142CF
:1017A000980000202DE9F04106460C46174600201F
:1017B0000F4908600320FFF71DFDC4F30740FFF742
:1017C00019FDC4F30720FFF715FDE0B2FFF712FD86
:1017D000002505E0FF20FFF70DFD7055681C85B260
:1017E000BD42F7DB012002490860BDE8F08100003E
:1017F000B081214210B5002400200E4908609020DD
:10180000FFF7F8FC0020FFF7F5FC0020FFF7F2FCE3
:101810000020FFF7EFFCFF20FFF7ECFC44EA002478
:10182000FF20FFF7E7FC044301200349C1F8B001A2
:10183000204610BDB08121420080214230380A2864
:1018400001D20120704700207047014600BF704759
:1018500010B56FF00400FFF7D9FD0A4800680A4987
:10186000B0FBF1F0094908700846007800EB400130
:10187000C1EBC0104FF6FF7101EAC00004490880B7
:1018800010BD00007000002000127A0084000020CB
:10189000860000200146114A12884A434FF0E02397
:1018A0005A6100229A611A46126942F001021A61D5
:1018B00000BF4FF0E022106900F001021AB100F4FD
:1018C0008032002AF5D04FF0E022126922F00102A6
:1018D0004FF0E0231A6100229A61704786000020D1
:1018E00000BF054A128802F04002002AF9D0C2B2B5
:1018F000014B1B1D1A80704700380140012601274B
:10190000002500BF00BF00BF01206749087000200C
:1019100066490880FFF79CFF4FF4A060FFF78AFB41
:101920004FF4165000F0EAF8FFF710FFFFF790F9B8
:10193000FFF778F8FFF7C1F902205D4908604FF61C
:10194000FF70FFF7A1F9FFF755FF4EF617718842B8
:1019500016D1002057490860C820FFF79BFF0120DF
:101960005549C1F8B401C820FFF794FF0020514940
:101970000860C820FFF78EFF01204F49C1F8B4016D
:101980007F231A4600210846FFF7BAFA01240FE028
:10199000012000EB440102224848FFF703FF4749BA
:1019A0000978464A527841EA0220FFF739F9641C67
:1019B00043F601708442EBD941A0FEF709FC47F6DB
:1019C0007C50FFF761F9FEF709FE6BE03E480068C6
:1019D000E0B90A20FFF75EFF3B480068B0B900BFDE
:1019E000394800680028FBD0701CC6B2002031497D
:1019F00008600A20FFF74EFF01202F49C1F8B4010B
:101A000032A0FEF7E5FB33A0FEF7E2FB2E48001FF5
:101A10000068F0B90A20FFF73DFF2B48001F00685F
:101A2000B8B900BF2848001F00680028FAD0781C09
:101A3000C7B200201F4908600A20FFF72BFF0120D2
:101A40001D49C1F8B40121A0FEF7C2FB24A0FEF796
:101A5000BFFB1D48001D006820BB0A20FFF71AFFCE
:101A60001948001D0068E8B9681CC5B2022D00D1F4
:101A7000002500200F4908600A20FFF70BFF012016
:101A80000D49C1F8B40100BF0F48001D00680028CF
:101A9000FAD0012D02D115A0FEF79AFB15B915A0B9
:101AA000FEF796FB92E700009200002090000020D5
:101AB00010080140B4012242000022420000002030
:101AC0004D300D0A00000000180121424739310D48
:101AD0000A0000004730312058310D0A0000000094
:101AE0004730312059310D0A000000004D340D0AF5
:101AF000000000004D320D0A0000000010B586B055
:101B00000446012144F20400FFF7B0FA4FF40070DC
:101B1000ADF8140003208DF8160018208DF817007A
:101B200005A91C48FEF7CCFC4FF48060ADF814000A
:101B300004208DF8170005A91648FEF7C1FC2520E2
:101B40008DF8000003208DF801008DF802000120BF
:101B50008DF803006846FFF735FA01940020ADF8D0
:101B60000800ADF80A00ADF80C00ADF810000C202C
:101B7000ADF80E0001A90848FFF774FD012240F2FC
:101B800025510548FFF748FD01210348FFF70EFDE9
:101B900006B010BD00080140003801400000000000
:101BA0000000000000000000000000000010101005
:101BB00010101010101000001010000000006C6CCD
:101BC0002424000000000100000000000024242460
:101BD00024FE48484848FC909090900000103C54E7
:101BE0009290503814121292547810000000225C27
:101BF00094A8481010242A5254880000000030484D
:101C00004850206E54948C888A7400000000382854
:101C10003800000000000000000000000004081070
:101C200010202020202020101008040000804020D8
:101C30002010101010101020204080000000000024
:101C4000105438103854100000000000000000103C
:101C5000101010FE10101010000000000000000016
:101C60000000000000000000101020000000000034
:101C7000000000FE00000000000000000000000066
:101C8000000000000000000010100000000004042C
:101C900008081010202040408080000000003844D8
:101CA0008282828282828282443800000000107028
:101CB0001010101010101010107C0000000038449C
:101CC000828204081020408284FC00000000384416
:101CD0008202043804020282443800000000040C2E
:101CE000141424244444FE04040E00000000FC806C
:101CF0008080B8C4820202828478000000003C42E6
:101D00008280B8C4828282824438000000007E4211
:101D10008204040808081010101000000000384465
:101D20008282443844828282443800000000384471
:101D300082828282463A028244380000000000001B
:101D40001010000000001010000000000000000053
:101D50001010000000000010102000000000000023
:101D600006186080601806000000000000000000F7
:101D70000000FE0000FE0000000000000000000067
:101D8000C0300C020C30C00000000000003844825B
:101D900082020408101010001010000000003844E7
:101DA000829AAAAAAAAAAA9680423C000000101011
:101DB0001028282844447C4444EE00000000FC42E3
:101DC0004242427C4242424242FC000000003C440B
:101DD0008280808080808282443800000000F84445
:101DE000424242424242424244F800000000FC4467
:101DF0004240447C4440404244FC00000000FC441B
:101E00004240447C4440404040F000000000344CDC
:101E1000828080808E8484844C3400000000EE44F4
:101E20004444447C4444444444EE000000007C109C
:101E30001010101010101010107C000000003E0850
:101E40000808080808080888887000000000EE44A8
:101E5000484850605048484444EE00000000E040CC
:101E6000404040404040404244FC00000000C64426
:101E70006C6C6C545454444444EE00000000CE4456
:101E800064646454544C4C4C44E4000000003844F6
:101E90008282828282828282443800000000F8447A
:101EA000424242447840404040E000000000384454
:101EB00082828282828282BA443C02000000F04820
:101EC000444444487048444444E6000000003C4414
:101ED000828040300C0202824478000000007C5472
:101EE0009210101010101010103800000000EE4476
:101EF0004444444444444444443800000000EE4414
:101F00004444442828282810101000000000EE4403
:101F10005454545454542828282800000000EE44F7
:101F2000442828101028284444EE00000000EE4405
:101F300044282828101010101038000000007E449B
:101F4000840808102020408284FC0000001C10102F
:101F5000101010101010101010101C000000EE4493
:101F60005454FE545454282828280000007010109F
:101F70001010101010101010101070000030488455
:101F80000000000000000000000000000000000051
:101F900000000000000000000000FE0000402000E3
:101FA0000000000000000000000000000000000031
:101FB00000007884047C84848C7600000000C0409B
:101FC0004040586442424242645800000000000011
:101FD00000003844808080804438000000000C04F9
:101FE0000404344C848484844C36000000000000D7
:101FF0000000788484FC808084780000000018242D
:102000002020F82020202020207000000000000068
:1020100000003A444478807C82827C000000C0400A
:10202000404058644444444444EE00000000101012
:1020300000003010101010101038000000001010B8
:102040000000301010101010109060000000C04010
:1020500040405C485060504844EE000000000010D2
:102060007010101010101010107C00000000000004
:102070000000ACD29292929292D600000000000032
:10208000000058E44444444444EE000000000000D2
:102090000000003C42424242423C0000000000007E
:1020A0000000D864424242645840E0000000000052
:1020B0000000364C8484844C34040E000000000080
:1020C00000006C3020202020207000000000000064
:1020D00000007888846018844478000000000020A4
:1020E0002020F820202020202418000000000000DC
:1020F0000000C64242424242463A00000000000050
:102100000000EE44442828281010000000000000C1
:102110000000EE4444545428282800000000000029
:102120000000EE442810102844EE000000000000DB
:102130000000EE444428281010A0C0000000000059
:1021400000007E448810204284FC0000000C101027
:10215000101010601010101010100C000010101053
:1021600010101010101010101010100000C02020BF
:1021700020202018202020202020C0000000000067
:10218000000000728C0000000000000000B3C900D5
:10219000A0009000807FF8408040907C9044904464
:1021A000A044A0444858A84118820800000000B983
:1021B000A601000100F90023F021102110211021B7
:1021C0001021103910C21002100410086000000025
:1021D00000D1A100000120012003FC622034200472
:1021E0002003FC240021B021202220323E18000FC1
:1021F000E00000CFEE0000000003FE00607C401213
:10220000FC11041106113611241F44794400C0004A
:102210009C01860000C8B70000004000F878C41F89
:102220008C313821EC2126413A7DE2272225FA3DE6
:1022300026012401040000B6A80000010001705F1F
:10224000FC700420042FF801001100113821C43162
:10225000003F0063E0403800000000000000000084
:10226000000000000000000000000000000000006E
:102270000000000000000000000000B4BF000000EB
:10228000000000020100063FC00C3FE018030010F0
:1022900002003336603726203E66301C64301864F6
:1022A0002031FEE03F1FC01C0C00000C00070400A2
:1022B0003E07F00001C00000000000000000000028
:1022C0000000000000C9AB00000000000001FE009B
:1022D00003E3000703000C03001C3F003BFFC03F6B
:1022E00030600C30200C30200C10200C10600FFFE0
:1022F000C0083F000800000800600E3FE007FC0037
:10230000000000000000000000000000000000CC01
:10231000EE00000000000000030000FFE00C07F0EA
:102320000C06000CFF803FF0E01FC0600CFE300C7C
:10233000CC3004F83004FF2004C0201FFE603EC0F3
:102340006001FFF001FFF00060600040000000004D
:10235000000000000000000000B3E40000000000E6
:102360000000200000300007FFF03FFFE003000006
:102370000601800C01800801C01807E00FFE7007FD
:10238000E0000206000604000404000404000C0639
:10239000700C07E0000000000000000000000000DA
:1023A000000000B2E200000000000000003039FC34
:1023B000301FCC300706B00F06F01907B03137B028
:1023C0003136F01F27F00167F001E5F001E1F00080
:1023D00041F00CF8B03CD830008C30008030000068
:1023E00000000000000000000000000000CAD4004F
:1023F00000000000000803600C03700C0330003F75
:10240000E0003F800801003C0180047F80047D8063
:102410000C00800C10C00C10C00C18400C1C600F7D
:102420007E600670300000300000000000000000F8
:1024300000000000000000CEC400000000C000004A
:10244000E00000700001FFE01FFFC0180100000362
:1024500000000600000E00001C000E1800073000EF
:1024600001E00000F00000FC00018F000303C00247
:1024700001E000000000000000000000000000007B
:1024800000D7D6000000000000002000003F00310F
:10249000FFE03FC02038003030FE2033C66010021D
:1024A00000000C00001800001800000C0007FFE0FE
:1024B0003FFFE0000400000C00000C0000000000E2
:1024C0000000000000000000000000CFD400000069
:1024D00000000007FF000F03C00C00401FF8601849
:1024E00000600800400E01C007FF000000000184EA
:1024F000000184001987800F8CE0078C2000CC003D
:1025000003FFE01FFFC0000000000000000000000B
:102510000000000000CABE0000000000000E000025
:102520001FFFC0007FE0000000000000000000006E
:102530000000003FC03FFFE00030000030000030EE
:10254000000613000C13C00C18F01818001818001F
:10255000000000000000000000000000000000CDAE
:10256000BC00000000000007FF000F03801CC0C07B
:1025700019FC6011C66033062033E63036FF303078
:102580001FF030703030FC30339F3036002010E0C8
:1025900060187C400E01C003FF00003800000000FE
:1025A000000000000000000000C6AC0000000000B9
:1025B00000081800180800180800180800180C2057
:1025C0001FFFF01FF80018000010000010F8001F97
:1025D000FE001E0300100300100300100300100390
:1025E00000180200000000000000000000000000D1
:1025F000000000CFD400000000000007FF000F0320
:10260000C00C00401FF8601800600800400E01C0B8
:1026100007FF000000000184000184001987800F7B
:102620008CE0078C2000CC0003FFE01FFFC00000FF
:1026300000000000000000000000000000CABE0012
:1026400000000000000E00001FFFC0007FE000003F
:1026500000000000000000000000003FC03FFFE05D
:102660000030000030000030000613000C13C00CD6
:1026700018F01818001818000000000000000000F2
:1026800000000000000000B4A500000000000006EB
:1026900001800FC1801E6180304FC020CFE0078DC8
:1026A000303FC9303379303379303FFB3037FF204A
:1026B0003267E03FE3803FE3C03263603267F0306F
:1026C0004FB000000000000000000000000000000B
:1026D00000C3FE0000000000000030C000FFF00C4E
:1026E00079C00C1F800C7FE03FE0600CC0300CFC18
:1026F0003004C03007C0301E60603C3FC0041C0086
:10270000047FE000FFE00030C000606000000000D7
:102710000000000000000000000000CAE40000000B
:102720000000000C03800C0FC0081C703F70001FDD
:102730009FC0101FC0100000367C3017E6301FE32A
:10274000B0067FB00277F007E3F03F7FF01336F07A
:1027500003263003263000000000000000000000C7
:102760000000000000C8EB000000000000060000B0
:1027700003800001C00000E000007000007800004D
:10278000CC0000C6000183000301800700C00600E2
:10279000E00C00701800301800003000000000004D
:1027A0000000000000000000000000000000000029
:1027B0000000000000000000000000000000000019
:1027C0000000000000000000000000000000000009
:1027D00000000000000000000000000000000000F9
:1027E00000000000000000000000000000000000E9
:1027F00000000000000000000000000000000000D9
:102800000000000000000000003F40000000000049
:102810000000003000400030004000000009000BC4
:10282000C03D000BC03D00090018C024407FE022DD
:102830004031800000180024C01B000D8032400190
:102840008003801C4027401C80074000401000602F
:102850000000000000000000000000000000001F59
:1028600080204040200000402020401F80000000C9
:1028700000090006001F8006000900000004000493
:10288000003F800400040000000010006000000011
:102890000000000000040004000400040004000024
:1028A00000000000400000000000000000002001C7
:1028B000C006003800400000001F8020402040205B
:1028C000401F800000000010403FC000400000009A
:1028D0000018C021402240244018400000108020F1
:1028E00040244024401B80000002000D0011003FE6
:1028F000C0014000003C802440244024402380004C
:10290000001F802440244034400380000030002019
:102910000027C03800200000001B802440244024F1
:10292000401B8000001C0022C0224022401F80006B
:10293000000000000008400000000000000000004F
:10294000000460000000000000000004000A001104
:10295000002080404009000900090009000900002A
:102960000000004040208011000A000400180020F0
:102970000023402400180000001F80204027402929
:10298000401F400000004007C039000F0001C00098
:102990004020403FC0244024401B8000001F802076
:1029A00040204020403080000020403FC020402098
:1029B000401F80000020403FC024402E4030C00017
:1029C0000020403FC024402E00300000000F0010C7
:1029D00080204022403380020020403FC004000499
:1029E000003FC02040204020403FC0204020400009
:1029F000000060202020203FC02000200020403F19
:102A0000C024400B0030C0204020403FC020400088
:102A100040004000C03FC03C0003C03C003FC0003D
:102A20000020403FC00C4023003FC020001F8020FA
:102A300040204020401F80000020403FC024402410
:102A400000180000001F802140214020E01FA0004E
:102A50000020403FC02440260019C0004018C02478
:102A6000402440224031800000300020403FC02000
:102A7000403000000020003F80004000403F8020A8
:102A80000020003E0001C007003800200038000789
:102A9000C03C0007C038000000204039C0060039A3
:102AA000C0204000002000384007C038402000000F
:102AB00000304021C02640384020C0000000000007
:102AC000007FE0402040200000000070000C000368
:102AD00080004000000000402040207FE000000017
:102AE0000000002000400020000000000000100056
:102AF0001000100010001000100000000040000046
:102B00000000000000000002800540054003C000F6
:102B10004020003FC0044004400380000000000348
:102B2000800440044006400000000003800440246C
:102B3000403FC000400000038005400540034000C6
:102B400000000004401FC024402440200000000278
:102B5000E0055005500650042020403FC0044004CA
:102B60000003C000400000044027C00040000000F7
:102B70000000100010041027E00000000020403F7B
:102B8000C00140070004C00440204020403FC00076
:102B9000400040000007C0040007C0040003C0005C
:102BA00000044007C00440040003C00040000003CC
:102BB000800440044003800000041007F004500427
:102BC0004003800000000003800440045007F00030
:102BD00010044007C002400400040000000000068A
:102BE000400540054004C00000000004001F8004B0
:102BF0004000400000040007800040044007C0007F
:102C0000400400070004C001800600040006000123
:102C1000C0070001C006000000044006C001000615
:102C2000C0044000000410071004E0018006000406
:102C3000000000044005C006400440000000000001
:102C40000004007BE040200000000000000000FFC6
:102C5000F000000000000040207BE00400000000C5
:102C600000400080004000200020004000000000E4
:102C70000000000000000000000000000000000054
:102C80000000001FCC000C00000000000000000845
:102C900000300060000800300060000000022003E7
:102CA000FC1E20022003FC1E200220000000000E5B
:102CB0001811043FFF10840C78000000000F001072
:102CC000840F3800C0077818840078000000780F5F
:102CD0008410C411240E9800E400840008080068E1
:102CE0000070000000000000000000000000000074
:102CF00000000007E0181820044002000000004017
:102D0000022004181807E000000000000002400242
:102D10004001800FF001800240024000000080006E
:102D20008000800FF800800080008000000001001B
:102D30000D000E0000000000000000000000000078
:102D40008000800080008000800080008000000003
:102D50000C000C000000000000000000000000005B
:102D6000060018006001800600180020000000071F
:102D7000F0080810041004080807F000000000081C
:102D80000408041FFC000400040000000000000E02
:102D90000C10141024104411840E0C000000000CC0
:102DA0001810041104110412880C700000000000B7
:102DB000E00320042408241FFC0024000000001F5E
:102DC000981084110411041088107000000000078E
:102DD000F008881104110418880070000000001C1D
:102DE00000100010FC13001C001000000000000E7A
:102DF0003811441084108411440E3800000000077C
:102E000000088C10441044088807F00000000000FF
:102E1000000000030C030C00000000000000000094
:102E2000000001010600000000000000000000009A
:102E30008001400220041008081004000002200253
:102E400020022002200220022002200000000010A8
:102E50000408080410022001400080000000000E59
:102E6000001200100C106C10800F00000003E00C2A
:102E70001813E4142417C4082807D0000000040025
:102E80003C03C41C40074000E4001C000410041F65
:102E9000FC1104110411040E880070000003E00C02
:102EA0001810041004100410081C10000010041F57
:102EB000FC100410041004080807F0000010041FA0
:102EC000FC1104110417C410040818000010041F9A
:102ED000FC1104110017C010000800000003E00CF2
:102EE000181004100410441C780040000010041F47
:102EF000FC10840080008010841FFC10040000106F
:102F00000410041FFC100410040000000000030063
:102F100001100110011FFE10001000000010041F1E
:102F2000FC110403801464181C1004000010041F1A
:102F3000FC1004000400040004000C000010041F36
:102F4000FC1F0000FC1F001FFC1004000010041FE9
:102F5000FC0C04030000E010181FFC100007F00830
:102F600008100410041004080807F0000010041FE3
:102F7000FC10841080108010800F00000007F00803
:102F80001810241024101C080A07F2000010041F57
:102F9000FC1104110011C011300E0C000400000ED1
:102FA0001C11041084108410441C380000180010F8
:102FB0000010041FFC100410001800000010001F77
:102FC000F810040004000410041FF8100010001E84
:102FD0000011E0001C007013801C0010001FC010C6
:102FE0003C00E01F0000E0103C1FC000001004186F
:102FF0000C163401C001C01634180C100410001C4B
:1030000000130400FC13041C00100000000804104E
:103010001C1064108413041C04101800000000002D
:103020000000007FFE40024002400200000000302D
:10303000000C0003800060001C0003000000004042
:1030400002400240027FFE0000000000000000007D
:10305000002000400040004000200000000001006F
:103060000100010001000100010001000100004019
:1030700000400020000000000000000000000000F0
:1030800098012401440144014400FC000410001F85
:10309000FC008801040104008800700000000000AA
:1030A0007000880104010401040088000000000091
:1030B0007000880104010411081FFC0004000000D6
:1030C000F8014401440144014400C800000000012B
:1030D0000401040FFC110411041100180000000089
:1030E000D601290129012901C90106000010041F88
:1030F000FC008401000100010400FC000400000148
:1031000004190419FC000400040000000000000081
:103110000300010101190119FE0000000010041F45
:10312000FC0024004001B4010C0104000000001068
:103130000410041FFC00040004000000000104014E
:10314000FC0104010001FC0104010000FC01040178
:10315000FC008401000100010400FC0004000000E8
:10316000F8010401040104010400F8000001010158
:10317000FF008501040104008800700000000000C9
:1031800070008801040104010501FF000101040130
:103190000401FC0084010401000180000000000023
:1031A000CC01240124012401240198000000000125
:1031B00000010007F8010401040000000001000103
:1031C000F8000400040004010801FC0004010001EF
:1031D000800170000C001001600180010001F0010D
:1031E0000C003001C00030010C01F00100000001B2
:1031F00004018C00740170018C01040000010101C4
:10320000810171000E0018016001800100000001C1
:1032100084010C013401440184010C000000000011
:10322000000000000001003EFC40024002000000DF
:103230000000000000FFFF00000000000000004050
:103240000240023EFC01000000000000000000609F
:1032500000800080004000400020002000000000AE
:10326000000000000000000000000000000000005E
:10327000000000000000000000000000000000004E
:10328000000000000000000000000000000000003E
:103290000F80380FFE380F8038000000000000005B
:1032A0000000000000000000000000010000060017
:1032B000000C00003800003100000600000C000087
:1032C00038000030000000000000000000618000B5
:1032D00067F807F98000618000618000618000610B
:1032E000800067F807F9800061800000000000009E
:1032F00000000001C0E003E0F00630080418081FD9
:10330000FFFE040E080787F00381E00000000000C4
:103310000001F000060C00040408060C7001F9C05E
:10332000000E00003BE000EC18070808040C180031
:1033300003E00000000001E00007F003F818041C9F
:103340000804170807E1D003C0E00023B0003C08E0
:103350000020080000100000000000000100003103
:1033600000003200001C000000000000000000000F
:10337000000000000000000000000000000000004D
:10338000000000000000000000000000007F0001BD
:10339000FFC00780F00C001810000420000200009D
:1033A000000000002000021000040C00180780F04C
:1033B00001FFC0007F0000000000000000000000CE
:1033C00000000000000000000042000066000066EF
:1033D00000003C0000180003FFC0001800003C0083
:1033E00000660000660000420000000000080000C7
:1033F000080000080000080000080001FFC00008E5
:10340000000008000008000008000008000000009C
:1034100000000100003100003200001C000000002C
:10342000000000000000000000000000000000009C
:10343000000000000008000008000008000008006C
:103440000008000008000008000008000008000054
:10345000080000000000000000000000003800002C
:1034600038000038000000000000000000000000EC
:103470000000000000000000000000000000060046
:10348000001C000070000180000E0000380000C029
:10349000000700001C0000300000000000000000D9
:1034A000007F8001FFE0038070060018040008041C
:1034B000000806001803807001FFE0007F80000014
:1034C00000000000000000010008010008010008E1
:1034D00003FFF807FFF800000800000800000800DC
:1034E000000000000000000001C03802C0580400C5
:1034F00098040118040218040418061C1803F8188C
:1035000001E0F800000000000000000001C0E0033E
:10351000C0F004000804080804080806180803F4AA
:103520001801E7F00001E0000000000000000000CA
:10353000000300000D00001100006100008108037D
:10354000010807FFF80FFFF800010800010800005C
:10355000000000000000E007FCD006080806100884
:10356000061008061008061838060FF00607C000F7
:103570000000000000000000003F8001FFE0038425
:103580003002081804100804100804100807181066
:10359000030FF00007C0000000000000000000035F
:1035A000C0000700000600000600F80607F806182D
:1035B0000006E00007000006000000000000000018
:1035C00001E1E003F7F006341004180804180804B9
:1035D0000C08040C0806161803F3F001C1E0000003
:1035E0000000000000F80003FC3003063804020865
:1035F0000402080402080404100308F001FFC000DC
:103600007F0000000000000000000000000000003B
:1036100000000000007038007038007038000000B2
:10362000000000000000000000000000000000009A
:10363000000000000000000000301A00301C0000F4
:10364000000000000000000000000000000000007A
:1036500000000000080000140000220000410000EB
:1036600080800100400200200400100800080000D3
:1036700000000000002100002100002100002100C6
:103680000021000021000021000021000021000095
:1036900021000000000000000000000800080400F5
:1036A0001002002001004000808000410000220044
:1036B00000140000080000000000000003C0000427
:1036C000C000040000080038080F38080838081047
:1036D000000C300007E00003C00000000000000004
:1036E000003F8000FFE0038070020F100670880426
:1036F000C088048308047F8802C09003012000FE74
:10370000400000080000180001F8003E0801C20057
:1037100007020007E20000FE00001FC80001F800D9
:10372000003800000804000807FFF807FFF8040845
:103730000804080804080804080806180803F41810
:1037400001E7F00001E0000000000000003F800100
:10375000FFE0038070020018040008040008040061
:10376000080400100600200780C0000000040008C4
:1037700007FFF807FFF80400080400080400080425
:10378000001802001003807001FFE0007F8000003D
:103790000004000807FFF807FFF8040808040808F9
:1037A000040808040808043E08040008060018017C
:1037B000006000000004000807FFF807FFF8040895
:1037C00008040800040800040800043E0006000085
:1037D000060000018000000000000000003F8001A2
:1037E000FFE00380700600180400080402080402C9
:1037F000080203F00783F000020000020004000842
:1038000007FFF807FFF80408080008000008000098
:10381000080000080004080807FFF807FFF8040084
:10382000080000000000000400080400080400086C
:1038300007FFF807FFF80400080400080400080068
:10384000000000000000000000000600000700006B
:103850000104000104000104000307FFFE07FFFC50
:1038600004000004000004000004000807FFF8073B
:10387000FFF8040C08001800003E0004C780050390
:10388000C80600F804003804001800000804000806
:1038900007FFF807FFF80400080000080000080010
:1038A0000008000008000008000018000060000088
:1038B0000004000807FFF807800807FC00007FC02D
:1038C0000003F80007C000780007800807FFF8072A
:1038D000FFF804000804000807FFF807000803C009
:1038E0000000E000003800001E000007000001C0DA
:1038F0000400F007FFF8040000000000007F8001D2
:10390000FFE00380700600180400080400080600A9
:103910001803003001FFE0007F8000000004000871
:1039200007FFF807FFF80404080404000404000477
:103930000400040400060C0003F80001F00000007D
:1039400000000000007F8001FFE003807006008817
:103950000400880400C806003C03003E01FFE600A6
:103960007F8400000004000807FFF807FFF8040840
:1039700008040800040C00040F00040BC00610F03B
:1039800003F03801E00800000800000001E0F8033F
:10399000F030063010041808041808040C08040C51
:1039A000080206180207F00781E00000000180000D
:1039B00006000004000004000004000807FFF807E8
:1039C000FFF8040008040000040000060000018065
:1039D0000004000007FFE007FFF0040018000008E3
:1039E000000008000008000008000008040010079C
:1039F000FFE004000004000006000007E00007FEEE
:103A000000041FE00001F80000380001E0043E005F
:103A100007C00006000004000004000007E00007E3
:103A2000FFC0041FF80007C007F80007FF80043F2D
:103A3000F80007C004F800070000040000000000C0
:103A400004000806001807C07805F1C8003E000011
:103A50001F800463E80780F80600180400080000CF
:103A60000004000006000007800007E008047C084E
:103A7000001FF80007F800180804E0080700000617
:103A800000000400000000000100080600380400E7
:103A9000F80403E8040F08047C0805F00807C008D0
:103AA0000700180400600000000000000000000093
:103AB00000000000000000003FFFFE200002200088
:103AC000022000022000022000020000000000008E
:103AD00000000008000007000000C00000380000DF
:103AE00006000001C000003000000E0000010000D0
:103AF0000000000000000020000220000220000260
:103B00002000022000023FFFFE0000000000000035
:103B1000000000000000000000000000000008009D
:103B200000100000300000200000300000100000F5
:103B3000080000000000000000000001000001007B
:103B40000001000001000001000001000001000070
:103B50000100000100000100000100000100000060
:103B600000000000000020000020000010000010F5
:103B70000000000000000000000000000000000045
:103B8000000000000000F00019F8001B18002208D7
:103B9000002608002408002410003FF8001FF80049
:103BA000000800001800000004000007FFF80FFFE5
:103BB000F000181800100800200800200800301835
:103BC000001FF0000FC00000000000000007C00050
:103BD0001FF0001830002008002008002008003CDA
:103BE00008001C1000006000000000000000000041
:103BF0000007C0001FF0003818002008002008004F
:103C0000200804101007FFF80FFFF000001000005C
:103C1000000000000000000007C0001FF00012308C
:103C2000002218002208002208003208001E10009E
:103C30000E200000000000000020000020080020EE
:103C40000801FFF803FFF8062008042008042008F4
:103C500007200003000000000000000000000E002C
:103C60000E6E001FF30031B10020B10020B1003111
:103C700091001F13002E1E00200E003000000000D7
:103C800004000807FFF80FFFF800100800200000EC
:103C90002000002008003FF8001FF8000008000086
:103CA000000000000000000020080020080020089C
:103CB000063FF8063FF80000080000080000080072
:103CC00000000000000000000000000000030000F1
:103CD00003002001002001002003063FFE063FFCF8
:103CE00000000000000000000000000004000807C1
:103CF000FFF80FFFF8000188000300002FC0003814
:103D0000F800203800200800000800000000000033
:103D100000000004000804000804000807FFF80F72
:103D2000FFF8000008000008000008000000000084
:103D300000002008003FF8003FF8001008002000B5
:103D4000003FF8003FF8001008002000003FF80096
:103D50003FF8000008000000002008003FF8003F86
:103D6000F8001008001000002000002008003FF8B4
:103D7000001FF80000080000000000000007C0005D
:103D80000FF0001830003008002008002008003034
:103D900008001830000FF00007C00000000000000D
:103DA000002001003FFF003FFF001011002009002C
:103DB0002008002008003038001FF0000FC000006D
:103DC000000000000007C0001FF0003818002008A5
:103DD000002008002009001011001FFF003FFF0015
:103DE0000001000000002008002008002008003F1B
:103DF000F8003FF800080800100800200800200024
:103E00000030000030000000000000000000000052
:103E10000C78001E18003308002308002108002138
:103E2000880021980030F000386000000000000099
:103E300000200000200000200000FFF003FFF80039
:103E400020080020080020080000300000000000CA
:103E500000000000002000003FF0007FF800001884
:103E6000000008000008002010003FF8007FF0006C
:103E70000010000000000000002000003000003CA6
:103E800000003F800023F0000078000070002380D5
:103E9000003C00003000002000002000003C00003A
:103EA0003FE00023F80000E0002700003E00003F54
:103EB000E00021F80001E0003E00002000000000CA
:103EC000002008002008003838003E6800278000E5
:103ED00003C8002CF8003838002018002008000023
:103EE00000000000002000003003003C01003F8380
:103EF0000023EC000070002380003C000020000044
:103F00002000000000000000000000003808002031
:103F1000380020F80023E8002F88003E0800380809
:103F200000201800007000000000000000000000E9
:103F300000000000000000000008000014001FF74F
:103F4000FC3000062000020000000000000000001D
:103F5000000000000000000000000000000000FF62
:103F6000FFFF000000000000000000000000000053
:103F7000000000000000002000023000061FF7FCD7
:103F80000014000008000000000000000000000015
:103F90000000000000000000180000600000400069
:103FA0000040000020000010000008000004000095
:103FB0000400000C000010000004000008000000D5
:103FC000000000000200010000100000EC3F0008AB
:103FD00000000020B0000000280100089C400008FC
:103FE000B0000020D80B0000440100080000546815
:103FF00069732070726F6A656374206973206465E9
:104000007369676E206279204561676C6520696617
:1040100020796F75206861766520616E79207175F1
:10402000657374696F6E20706C6561736520636F72
:104030006E6E656374206D65205E5F5E2051513A3F
:1040400020313436303835333536392054656C3AC2
:1040500031333637393432373537390000A24A0424
:104060000000000000000000010203040607080928
:104070000000000000100000000000000000000030
:104080000000FFFF17EF0000000000000102030422
:0C409000010203040607080902040608E8
:040000050800018D61
:00000001FF
