:020000040800F2
:10000000380C0020690C0008710C0008730C000803
:10001000750C0008770C0008790C0008000000003F
:100020000000000000000000000000007B0C000841
:100030007D0C0008000000007F0C0008810C000807
:10004000830C0008830C0008830C0008830C000854
:10005000830C0008830C0008830C0008830C000844
:10006000830C0008830C0008830C0008830C000834
:10007000830C0008830C0008830C0008830C000824
:10008000830C0008830C0008830C0008830C000814
:10009000830C0008830C0008830C0008830C000804
:1000A000830C0008830C0008830C0008830C0008F4
:1000B0009B4C0008830C0008830C0008830C00088C
:1000C000830C0008830C0008830C0008830C0008D4
:1000D000830C0008414300083D0200088302000829
:1000E000830C0008830C0008830C0008830C0008B4
:1000F000830C0008830C0008830C0008830C0008A4
:10010000830C0008830C0008830C0008830C000893
:10011000830C0008830C0008830C0008830C000883
:10012000830C0008830C0008830C0008830C000873
:10013000DFF80CD007F0EAFB004800474501000853
:10014000380C002000F09EFC482000F007FC4FF423
:10015000165000F025F901225102344800F0BCF895
:100160004FF4007031491031086004F0DFFB0120CA
:1001700004F07FF901231A4640F2E931880705F0BF
:100180000DF804F06CFF1421294806F0AEFE0120A2
:1001900027490870487048E025480078002837D083
:1001A00004F025F902F0D2FB00F0A5FD02F0E8FF13
:1001B00004F056FB00F071FD01F07CFC04F040FF00
:1001C00002F077F900201A4908708870194890F8F1
:1001D000280000F0020008B101200874144840789B
:1001E000012808D1134890F8280000F0100010B141
:1001F00006200F4948700E484078062803D1022097
:1002000003F05CFA04E000200949487002F0CAFFDC
:1002100002F0E5FF03F069F90748007828B90020EB
:1002200004F0B2FB0A2004490870B5E7000C014055
:10023000DC000020D40700201000002010B540F2A0
:100240002551214806F014FED0B11F4806F0B1FD3B
:10025000C1B21E4802780078401C1C4B18701C4824
:10026000815440F22551184806F028FE17480078BE
:100270003C2805D1002240F22551134806F039FDF3
:1002800010BD10B540F22551124806F0F1FDD0B175
:10029000104806F08EFDC1B20C4802780078401C70
:1002A0000A4B18700A48815440F22551094806F05B
:1002B00005FE064800783C2805D1002240F2255171
:1002C000044806F016FD10BD004400400000002068
:1002D0006800002000480040F8B504460D46164668
:1002E0002848844204D10121042005F0F3FD2EE0CA
:1002F0002548844204D10121082005F0EBFD26E0C9
:100300002248844204D10121102005F0E3FD1EE0C3
:100310001F48844204D10121202005F0DBFD16E0B6
:100320001C48844204D10121402005F0D3FD0EE099
:100330001948844204D10121802005F0CBFD06E05C
:100340001648844203D10121801505F0C3FD012E1A
:100350000CD1ADF8005003208DF8020010208DF86C
:1003600003006946204605F01FFB09E046B9ADF8D9
:10037000005048208DF803006946204605F014FB24
:10038000F8BD000000080140000C014000100140D1
:100390000014014000180140001C014000200140F1
:1003A00010B586B004464FF4407004F091FF25204C
:1003B0008DF8000000208DF8010001208DF8030069
:1003C000684604F08AFF012144F2050005F082FD31
:1003D0004FF40070ADF8140018208DF817000320BA
:1003E0008DF8160005A9FB4805F0DEFA4FF4806091
:1003F000ADF8140004208DF8170005A9F54805F0A4
:10040000D3FA01940020ADF80800ADF80A00ADF869
:100410000C00ADF810000C20ADF80E0001A9EE485C
:1004200006F0EDFB012240F22551EB4806F061FC9D
:100430000121E94806F051FC0120E849087006B0A6
:1004400010BD10B586B004464FF4407004F040FF74
:1004500026208DF800000B208DF8010001208DF87A
:100460000300684604F039FF0121252005F032FD24
:100470000121480405F03BFD0420ADF814001820CC
:100480008DF8170003208DF8160005A9D14805F056
:100490008BFA0820ADF8140004208DF8170005A988
:1004A000CC4805F081FA01940020ADF80800ADF8C1
:1004B0000A00ADF80C00ADF810000C20ADF80E00ED
:1004C00001A9C74806F09BFB012240F22551C44810
:1004D00006F00FFC0121C24806F0FFFB0220BF49D5
:1004E0000870C0A007F024FA06B010BD10B586B0A1
:1004F00004464FF4407004F0EBFE26208DF8000017
:100500000B208DF8010001208DF80300684604F0EF
:10051000E4FE0121252005F0DDFC0121480405F061
:10052000E6FC0121082005F00EFB2020ADF81400A8
:1005300018208DF8170003208DF8160005A9B14882
:1005400005F032FA4020ADF8140004208DF81700B1
:1005500005A9AC4805F028FA01940020ADF8080080
:10056000ADF80A00ADF80C00ADF810000C20ADF8A5
:100570000E0001A99A4806F042FB012240F22551E3
:10058000974806F0B6FB0121954806F0A6FB02202D
:10059000924908709CA007F0CBF906B010BD10B5C9
:1005A00086B004464FF4407004F092FE27208DF888
:1005B00000000C208DF8010001208DF80300684632
:1005C00004F08BFE012144F2090005F083FC0121B7
:1005D000880405F08CFC4FF48060ADF814001820FE
:1005E0008DF8170003208DF8160005A98E4805F038
:1005F000DBF94FF40060ADF8140004208DF817000B
:1006000005A9894805F0D0F901940020ADF808004B
:10061000ADF80A00ADF80C00ADF810000C20ADF8F4
:100620000E0001A9814806F0EAFA012240F22551A4
:100630007E4806F05EFB01217C4806F04EFB03205D
:10064000664908707AA007F073F906B010BD10B5BE
:1006500086B004464FF4407004F03AFE34208DF822
:1006600000000D208DF8010001208DF80300684680
:1006700004F033FE0121102005F02CFC0121C804F8
:1006800005F035FC4FF48060ADF8140003208DF8C0
:10069000160018208DF8170005A96D4805F084F99B
:1006A0004FF40060ADF8140004208DF8170005A980
:1006B000674805F079F901940020ADF80800ADF81D
:1006C0000A00ADF80C00ADF810000C20ADF80E00DB
:1006D00001A9604806F093FA01215E4806F0FDFA90
:1006E00004203E4908705CA007F022F906B010BD56
:1006F00010B586B004464FF4407004F0E9FD352093
:100700008DF800000E208DF8010001208DF8030007
:10071000684604F0E2FD0121102005F0DBFB012119
:10072000080505F0E4FB4FF48050ADF814000320F9
:100730008DF8160018208DF8170005A9444805F01B
:1007400033F90420ADF814008DF8170005A94048CE
:1007500005F02AF901940020ADF80800ADF80A0070
:10076000ADF80C00ADF810000C20ADF80E0001A99A
:10077000414806F044FA01213F4806F0AEFA052050
:10078000164908703DA007F0D3F806B010BD70B54B
:1007900004460D461148007801280BD1E1B20E48FD
:1007A00006F003FB00BF0C48008800F08000002822
:1007B000F9D0A3E009480078022870D1E1B20848D6
:1007C00006F0F3FA00BF0648008800F08000002819
:1007D000F9D093E0000801400038014011000020EA
:1007E000004400400D0A20555341525432312043F9
:1007F0006F6E66696775726174696F6E204F4B0D1D
:100800000A000000001401400D0A205553415254C3
:10081000323220436F6E66696775726174696F6EFC
:10082000204F4B0D0A000000000C01400048004022
:100830000D0A2055534152543320436F6E66696749
:1008400075726174696F6E204F4B0D0A00000000D5
:1008500000100140004C00400D0A205553415254F5
:100860003420436F6E66696775726174696F6E20BC
:100870004F4B0D0A00000000005000400D0A2055AB
:10088000534152543520436F6E66696775726174C7
:10089000696F6E204F4B0D0A00000000FFE72848EB
:1008A000007803280BD1E1B2264806F07EFA00BF9B
:1008B0002448008800F080000028F9D01EE020487D
:1008C000007804280BD1E1B21F4806F06EFA00BF91
:1008D0001D48008800F080000028F9D00EE018487C
:1008E000007805280AD1E1B2184806F05EFA00BF88
:1008F0001648008800F080000028F9D0204670BD1E
:100900001348007830384FF47A71484310494978D9
:10091000303901EBC10202EB011100EB81010C48FF
:100920008078303800EB800001EB40010848C07847
:1009300030380844074908600020074908707047AC
:100940001100002000480040004C004000500040D2
:100950006800002004000020000000204FF0E0218B
:10096000096921F004014FF0E0221161C21700EB88
:100970005272C2F3C7026A4B1A701946097801EB2A
:100980004102C2EBC1114FF6FF7202EAC101654A92
:10099000118070470146634A12884A434FF0E023B2
:1009A0005A6100229A6101221A6100BF4FF0E022D1
:1009B000106900F001021AB100F48032002AF5D06B
:1009C00000224FF0E0231A619A6170470146544AB1
:1009D00012784A434FF0E0235A6100229A610122C3
:1009E0001A6100BF4FF0E022106900F001021AB155
:1009F00000F48032002AF5D000224FF0E0231A6183
:100A00009A61704710B504460B2C39D2DFE804F028
:100A100038332E29241F1A15100B06004FF47A7054
:100A2000FFF7B8FF00BF4FF47A70FFF7B3FF00BFC6
:100A30004FF47A70FFF7AEFF00BF4FF47A70FFF704
:100A4000A9FF00BF4FF47A70FFF7A4FF00BF4FF477
:100A50007A70FFF79FFF00BF4FF47A70FFF79AFF9D
:100A600000BF4FF47A70FFF795FF00BF4FF47A7024
:100A7000FFF790FF00BF4FF47A70FFF78BFF00BFC6
:100A800000BF10BD10B505F0BDF84FF4803005F083
:100A9000D8F805F015F90446012C27D1002005F0FF
:100AA00054F9002005F063F9A00205F057F9E003BE
:100AB00005F077F9022004F079FC102004F08AFC9C
:100AC0004FF4E011200405F023F9012005F02CF982
:100AD00000BF392005F0D8F80028FAD0022005F030
:100AE00026F900BF05F02CF90828FBD101217C2054
:100AF00005F0F0F90121080205F0DFF910BD012031
:100B000080F3138800BF00BF0748006800F4E0606E
:100B100006490843001D0449086000BF70470000F3
:100B200012000020140000200CED00E00000FA0587
:100B30000CB50020019000904748006840F48030D8
:100B40004549086000BF4448006800F40030009048
:100B50000198401C0190009818B90198B0F5A06F59
:100B6000F1D13D48006800F4003010B10120009040
:100B700001E0002000900098012844D13748006827
:100B800040F01000354908600846006820F0030076
:100B900008600846006840F0020008602E4840687F
:100BA0002D4948600846406848600846406840F45F
:100BB000806048600846406820F47C104860084621
:100BC000406840F4E81048600846006840F08070D3
:100BD000086000BF2048006800F000700028F9D0CD
:100BE0001D48406820F003001B49486008464068E3
:100BF00040F00200486000BF1748406800F00C0059
:100C00000828F9D101E000BFFEE70CBD10B5FFF7E1
:100C10008FFF10BD10B51048006840F001000E496C
:100C20000860084640680E4908400B49486008467D
:100C300000680C490840084908600846006820F42C
:100C4000802008600846406820F4FE0048600020CC
:100C50008860FFF7DBFF10BD00100240002002405B
:100C60000000FFF8FFFFF6FE0648804706480047F1
:100C7000FEE7FEE7FEE7FEE7FEE7FEE7FEE7FEE74C
:100C8000FEE7FEE7150C0008310100081448007863
:100C900020F0080012490870704700B50020114983
:100CA00008701148007840F008000F490870FFF7FD
:100CB000EDFF00BD10B504460A48007884420ED00E
:100CC00001F072FE012C06D10548007840F00800C2
:100CD0000349087001E0FFF7D9FF0248047010BD16
:100CE0001C0000201F00002019000020F84B58763F
:100CF0009976DA76704710B53821F54806F0F5F8A0
:100D0000F4480069F2498860022201210020FFF7BF
:100D1000EDFF0120EE490871087F203103F0FAFB56
:100D200010B90A2002F060FC10BD2DE9F041064622
:100D30000C461546304606F033FB0746E548016889
:100D4000384606F067F9E249C860204606F028FBFD
:100D50000746E0484168384606F05CF9DC4908611E
:100D6000284606F01DFB0746DA488168384606F03B
:100D700051F9D7494861BDE8F0812DE9F04180463D
:100D8000D348C07848B1404606F087FB06464FF08E
:100D90006632D14B06F023FA02E0404606F07DFBB6
:100DA000044606F0BDFBBDE8F0812DE9F0410546A3
:100DB0000F4616461C462078305C10B90020BDE86E
:100DC000F0812078305C28702878412802DB287870
:100DD0005A2804DD0220BE4908700020EFE7207881
:100DE000401C20703A462146304601F0C3FA20B933
:100DF0000120B74908700020E1E70120DFE701B5D5
:100E0000A2B0B6484078062802D10C2023B000BD1D
:100E1000002021901D901C90B1481B9000201A903A
:100E20001990169017901890139014901590A84947
:100E300008701290CCE11F9806F02FFBCDE90A0153
:100E400007F046FECDE90C0106F0EFFA1E909DF882
:100E50008000472802D04D2878D14BE11E983528D4
:100E600034D01BDC11283CD009DC0B2852D2DFE83F
:100E700000F0313233342951515151512A00152893
:100E80003DD006DC12282DD013282CD0142841D1B7
:100E900034E01C2818D01E283CD116E050281DD064
:100EA00008DCA0F13600062834D2DFE800F02B2C55
:100EB0002D2E2F305A3805282CD2DFE800F01718D5
:100EC000081B1C0000BF00BF00BF00BF00BF012007
:100ED00012901FE000BF00BF00BF00BF02201290B1
:100EE00018E000BF00BF0320129013E000BF0420F1
:100EF00012900FE000BF062012900BE000BF072009
:100F0000129007E000BF00BF00BF00BF00BF092074
:100F1000129000BF00BF1E9835287DD01CDC112820
:100F200044D009DC0B2878D2DFE800F02A2E3236D4
:100F30003ADEDEDEDEDE3D0015284DD007DC12286D
:100F40003AD013283ED0142867D141E028E11C286C
:100F500046D01E28F8D144E0502873D008DCA0F118
:100F600036000628DFD2DFE800F071727374757600
:100F70005A380528D7D2DFE800F0777B7FA3A70097
:100F8000002053494870B3E0012151484170AFE05F
:100F900002204F494870ABE003214D484170A7E063
:100FA00001201990A4E002201990A1E00222012161
:100FB0000020FFF79BFE9BE0012200210220FFF7AB
:100FC00095FE95E0002202210120FFF78FFE8FE0C1
:100FD00001203F49C8708BE000203D49C87087E080
:100FE00000BF40481F9905F0E3FF099006F055FA4D
:100FF000CDE90A0107F06CFDCDE90C0106F015FA08
:101000001E901E98B0F58C7F0AD0A0F2191050B136
:1010100013280BD0142801E015E065E00CD108E09E
:10102000032019900CE00420199009E00520199084
:1010300006E00620199003E003202549087000BF50
:1010400000BF55E00CE001201A9051E000BF00BF46
:1010500000BF00BF00BF1E9836381D49087747E023
:1010600004201B49487043E00120194908713FE002
:101070000020174908713BE01A481F9905F098FFB6
:10108000099006F00AFACDE90A0107F021FDCDE941
:101090000C0106F0CAF91E901E98B0F5667F03D0C9
:1010A000A0F2993030B902E00720199006E008203C
:1010B000199003E003200649087000BF00BF17E045
:1010C00001200349887013E00020014988700FE077
:1010D000A4000020D407002066663940DC00002010
:1010E000000080BF000020410320FE49087000BFBF
:1010F00000BF55E01E98032813D005DC58B1012825
:101100000AD0022812D108E004280BD005280AD002
:101110001E280BD102E000BF00BF00BF05201290C7
:1011200004E000BF00BF0820129000BF00BF1E985F
:1011300004281FD007DC78B1012811D0022810D074
:10114000032827D112E0052818D008281AD009282A
:101150001CD01E281ED105E00120E24948711DE087
:101160001CE000BF0220DF49487117E00120DD4983
:10117000887113E0FF20DB4988710FE00020D94916
:1011800088710BE00120D749C87107E00020D549DC
:10119000C87103E00320D349087000BF00BF00BF3F
:1011A00000BF1298A0B10121129801FA00F01D9918
:1011B000084018B10520CB49087007E001211298BA
:1011C00001FA00F01D99084380B21D900020129092
:1011D00021AB1FA920A8229AFFF7E7FD00287FF482
:1011E0002AAEC048007810B1BE4800780EE6002054
:1011F000119010900F9021908CE09DF8800046385F
:1012000015286FD2DFE800F00E0B81242526300C64
:101210000D813E8141464F818181656F780000BF1D
:1012200000BF76E000211F9806F096F902D806204C
:10123000AC490870AB48807820B11F98FFF79DFD3E
:101240001B9004E01F98FFF798FDA649886060E0B6
:1012500000BF00BF1F98FFF790FD9DF8801049392F
:1012600013AA42F8210054E01F9806F016F9CDE9C0
:101270000A0107F02DFCCDE90C0106F0F5F8C0B22B
:101280000F9046E01F98119043E01F98FFF775FDFF
:1012900010903EE000211F9806F05EF902D2062071
:1012A0009049087035E000211F9806F055F902D2E8
:1012B00006208C4908701F9806F0EFF8CDE90A0166
:1012C00007F006FCCDE90C0106F0CEF8854908765A
:1012D0001FE01F98FFF751FD16901C9840F0010089
:1012E0001C9016E011E01F98FFF747FD17901C981F
:1012F00040F002001C900CE01F98FFF73EFD189094
:101300001C9840F004001C9003E00320754908700D
:1013100000BF00BF21AB1FA920A8229AFFF745FDFF
:1013200000287FF46AAF6F48007810B16D480078EC
:101330006CE56D48407807280AD06A4890F90600A5
:101340000E9003F0A5FA6748C0790E90FFF7B2FC43
:101350001D9800F4007070B16248007F0CA90B90DA
:1013600003F0D8F808B90A2050E55E480CA90EC968
:1013700020300EC000BF1998092816D2DFE800F00F
:1013800015051690FD91FCFBFA000021119806F05E
:10139000E3F803D206205349087006E0524840782B
:1013A000072802D0119800F001FF5AE1119806F0C9
:1013B00074F8CDE9080107F08BFBCDE90A0106F0CE
:1013C00034F81E900F98022802D00F98142805D1E7
:1013D0001E98002802DB1E98062803DD03204149E1
:1013E00008705AE01C9830B90F98022803D10620E3
:1013F0003C49087051E01E98002803DD1E98401EED
:101400001E9002E03748007F1E901E98C0B209A9C6
:10141000079003F07FF808B90A20F7E4002008904D
:1014200027E00121089801FA00F01C990840E0B17A
:101430000F98142812D116A9089851F82000079087
:1014400028480C30089950F821000690079905F0BB
:10145000A9FD09AA089942F8210006E016A90898F2
:1014600051F8201009AA42F820100898401CC0B278
:10147000089008980328D4DB1E98C0B209A90790E9
:1014800002F0DDFF1748017F1E98814204D1154804
:1014900009A90EC920300EC000BF00201C90E0E05A
:1014A00000BF1C98F0B300200B904CE001210B987A
:1014B00001FA00F01C990840A8B30A48007908B363
:1014C00008482C300B9950F821000990054820302D
:1014D00050F821000890099905F012FD16A90A900C
:1014E0000B9803E0A4000020DC00002051F820004D
:1014F000014609900A9805F003FD16AA0B9942F8D7
:1015000021001CE0FA480B9950F8210016A90A9016
:101510000B9851F8200009900A9905F0F1FC16AAE1
:101520000B9901E022E002E042F8210007E0F048D8
:101530000B9950F8211016AA0B9842F820100B981E
:10154000401CC0B20B900B980328AFDB002000902A
:10155000E84840690A9018980990179808901698DA
:10156000079008A90EC900F041FC00BF1998052892
:101570000BD103E06EE035E027E025E00CA9072061
:1015800002F0C8FF40B90A2040E40CA9062002F08E
:10159000C1FF08B90A2039E400200090D54840690D
:1015A0000B900E980A900D9809900C98089009A934
:1015B0000EC900F01BFCCE480C380CA90EC90C302B
:1015C0000EC000201C904CE000BF1998062804D1E2
:1015D000C749072002F033FF03E0C549062002F0A7
:1015E0002EFF3EE01C9820B90620C1490C39087036
:1015F0002DE000200B9026E001210B9801FA00F06D
:101600001C990840D8B1BA4814300B9950F8210001
:101610000990B74850F821000890099905F0C2FCDC
:1016200016A90A900B9851F82000014609900A98D3
:1016300005F0B8FCAE4920310B9A41F822000B9816
:10164000401CC0B20B900B980228D5DD00BF0020D3
:101650001C9006E0A6480C380021C162016341637A
:1016600000BF00BF1D9800F0040010B91C980028AE
:1016700068D09F480C38807868B100211B9805F02D
:101680006BFF08D29A480C384078042803D0062013
:1016900097490C3908701A9860B195480C38407811
:1016A00040B193480C384078012803D00620904977
:1016B0000C3908708E480C38007818B18C480C38FA
:1016C000007893E500200E9049E001210E9801FA80
:1016D00000F01C990840A0B31A98F8B984480C3857
:1016E0000079E0B1824820300E9950F821000C902A
:1016F0007F48143050F821000B900C9905F000FC45
:1017000016A90D900E9851F8200001460C900D98E6
:1017100005F0F6FB16AA0E9942F821001BE074486A
:101720000E9950F8210016A90D900E9851F820003E
:101730000C900D9905F0E4FB16AA0E9942F82100D1
:1017400009E000E09BE16A480E9950F8211016AAC2
:101750000E9842F820100E98401CC0B20E900E98C1
:101760000228B2DD62480C38407805280AD2DFE84A
:1017700000F00A21414203001C9818B106215C4880
:101780000C3801706EE11C9820B9062058490C39BC
:1017900008700EE000200090564840690D9018989F
:1017A0000C9017980B9016980A900BA90EC900F090
:1017B0001DFB57E11C9820B906204D490C390870D3
:1017C00017E04B480C388078009049480C388078F6
:1017D00008B11B9802E046480C3880680D901898B4
:1017E0000C9017980B9016980A900BA90EC900F050
:1017F000FDFA37E100BF3E480C38C07E0121814030
:101800001C9888431C90D0B10021109805F0A4FECC
:101810001AD137480C38407E13A951F82000002116
:101820000D9005F099FE0FD131480C38807E13A938
:1018300051F8200000210D9005F08EFE04D1062005
:101840002B490C3908700CE10021109805F084FE3A
:101850007ED027480C38417E0C3050F8210009908A
:1018600023480C38407E16A951F8200008900999A9
:1018700005F098FB0C901E480C38817E0C3050F817
:10188000210009901A480C38817E16A850F82100D2
:101890000890099905F086FB0B9000201390149096
:1018A00015900B99084605F083FB09900C990846A2
:1018B00005F07EFB07904FF08140109905F078FB12
:1018C0000590109905F074FB0690079905F06AFBE6
:1018D0000890099905F066FB0A9000210A9805F026
:1018E0003BFE09D2042102480C38017000787DE4E7
:1018F000B0000020D40700200B9805F0CEFDCDE904
:1019000002010C9805F0C9FDCDE90001DDE90223D3
:1019100006F074FECDE906010A9805F0BEFDCDE99A
:10192000020107F0AFF881F00041CDE90401DDE9E3
:10193000062305F0C6FCCDE9080105F0F1FD0A908B
:1019400059484078032805D10A9880F0004000E00B
:1019500042E00A900021109805F0FEFD07D20A9897
:1019600080F000400A90109880F000401090DDE96F
:101970000A1005F01DFB04900C9905F016FB05906C
:1019800005F08BFD0022494BCDE9060105F027FC4F
:10199000CDE9080105F0C4FD4349497E13AA42F888
:1019A00021000A990C9805F003FB04900B9905F0AF
:1019B000A7FA059005F071FD00223C4BCDE9060128
:1019C00005F00DFCCDE9080105F0AAFD3649897E38
:1019D00013AA42F821001CE03348807E13A951F875
:1019E0002000059005F059FDCDE908012E48407E04
:1019F00013A951F82000059005F04FFDCDE906012F
:101A0000DDE9082306F0FAFDCDE90A0105F088FDBD
:101A1000109000200D9024484078022801D1012028
:101A20000D90214A9278204B9B7810990D980BB11C
:101A30001B9B01E01C4B9B68CDE90232CDE90410F1
:101A40001948C07E1849897ECDE900101648407EAD
:101A5000034613AA16A90C9013480C3000F0F4F9B1
:101A600000BF00BF00BF1048007810B10E480078DA
:101A70005EE40D4816A90EC90C300EC000BF0A481E
:101A8000407970B100F090FF0020094908740648C1
:101A90004079022802D100F043FC02E00020024914
:101AA00048710148007843E4A40000200000E03FB2
:101AB000DC000020C348007820F00E00C149087007
:101AC000C148007840F00E00BF49087070472DE90A
:101AD000FF4F93B0044600200F9010901190129089
:101AE00004F0010060B10F98401CC0B20F90B749DC
:101AF000086805F0D2FCCDE9060106F0C7FE10909B
:101B000004F0020060B10F98401CC0B20F90AF49C2
:101B1000486805F0C2FCCDE9060106F0B7FE119059
:101B200004F0040060B10F98401CC0B20F90A749A8
:101B3000886805F0B2FCCDE9060106F0A7FE129018
:101B4000DDE91101884201D9119800E0129810993D
:101B5000884201D2109806E0DDE91101884201D9DE
:101B6000119800E0129882460F9805F038FCCDE9F4
:101B7000000106F087FFCDE90401504605F02FFC77
:101B8000CDE90201DDE9042305F09BFBCDE9060167
:101B900005F0C6FC0E908D48016A0E9805F008FA13
:101BA0008B49029005F036FA039005F076FCCDE9FA
:101BB000040106F0F9FBCDE9060105F055FC0D9096
:101BC0000F9805F00CFCCDE9000106F05BFFCDE9B4
:101BD0000401169805F061FCCDE90201DDE904235A
:101BE00005F0FDFACDE9060105F09AFC169016996C
:101BF0000E9805F0DDF901460490764805F00AFAE2
:101C0000059005F04AFCCDE9060106F03FFE0546C9
:101C1000714EAE4200D92E466C4890F818B090F83C
:101C2000290000F0E00080EA0B0B149808B98BF053
:101C3000E00B4FEA5A004742B846B9466348407B3A
:101C4000301A0C9000200B9042F210700A9000BFE6
:101C5000CDF824B0614800780890159818B108981C
:101C600080F00E00089004F0010080B11098074445
:101C7000002F0CDD089800F0020020B1099880F0D8
:101C80000400099001E024F00104A7EB0A0704F026
:101C9000020088B111988044B8F1000F0CDD08985B
:101CA00000F0040020B1099880F00800099001E0DC
:101CB00024F00204A8EB0A0804F0040088B112988A
:101CC0008144B9F1000F0CDD089800F0080020B144
:101CD000099880F01000099001E024F00404A9EBB9
:101CE0000A0924B13E48807800F0100010B117B006
:101CF000BDE8F08F3B48007820F01C00099901F006
:101D00001C010843374908703049487BFEF75EFEE6
:101D1000344880F800B00C98FEF758FEAE4297D9D0
:101D20000A9830440A9044F620610A9888428FD974
:101D30000A98401A0A900D990B9808440B902A496A
:101D40000B98B1FBF0F6AE4200D22E461F48407B06
:101D5000301A0C907CE710B502F050FE1B480022B0
:101D60000121036B0420FFF7B2FE18480022012175
:101D7000036B0320FFF7ABFE1449888EFEF70AFEC3
:101D8000022417E0114801220021C36A0720FFF74F
:101D90009EFE0E49888EFEF7FDFD002C0ADD0B48E5
:101DA00000220121C36A0720FFF791FE0749888EB0
:101DB000FEF7F0FD2000A4F101014CB2E2D102F0E7
:101DC00048FE10BD170000201B000020D407002093
:101DD00000803B45C0E1644CF82401001E00002057
:101DE000DC0000201D000020008793032DE9F8434C
:101DF00004460D4616461F46DDF82080FE48407812
:101E0000072801D1BDE8F88300BF01F0E8F9FA48DE
:101E1000007800B1F6E700F0BDFD0028F5D13B46A3
:101E2000324629462046CDF8008000F0CFFDF2482A
:101E3000407810B90220F0494870EF48007C08B1A2
:101E400003F017F900BFDDE72DE9F04F9FB08146A1
:101E50000E4614461D46DDE9287854F8251059F839
:101E6000250005F04DF81D9054F8271059F827006B
:101E700005F046F81C9059F8281056F8280005F08F
:101E800091F81B9054F8250080F000401A9054F807
:101E9000270080F00040199056F825001D9905F0A4
:101EA00081F8189056F827001C9905F07BF81790D8
:101EB0001799199805F07CF8029018991A9805F06E
:101EC00077F80190029905F01BF8039005F0E5FA08
:101ED000CDE90601DDE9181005F06AF802901799BE
:101EE0001A9805F065F80190029905F05BF80390E7
:101EF00005F0D3FACDE90401DDE9062306F094F9F3
:101F0000CDE9080105F00CFB16902D9898B1002141
:101F1000169805F02BFB21D8169805F0BEFAB74AA3
:101F2000B74BCDE9060105F054F9CDE9080105F0FC
:101F3000F7FA169012E00021169805F00DFB0DD867
:101F4000169805F0AAFAAD4AAD4BCDE9060105F0A9
:101F50009FF8CDE9080105F0E3FA16901B9805F00B
:101F60009CFA21F00041CDE906012C99169805F064
:101F70001FF8039005F091FACDE90401DDE906238D
:101F800006F03CFBCDE9080105F0CAFA159015985A
:101F900005F083FA00221346CDE9080105F090FA16
:101FA00002D11FB0BDE8F08F9648C169159805F0C1
:101FB00031F8059005F071FACDE9060106F0B0FAA6
:101FC000CDE9080105F050FA80B214902B9838B191
:101FD000149805F0EEF909902A9904F0E9FF2A9087
:101FE000149805F0E6F901460990169805F012F8E4
:101FF0008246149805F0DDF9014609901B9805F01A
:1020000009F81390504605F048FACDE9040150460E
:1020100005F043FA00227C4BCDE9000105F0DFF822
:10202000CDE90201DDE9042305F0D9F80022774B60
:10203000CDE9060105F0D0F8CDE9080105F070FA08
:102040001290CDF844A000200A9059F828000EA95B
:1020500041F828004FF0010B9BE06A4890F83E10D1
:102060000A98814222DD1299199804F0A1FF099083
:1020700011991A9804F09CFF0890099904F040FF08
:102080000B901199199804F093FF099012991A98DE
:1020900004F08EFF0890099904F084FF1A900B98C1
:1020A00019900A98401C40B20A904DE0584605F03D
:1020B00080F95146049004F07BFF059005F0EDF99E
:1020C000CDE9060106F0DEF9CDE9080105F028FAB0
:1020D0000C90584605F06DF95146049004F068FFE5
:1020E000059005F0DAF9CDE9060106F07BFCCDE9B3
:1020F000080105F015FA0D9054F827000D9904F029
:1021000057FF099054F8250080F0004007900C9983
:1021100004F04EFF0890099904F0F2FE1A9054F86A
:1021200027000C9904F044FF099054F8250080F032
:10213000004007900D9904F03BFF0890099904F0C6
:1021400031FF199000200A901A991D9804F0D8FECA
:102150000EA941F8250019991C9804F0D1FE0EA98A
:1021600041F8270051F82800139904F0C9FE0EA980
:1021700041F828002B9800902A9B0EA807C8FFF76B
:1021800035FE1D48007800B10BE70BF101001FFA86
:1021900080FB14988345FFF660AF2B98009096E87B
:1021A00007002A9BFFF722FE00BFFAE62DE9FC5F3D
:1021B00081461749484604F0FBFE824605F06DF95A
:1021C000074606F0ADF9054605F04EF984B200F079
:1021D000EBFB322104FB01F005F0E2F80D49019020
:1021E000484604F0E5FE0090019904F0DBFE8346CA
:1021F00005F053F907460FE0DC000020182D445489
:10220000FB211940D40700200000E03F0000F03F10
:102210000000A04100007A4406F082F9054605F06E
:1022200023F91FFA80FA5046FEF7B4FB09E000F0EC
:10223000D6FF4E48007808B1BDE8FC9F3220FEF77B
:10224000A9FB201EA4F101018CB2F0DC00BFF3E772
:102250002DE9F84F052045494870FFF77CFD00F057
:10226000BEFF4248007808B1BDE8F88F3F48002122
:1022700041608160C16000F01CF900203B4948705A
:102280000024264625463A4890F8290000F0200010
:1022900008B1012401E04FF0FF34354890F82900DF
:1022A00000F0400008B1012501E04FF0FF35304853
:1022B00090F8290000F0800008B1012601E04FF0FD
:1022C000FF36304605F06CF882462948816B50464F
:1022D00004F06EFE0746284605F062F88246244860
:1022E000816B504604F064FE8046204605F058F8A5
:1022F00082461F48816B504604F05AFE81460020FA
:1023000000901B483A464146036B4846FFF76EFD76
:1023100002F0AFFE00F048FB00F0CBF800BFA3E7EF
:1023200010B51248807800F01000F0B90F4880789E
:1023300040F010000D49887002F088FAFEF7A6FC04
:102340000A484078032804D0042803D005280BD17C
:1023500001E000BF00BF0548807840F0200003493D
:10236000887002F076FB00BF00BF10BDDC000020CB
:10237000D40700202DE9F74F86B082468B469BF8A4
:10238000000000EB0A0414F8016B002005902D2ECC
:1023900004D10120059014F8016B03E02B2E01D12C
:1023A00014F8016B0020049000250027804625E0EA
:1023B000A6F13000C6B2092E15DC781CC7B2202F5A
:1023C0000BDCB8F1000F01D0681E45B2049800EB99
:1023D000800006EB400004900EE0B8F1000F0BD136
:1023E000681C45B208E0FE2E05D1B8F1000F02D1FD
:1023F0004FF0010800E002E014F8016BD8E700BFDD
:102400001FB9002009B0BDE8F08F049804F0D1FF97
:1024100081460021484605F09FF839D00FE0484634
:1024200005F03BF82A4A2B4BCDE9000104F0D7FE1A
:10243000CDE9020105F074F88146A81C45B215F1FA
:10244000020FECDD002D0EDA484605F026F8224A90
:10245000224BCDE9000104F0C2FECDE9020105F0F6
:102460005FF8814614E0002D12DD00BF484605F0FC
:1024700014F800221A4BCDE9000104F0B0FECDE9BA
:10248000020105F04DF88146681E40B2051EEDDCE4
:10249000059820B189F000410898016002E0089891
:1024A000C0F80090A4EB0A00401E8BF80000012049
:1024B000A8E710B50B4BDA689968586800F048FD3A
:1024C000084BDA6899685868FEF72FFC10BD0000C9
:1024D0007B14AE47E17A843F9A9999999999B93FCB
:1024E00000002440DC000020411CC8B2122800D1AA
:1024F0000020704700B91220411EC8B270472DE974
:10250000F04704460D46164631464FF0804004F031
:102510004FFD80462146204604F04AFD814629466B
:10252000284604F045FD8246494604F03BFD074637
:10253000414604F06FFDBDE8F0872DE9FE4F0446EB
:102540000D4616461F4631464FF0814004F030FDDF
:1025500029460290284604F02BFD8346214620465A
:1025600004F026FD314601904FF0804004F020FD3C
:102570003946009004F01CFD8246019904F012FDDA
:102580008146594604F0BCFC8046029904F042FDA5
:10259000BDE8FE8F2DE9FE4F82460C4691464FF076
:1025A0008041504604F004FD4946009004F000FDCF
:1025B00021460290204604F0FBFC0190029904F0B1
:1025C000F1FC834604F069FF074606F05BFA054616
:1025D00004F0A6FFBDE8FE8F2DE9F04180460C46D1
:1025E00015460CB9BDE8F08165B3D4E9060104F0E5
:1025F000B3FF27D094F82500F8B9A969E06904F081
:10260000B5FF1AD2FE48006A80F00047226A3846B9
:10261000A969FFF7BFFF0646E16904F0A7FF01D2F1
:10262000E06908E0F648006A80F00046226A304619
:10263000A969FFF7AFFFA06101E0E069A061012097
:1026400084F8240000BFCDE73EB5EE4804780020B2
:102650000090019002900FE02046FFF74BFF0446E8
:102660000198029000980190E74800EB84100090D8
:102670009DE80700FFF7B0FFE44800788442EBD103
:102680003EBD2DE9F04704460D4691460CB9BDE824
:10269000F08794F8250040BBA969A06904F05CFFAD
:1026A00023D2D748006A80F000484046226AA169D8
:1026B000FFF770FF0746A96904F058FF01D2A86927
:1026C00008E0CF48006A80F000473846226AA169D6
:1026D000FFF760FF06463146A86904F03DFF03D0CE
:1026E000AE61012085F8240000BF00BFCFE73EB5F2
:1026F000C648047800200090019002900FE00198F5
:10270000009002980190C04800EB841002909DE870
:102710000700FFF7B6FF2046FFF7E6FE0446B9487C
:1027200000788442EBD10022DDE90101FFF7A9FF27
:102730003EBD2DE9F74F88B004461646E06B04F025
:1027400038FE0390099904F033FC834604F0A5FE9B
:10275000CDE9040105F028FE074604F085FEA062DD
:10276000E06B04F026FE3146039004F021FC834622
:1027700004F093FE074605F017FECDE9040104F0CE
:1027800073FEE0623222216B01FB02F004F016FEC0
:10279000074600229E4B04F022FDCDE9040104F01F
:1027A00044FE8146484604F0FBFD0390E06B04F0D4
:1027B00000FE0290A06A04F0FCFD0190DDE9021227
:1027C000FFF79DFE834604F068FECDE9040105F0A5
:1027D000EBFD074604F029FE0546C9F1000004F0B0
:1027E000DFFD0390E06A04F0E4FD0290E06B04F08A
:1027F000E0FD0190DDE90212FFF781FE834604F05F
:102800004CFECDE9040105F08BFE074604F00DFEF9
:1028100006902069411B0698A1EB000ABAF1000F4F
:102820002DDA206904F0BCFD0390484604F0B8FDA1
:102830000290E06A04F0BDFD0190A06A04F0B9FDC9
:10284000009001A90EC9FFF778FE834604F025FE2B
:10285000CDE9040105F0A8FD074604F0E6FD0546B4
:10286000002D01DD284600E0002005462069A84231
:1028700001DD284600E0206905464FF0000A656347
:1028800005EB0A00A0630BB0BDE8F08F2DE9F84F0F
:102890005E4890F800A04FF0000921E04C465A48ED
:1028A00000EB8A19C4B194F8240010B999F82400F7
:1028B00090B16169D9F8180004F0ACFB0546D4E981
:1028C000051004F0A7FB06462A4631462046FFF7CE
:1028D00030FF002084F824005046FFF705FE8246B2
:1028E000484800788245D9D1D9F8140004F0D5FDC4
:1028F00007463A460B460020014604F0E2FC054636
:1029000004F00EFE8346D9E9051004F083FB5A4615
:10291000014600904846FFF70CFF002089F824008C
:10292000BDE8F88F10B5FFF78FFEFFF7E0FEFFF769
:10293000ADFF10BD10B533480078344908703148F8
:102940000078FFF7D1FD3349087010BD10B5FFF7CF
:10295000F1FF1C21304804F0C8FA10BD10B5294819
:1029600000782A490978884205D028480078FFF77E
:10297000BBFD2649087010BD22480078234909781C
:10298000884201D1002070471F482049097800EB98
:102990008110F8E71D4800781E490978884201D166
:1029A000012070470020FCE710B505E000F017FC9F
:1029B0001A48007800B110BDFFF7DEFF0028F5D1FE
:1029C000164840780328F1D000BFF4E70FB5A1B056
:1029D0000D480C49097800EB81101F9008480068E9
:1029E00001460E90219804F0E3FA0F9004F055FD93
:1029F000CDE9100105F04AFF1C90014840680FE046
:102A0000D407002020000020F0000020210000203A
:102A100000004E402200002070050020DC00002055
:102A200001460E90229804F0C3FA0F9004F035FD91
:102A3000CDE9100105F02AFF1D90FE48806801468F
:102A40000E90239804F0B4FA0F9004F026FDCDE91F
:102A5000100105F01BFF1E9000211F980170F64920
:102A60001C980968884205DA1F98007840F0200118
:102A70001F980170F0491D984968884205DA1F982F
:102A8000007840F040011F980170EB491E9889685A
:102A9000884205DA1F98007840F080011F98017085
:102AA000E5491C980968401A1190002801DB11982B
:102AB00001E0119840421F994860DF491D9849681C
:102AC000401A1190002801DB119801E01198404252
:102AD0001F998860D8491E988968401A119000286B
:102AE00001DB119801E0119840421F99C8601F98BE
:102AF000D0E90210814202D91F98806801E01F9836
:102B0000C0681F994968884202D21F98406809E04E
:102B10001F98D0E90210814202D91F98806801E015
:102B20001F98C0681F9908611F98006908B925B0EF
:102B300000BDC1491C980968401A109004F030FC8F
:102B40001190BC48006801461090119804F062FA98
:102B50001990B9491D984968401A109004F020FC5A
:102B60001190B448406801461090119804F052FA50
:102B70001A90B1491E988968401A109004F010FC10
:102B80001190AC48806801461090119804F042FA08
:102B90001B901B980A900146099004F009FA0C90CA
:102BA0001A9808900146079004F002FA0A901998C2
:102BB00008900146079004F0FBF909900A9904F087
:102BC0009FF90B900C9904F09BF90D9004F065FCB3
:102BD000CDE90E0105F056FFCDE9100104F0A0FC8F
:102BE0001F9908621F98006A0D9004F056FC024677
:102BF0000B46CDE90E010020904904F062FBCDE9BF
:102C0000100104F08DFC1890269828B91899249882
:102C100004F0CEF917900FE0249804F03EFC024631
:102C20000B46CDE90E010020844904F04AFBCDE9B2
:102C3000100104F075FC17901F98006A1190179905
:102C400004F0B6F901461F9841611F9800690B9086
:102C500004F0A6FB0C90179904F0AAF90D9004F06B
:102C60001CFCCDE90E0105F09FFBCDE9100104F03D
:102C7000FBFB1F99C8631F980069099004F090FB43
:102C80000A90189904F094F90B906A48006A01467A
:102C90000A900B9804F08CF969490C9004F0BAF989
:102CA0000D9004F0FAFBCDE90E0105F07DFBCDE9B6
:102CB000100104F0BAFB1F99086319981190189934
:102CC00004F076F914901A981190189904F070F99C
:102CD00015901B981190189904F06AF9169000202D
:102CE0001390584800785849097888427ED0524855
:102CF00080690F9004F0D1FB00221346CDE910014A
:102D000004F0F6FB72D216980E904B4840690D9075
:102D10000E9904F04DF9109015980C9046480069F2
:102D20000B900C9904F044F90E904348C06880F071
:102D300000400C90149801460B900C9804F038F960
:102D40000D900E9904F02EF90F90109904F02AF9C5
:102D50001190119804F0A1FB4FF066323B4BCDE986
:102D60000E0104F0ADFB77D21F98406910903248F5
:102D700080690F90109904F0EFFB02D22E48806911
:102D800001E01F9840691390119804F086FB4FF002
:102D900066322F4BCDE90E0104F0AAFBE3D2119865
:102DA00004F07BFB0022254BCDE9080104F014FA66
:102DB0000022284BCDE90A0104F011FACDE90C01FB
:102DC00005F060FECDE90E0104F0AAFB109010980A
:102DD00004F063FB0022194BCDE9020104F0FCF979
:102DE000CDE906011348406A019000E066E0114811
:102DF000006A0090019904F0DBF80290109904F049
:102E0000D7F8039004F049FBCDE90401DDE906237E
:102E100004F057FACDE9080105F034FECDE90C01C4
:102E2000139804F03AFBCDE90A01DDE90C2304F024
:102E300047FB12E0D4070020700500200000F03F9F
:102E400000803B4520000020210000206666EE3F08
:102E50006666EEBF0000E03F2FE003D2139804F057
:102E60001CFB24E0109804F018FB00224D4BCDE928
:102E7000060104F0B1F9CDE90A014B48406A05901A
:102E80004948006A0490059904F092F80690109958
:102E900004F08EF8079004F000FBCDE90801DDE9AD
:102EA0000A2304F00EFACDE90C0105F0EBFDCDE9A3
:102EB0000E0104F035FB139000BF00BF1F9913985B
:102EC000C8613948006A80F0004011901F98006A7C
:102ED0000246002110901198FFF75CFB1290DDE98B
:102EE000121004F039FB01D2139900E012991F98D7
:102EF00081611F9840691190129904F02DFB04D84C
:102F000001211F9880F8251003E000211F9880F808
:102F1000251001211F9880F82410244814A90EC9F7
:102F20000C300EC01F984069204988612048007805
:102F30002049087008460078FFF7D6FA1C49087047
:102F40001A481CA90EC90EC0FFF7ECFC00BFEEE545
:102F5000164B186059609A6070472DE9F04105469C
:102F600015481649097800EB8114206904F018FA15
:102F70000746284604F014FA8046216A04F018F83F
:102F80000646394604F046F8206225610020A0611B
:102F9000E06184F82500012084F82400FFF7C2FCDA
:102FA000BDE8F0810000F03FD4070020700500204C
:102FB0002200002020000020F0000020210000203E
:102FC00010B5044603E014F8010B01F092F92078E3
:102FD0000028F8D110BD70477CB50546002406E0F6
:102FE00005F001000DF804006D10601CC4B2082C3F
:102FF000F6DB08E0611E1DF801103031C8B201F0A7
:1030000078F9601EC4B2002CF4DC7CBD3EB50446E9
:1030100000251CB9302001F06CF93EBD0DE00A20FE
:10302000B4FBF0F100FB1140303029466A1CD5B2E8
:103030000DF801000A20B4FBF0F4002CEFD106E0FB
:10304000691E1DF8010001F054F9681EC5B2002D7B
:10305000F6DC00BFE1E710B50446002C03DA2D20B2
:1030600001F047F964422046FFF7D0FF10BD2DE97B
:10307000FE4F83460021584604F06EFA04D22D20FC
:1030800001F037F98BF0004B364890F83DA008E08E
:103090003549584603F08CFF8346AAF1020000F040
:1030A000FF0ABAF1020FF3DABAF1000F04D02F4988
:1030B000584603F07DFF8346584604F0EEF9074674
:1030C00000222B4B03F0E4FF054604F029FA834667
:1030D0000024584604F090F981462E20214991F8A9
:1030E0003D100DF8010014E01E4890F83D00A0428C
:1030F00001D1601CC4B20A20B9FBF0F100FB1190B1
:1031000030302146621CD4B20DF801000A20B9FB10
:10311000F0F9B9F1000FE7D105E030222046611C3B
:10312000CCB20DF800200F4890F83D00A042F4DC2E
:103130000C4890F83D00A04207D1601CC4B2302278
:103140002046611CCCB20DF8002006E0611E1DF87F
:10315000010001F0CEF8601EC4B2002CF6DCBDE820
:10316000FE8F0000D40700200000C842000020416C
:103170000000E03F0020F7490870F74908707047E9
:1031800010B5FFF7F7FF00F0BEFAF448007820F022
:103190000700F2490870F248007840F00700F04953
:1031A000087010BD70B5002416E0EE49204601F00D
:1031B00098F918B90A2000F017FA0BE0E9480078EE
:1031C00040B1E848FFF7FCFEE648FDF718FE05466B
:1031D00000F00AFA601CC4B2022CE6DB70BD10B528
:1031E000E1488078002866D0DF48847804F06000E9
:1031F00020B30620DC49487004F04000A0B14FF035
:10320000FF3000F03FFA012000F058FAD6488078ED
:1032100020F01000D449887000BFD348807800F0B7
:1032200010000028F9D003E06FF0010000F02AFA46
:10323000CD48807820F06000CB49887004F0100001
:1032400018B10120C849087010BD04F0010038B160
:1032500000F0ACFEC448807820F00100C2498870BC
:1032600004F0080038B101F00FFFBF48807820F06B
:103270000800BD49887004F0040038B101F00EFF69
:10328000B948807820F00400B749887004F0020043
:1032900080B101F0EEFEB54890F8280000F0020081
:1032A00010B10120B0490874AF48807820F00200C6
:1032B000AD49887000BF00BFC6E72DE9FE43044654
:1032C0002078242873D1012002904FF000099DF846
:1032D0000800205C47282BD007DC68B123281BD0CE
:1032E00024280CD0432878D12EE0482860D04E28DE
:1032F0007AD05828F7D146E000F00AFAEEE09DF8BF
:103300000800401CC0B20290205C10B10320BDE850
:10331000FE8300F002FAE1E09DF80800401CC0B214
:103320000290205C08B10320F1E700F0C4FCD5E076
:103330009DF80800401CC0B20290205C08B1032038
:10334000E5E700F056FDC9E09DF80800401CC0B25A
:103350000290205C08B10320D9E783484078072811
:1033600005D1FEF7DDFF052000F0A8F90AE07E4850
:10337000407808B10B20CAE707207B494870042039
:1033800000F09CF9AAE09DF80800401CC0B2029031
:10339000205C08B10320BAE773484078062805D1BD
:1033A000032000F08BF900206F49487096E098E008
:1033B0006E4890F8280000F0100090B16A484078FC
:1033C00018B169484078062809D1FEF741FF6648E0
:1033D000007840B9FFF7E6FE05E027E004E00B20A7
:1033E00095E7072093E779E09DF80800401CC0B2FC
:1033F0000290205CB8B94FF0000910E02146484621
:1034000001F06FF818B90A2000F0EEF803E0214649
:10341000484600F0B6FD09F1010000F0FF09B9F1DE
:10342000020FEBDB5AE04FF0010900BF01AA02A92D
:103430002046FEF79FFF08B9012068E79DF80810B5
:10344000481CC0B20290605C3D2801D003205EE7BA
:10345000B9F1000F2BD09DF8089000BF9DF808002F
:10346000205C9DF80810A1EB090160549DF808103C
:10347000481CC0B20290605C0028EFD12046FDF7E6
:10348000BEFC8146B9F1000F01D048463FE70198E4
:1034900004F003F8074605F01BFB054603F0E4FFC4
:1034A00000F0FF092146484600F0BAFF15E06A46E1
:1034B00002A92046FEF75EFF08B9012027E79DF824
:1034C0000800205C08B1032021E7019803F094FF75
:1034D0000546009901F05AF819E700BF00BF002027
:1034E00015E72046FDF78BFC11E770B56EE00A2C5E
:1034F00001D00D2C25D1FFF772FE1B48007800B1DA
:1035000070BD14480078002815DD00201549114AC7
:10351000127888540846FFF7D0FE054600F064F89C
:1035200013480078012809D1072001F02DFA0A205C
:103530000F49087002E0002000F056F8FFF71AFE6D
:1035400044E005480078A8B1292C3FD10020024969
:1035500008703BE023000020240000201900002018
:103560001C0000208C050020DC000020D407002077
:1035700010000020202C29DD2F2C27D0282C03D14F
:1035800001201649087021E015480078452805DB20
:103590000D2000F029F8FFF7EDFD17E0612C0DDBA1
:1035A0007A2C0BDCA4F12000C1B20D48027800781F
:1035B000401C0B4B18700B48815407E008480178F9
:1035C0000078401C064A10700648445400F0FBFE88
:1035D0000446FF288BD100BF92E7000024000020A2
:1035E000230000208C05002010B504461CB99FA0C4
:1035F00004F09EF945E09FA004F09AF90E2C3CD20D
:10360000DFE804F03B070B0F13171B1F23272B2F9B
:1036100033379AA004F08CF92FE09DA004F088F9CC
:103620002BE0A1A004F084F927E0A5A004F080F924
:1036300023E0A7A004F07CF91FE0ABA004F078F928
:103640001BE0AEA004F074F917E0B1A004F070F92B
:1036500013E0B2A004F06CF90FE0B4A004F068F934
:103660000BE0BBA004F064F907E0BDA004F060F932
:1036700003E0BEA004F05CF900BF00BFBFA004F0EF
:1036800057F910BD10B50446BDA004F051F914F16E
:10369000020F06D0B4F1FF3F07D1BBA004F048F9F8
:1036A00003E0BCA004F044F900BF00BFBEA004F0DA
:1036B0003FF94FF4FA70FDF76DF910BD10B50446EF
:1036C000BCA004F035F9062C18D2DFE804F017038B
:1036D000070B0F13B8A004F02BF90FE0BBA004F008
:1036E00027F90BE0BEA004F023F907E0C1A004F025
:1036F0001FF903E0C1A004F01BF900BF00BFC2A086
:1037000004F016F910BD10B5C0A004F011F910BDF9
:1037100010B5C64804F00CF910BD10B5C4A004F0F3
:1037200007F9C4490868FFF7A2FCC3A004F000F938
:10373000C0494868FFF79BFCC4A004F0F9F8BD49F4
:103740008868FFF794FCC6A004F0F2F8B949487BFA
:10375000FFF781FCC7A004F0EBF8B6490869FFF752
:1037600086FCCBA004F0E4F8B2494869FFF77FFC7F
:10377000CFA004F0DDF8AF49087EFFF76CFCD4A0C1
:1037800004F0D6F8AB49087EFFF726FCD8A004F079
:10379000CFF8A84991F83C00FFF75DFCD6A004F0F3
:1037A000C7F8A449086ADC4903F034FC0446FFF773
:1037B0005EFCDAA004F0BCF89E49486AFFF757FCAB
:1037C000DEA004F0B5F89B49C869FFF750FCE3A000
:1037D00004F0AEF8974991F83E00FFF73CFCE6A0F4
:1037E00004F0A6F8934991F83D00FFF734FCEAA0F5
:1037F00004F09EF88F4991F8281001F00100FFF7BE
:103800002AFCECA004F094F88A4991F82810C1F33E
:103810004000FFF720FCEFA004F08AF8854991F8FA
:103820002810C1F38000FFF716FCF1A004F080F827
:10383000804991F82810C1F3C000FFF70CFCF5A0F7
:1038400004F076F87B4991F82810C1F30010FFF7D7
:1038500002FCF7A004F06CF8764991F82900FFF714
:10386000FAFBFAA004F064F800E200006F6B0D0AA6
:10387000000000006572726F723A2000426164209D
:103880006E756D62657220666F726D617400000006
:10389000457870656374656420636F6D6D616E64F7
:1038A000206C657474657200556E737570706F72FC
:1038B0007465642073746174656D656E74000000D6
:1038C000496E76616C696420726164697573000089
:1038D0004D6F64616C2067726F75702076696F6CD4
:1038E0006174696F6E000000496E76616C696420D6
:1038F00073746174656D656E740000005365747453
:10390000696E672064697361626C65640000000021
:1039100056616C7565203C20302E300056616C7508
:1039200065203C2033207573656300004545505287
:103930004F4D2072656164206661696C2E2055735D
:10394000696E672064656661756C747300000000C1
:1039500042757379206F722071756575656400001A
:10396000416C61726D206C6F636B00004C696E6519
:10397000206F766572666C6F770000000D0A00009C
:10398000414C41524D3A200048617264206C696D8F
:103990006974000041626F727420647572696E67A9
:1039A000206379636C6500002E204D506F733F0DCE
:1039B0000A0000005B000000526573657420746F9C
:1039C00020636F6E74696E756500000027244827B8
:1039D0007C2724582720746F20756E6C6F636B00F2
:1039E00043617574696F6E3A20556E6C6F636B65D9
:1039F00064000000456E61626C6564004469736137
:103A0000626C6564000000005D0D0A000D0A4772DB
:103A1000626C20302E3863205B27242720666F726B
:103A20002068656C705D0D0A00000000F88C0008CD
:103A300024303D00D40700202028782C20737465A2
:103A4000702F6D6D290D0A24313D00002028792C3E
:103A500020737465702F6D6D290D0A24323D0000AE
:103A600020287A2C20737465702F6D6D290D0A241F
:103A7000333D00002028737465702070756C736589
:103A80002C2075736563290D0A24343D0000000065
:103A9000202864656661756C7420666565642C20F9
:103AA0006D6D2F6D696E290D0A24353D00000000F3
:103AB000202864656661756C74207365656B2C20C5
:103AC0006D6D2F6D696E290D0A24363D00000000D2
:103AD00020287374657020706F727420696E76652B
:103AE0007274206D61736B2C20696E743A00000053
:103AF000290D0A24373D0000202873746570206961
:103B0000646C652064656C61792C206D7365632934
:103B10000D0A24383D000000000061452028616343
:103B200063656C65726174696F6E2C206D6D2F73A7
:103B300065635E32290D0A24393D000020286A752C
:103B40006E6374696F6E20646576696174696F6E07
:103B50002C206D6D290D0A2431303D002028617222
:103B6000632C206D6D2F7365676D656E74290D0A6A
:103B70002431313D0000000020286E2D6172632049
:103B8000636F7272656374696F6E2C20696E74293D
:103B90000D0A2431323D000020286E2D64656369D2
:103BA0006D616C732C20696E74290D0A2431333DCC
:103BB0000000000020287265706F727420696E63C7
:103BC0006865732C20626F6F6C290D0A2431343DB7
:103BD0000000000020286175746F20737461727496
:103BE0002C20626F6F6C290D0A2431353D000000D6
:103BF0002028696E76657274207374657020656E16
:103C000061626C652C20626F6F6C290D0A2431365D
:103C10003D000000202868617264206C696D697441
:103C2000732C20626F6F6C290D0A2431373D000020
:103C30002028686F6D696E67206379636C652C203E
:103C4000626F6F6C290D0A2431383D002028686F9F
:103C50006D696E672064697220696E766572742082
:103C60006D61736B2C20696E743A0000F34991F812
:103C70002900FFF7B1F9F2A003F05AFEEF49C86A34
:103C8000FFF7F5F9F0A003F053FEEC49086BFFF7DE
:103C9000EEF9F5A003F04CFEE849888EFFF7DBF95A
:103CA000F9A003F045FEE549886BFFF7E0F9FEA0B7
:103CB00003F03EFE10BD2DE9FE4F4FF0000964E019
:103CC0006946484600F026FC20B90A20FFF78CFC24
:103CD000BDE8FE8FFBA003F02BFEB9F1080F25D243
:103CE000DFE809F004080C1014181C20F6A003F0FB
:103CF0001FFE1BE0F5A003F01BFE17E0F4A003F08D
:103D000017FE13E0F3A003F013FE0FE0F2A003F0A0
:103D10000FFE0BE0F1A003F00BFE07E0F0A003F0B4
:103D200007FE03E0EFA003F003FE00BF00BF002486
:103D300025E0C24890F8280000F0010078B15DF855
:103D4000240003F0AAFB0746E74AE84B03F047FAD2
:103D5000054603F0E5FB8246FFF789F903E05DF8CD
:103D60002400FFF784F9022C03DAE1A003F0E0FD60
:103D700003E0AFF26C3003F0DBFD601CC4B2032C37
:103D8000D7DB09F1010000F0FF09B9F1070F97DD5A
:103D9000D8A003F0CDFD002427E0A84890F8280023
:103DA00000F0010080B1D54951F8240003F075FB03
:103DB0000546CD4ACD4B03F012FA074603F0B0FB9F
:103DC0008246FFF754F904E0CC4951F82400FFF78C
:103DD0004EF9022C03DAC6A003F0AAFD03E0AFF20D
:103DE000D83003F0A5FD601CC4B2032CD5DB00BFA6
:103DF0006EE72DE9F041C1482C384078052818D2EB
:103E0000DFE800F003070B0F1300BDA003F090FDE7
:103E10000FE0BCA003F08CFD0BE0BBA003F088FD1D
:103E200007E0BAA003F084FD03E0B9A003F080FD31
:103E300000BF00BFB8A003F07BFDB0492C39097F5B
:103E400001F13600FFF707F9AC482C38407E10B17D
:103E5000022808D103E0B1A003F06AFD07E0B1A099
:103E600003F066FD03E0B1A003F062FD00BF00BFF8
:103E7000A2482C38C07818B1AEA003F059FD02E07A
:103E8000AEA003F055FD9D482C38007918B1ADA0C7
:103E900003F04EFD02E0ADA003F04AFD97482C3838
:103EA000807818B1ABA003F043FD02E0ABA003F0B3
:103EB0003FFD92482C38407920B1012806D00228D5
:103EC0000CD107E0A7A003F033FD07E0A6A003F0A4
:103ED0002FFD03E0A5A003F02BFD00BF00BF874826
:103EE0002C3890F90600B0F1FF3F06D048B1012808
:103EF0000BD19FA003F01CFD07E09EA003F018FD6E
:103F000003E09DA003F014FD00BF00BF7B482C38E8
:103F1000C07910B1012808D103E098A003F008FD92
:103F200003E097A003F004FD00BF00BF95A003F0DD
:103F3000FFFC72492C39087EFFF78DF892A003F040
:103F4000F7FC6E482C38C07880B16C492C398868F1
:103F500003F0A3FA0746644A644B03F040F90546B0
:103F600003F0DEFA0446FFF782F804E063492C39D7
:103F70008868FFF77CF8AFF2705003F0D9FCBDE819
:103F8000F08170B505460C4680A003F0D1FC2846B0
:103F9000FFF761F8AFF2844003F0CAFC2046FFF758
:103FA0000FF8AFF2286003F0C3FC70BD2DE9F04FAD
:103FB00089B0774A50689168D26805AB07C37448E6
:103FC0004078082821D2DFE800F00420080C101403
:103FD000181C70A003F0ACFC17E070A003F0A8FC64
:103FE00013E070A003F0A4FC0FE070A003F0A0FCAD
:103FF0000BE070A003F09CFC07E070A003F098FCBD
:1040000003E070A003F094FC00BF00BF6FA003F0BA
:104010008FFC4FF0000AFEE005A951F82A0003F0DA
:10402000BFF90446054850F82A10204602F0F2FF76
:1040300002A941F82A000148CCE00000D407002082
:10404000290D0A2431393D002028686F6D696E679B
:1040500020666565642C206D6D2F6D696E290D0AD3
:104060002432303D000000002028686F6D696E67C3
:10407000207365656B2C206D6D2F6D696E290D0A9F
:104080002432313D000000002028686F6D696E67A2
:10409000206465626F756E63652C206D736563299E
:1040A0000D0A2432323D00002028686F6D696E676A
:1040B0002070756C6C2D6F66662C206D6D290D0A55
:1040C000000000005B47000035343A0035353A0007
:1040D00035363A0035373A0035383A0035393A0046
:1040E00032383A0033303A006568E1575128A43F2E
:1040F0002C0000005B4739323A000000D00000205D
:104100005B4730005B4731005B4732005B47330061
:104110005B4738300000000020470000204731375F
:1041200000000000204731380000000020473139EE
:1041300000000000204732300000000020473231EC
:1041400000000000204739300000000020473931CE
:1041500000000000204739330000000020473934B8
:1041600000000000204D3000204D3100204D320075
:10417000204D3300204D3400204D3500204D3900B6
:10418000204D38002054000020460000244E00003E
:10419000DC0000203C49646C650000003C51756502
:1041A000756500003C52756E000000003C486F6C65
:1041B000640000003C486F6D650000003C416C618C
:1041C000726D00003C436865636B00002C4D506FBE
:1041D000733A000090F8280000F0010070B151F827
:1041E0002A0003F05AF906463A4A3B4B02F0F7FF21
:1041F000044603F095F902A941F82A0002A951F8F2
:104200002A00FEF734FFAFF2181003F091FB0AF119
:10421000010000F0FF0ABAF1020F7FF7FDAE2FA0F8
:1042200003F086FB4FF0000A4BE02E4890F8280080
:1042300000F0010018B32C4A52F82A100C3A52F838
:104240002A0002F05DFE834603F027F98046214AEA
:10425000214B02F0C4FF06460F4602A951F82A007E
:1042600003F01BF932463B46CDE9000102F0B1FFF5
:10427000044603F055F902A941F82A0011E01A4A50
:1042800052F82A100C3A52F82A0002F039FE04467D
:1042900002A850F82A10204602F087FE02A941F831
:1042A0002A0002A951F82A00FEF7E1FEBAF1020F36
:1042B00003DAAFF2C41003F03BFB0AF1010000F097
:1042C000FF0ABAF1020FB0DD08A003F031FB09B01C
:1042D000BDE8F08F6568E1575128A43F57506F73D0
:1042E0003A000000D4070020D00000203E0D0A0054
:1042F000704770B5044640480088401C85B2402D88
:1043000000D1002505E03D48807800F0100000B1A4
:1043100070BD3B4800888542F5D03A483649098847
:104320004454354805802146374802F03EFD00BF21
:104330003548008800F080000028F9D000BFE7E78A
:1043400070B540F22551304802F092FD002839D076
:104350002D4802F02EFDC4B22C480088401C85B2C6
:10436000B5F5807F00D1002529480088854205D019
:10437000284826490988445424480580182C0BD124
:1043800000BF2548006800F4E06024490843001D90
:104390002149086000BF10E07E2C06D117488078C4
:1043A00040F002001549887007E0212C05D1134820
:1043B000807840F008001149887040F22551124879
:1043C00002F07CFD70BD12480188104800888842C8
:1043D00001D1FF2070470F4A505C4A1C91B2B1F5E1
:1043E000807F00D100210A4A118000BFF2E7074810
:1043F00000880749088070472A000020DC00002060
:104400002C000020D20600200038014026000020A9
:1044100028000020D20500200CED00E00000FA0585
:1044200070B504460D46C4EBC40000EB841000F5E3
:10443000407646222946304600F06EFE70BD70B5CB
:1044400004460D4604EB840000EBC40000F5007642
:104450000C222946304600F05FFE70BD10B50521E4
:10446000002000F058FE4022EE49012000F054FEEA
:1044700010BD10B504468CB1EB48EA4908604860AD
:10448000886078204873E94808614861E848086214
:10449000E848C86100200876E74848620020E14902
:1044A00081F82800084690F8280040F0020081F8C2
:1044B0002800002081F82900E048C862E04808632D
:1044C000642088864FF07E508863192081F83C0074
:1044D000032081F83D00192081F83E00FFF7BEFF60
:1044E00010BD70B505460C46C5EBC50000EB851048
:1044F00000F5407646223146204600F02CFE38B9C1
:104500000020207021462846FFF78AFF002070BD5A
:104510000120FCE770B505460C4605EB850000EB75
:10452000C50000F500760C223146204600F013FE4F
:1045300048B9002020606060A06021462846FFF74F
:104540007EFF002070BD0120FCE710B5002000F0C8
:10455000DFFD0446052C07D140220121B14800F0BF
:10456000FAFD88B9002010BD042C0BDC28220121A3
:10457000AC4800F0F0FD08B90020F4E70020FFF798
:1045800078FF01E00020EEE70120ECE72DE9F0479D
:1045900081460C46B9F1170F77D2DFE809F00C0D10
:1045A0000E1E31343743505B666977849BB2C9E293
:1045B000FEF3F2F1F00000BF00BF204602F06DFFF5
:1045C00005460022134602F07BFF02D80820BDE812
:1045D000F087944840F8294003E19A49204602F0C8
:1045E000BBFF01D20920F2E7204602F056FF074642
:1045F00004F0AEF9054602F037FF8A494873F0E04F
:1046000088480461EDE087484461EAE0204602F012
:1046100044FF074604F05CFA054602F025FF814995
:104620000876DEE0204602F038FF054604F090F9F7
:10463000074602F019FF7B4981F83C00D1E082492E
:10464000204602F0B5FC05467F4902F0B1FC7549F1
:104650000862C6E0204602F020FF21F00041054636
:1046600002F05EFF6F494862BBE06E48C461B8E08B
:10467000204602F012FF054604F06AF9074602F0F0
:10468000F3FE684981F83E00ABE0A8E0204602F066
:1046900004FF054604F05CF9074602F0E5FE6149B7
:1046A00081F83D009DE00021204602F055FF08D032
:1046B0005C4890F8280040F001005A4981F8280031
:1046C00007E0584890F8280020F00100554981F88B
:1046D000280086E00021204602F03EFF08D0514825
:1046E00090F8280040F002004E4981F8280007E0C9
:1046F0004C4890F8280020F002004A4981F8280030
:104700006FE00021204602F027FF08D0454890F8CE
:10471000280040F00400434981F8280007E04148A0
:1047200090F8280020F004003E4981F8280058E065
:104730000021204602F010FF08D03A4890F82800E7
:1047400040F00800374981F8280007E0354890F824
:10475000280020F00800334981F82800FDF7AAF965
:104760003FE00021204602F0F7FE0DD02D4890F8E2
:10477000280040F010002B4981F828000CE02BE0C5
:104780001EE01AE016E008E0264890F8280020F025
:104790001000244981F8280023E0204602F07DFE25
:1047A000054604F095F9074602F05EFE1D4981F8C2
:1047B000290016E01B48C46213E01A48046310E0A5
:1047C000204602F06AFE054604F0C2F8074602F0F1
:1047D0004BFE1449888604E01248846301E00620F9
:1047E000F5E600BFFFF73AFE0020F0E63EB5FFF722
:1047F000ACFE38B90A20FEF7F7FE0120FFF739FEBC
:10480000FEF78BFF002409E069462046FFF782FE91
:1048100010B90A20FEF7E8FE601CC4B2072CF3DDD5
:104820003EBD0000D40700200000A0420000C842A6
:1048300000A00C47CDCCCC3DCDCC4C3D0000C841B8
:1048400000007A430000404000007042802031495F
:1048500008603148007820F010002F490870704738
:1048600010B500202D4908702D48007840F0100048
:104870002B4908700846007840F02000087001229B
:10488000802124481438FBF727FDFFF7DFFF10BD18
:1048900070B504461C20012181404209920002F1BA
:1048A000E022C2F8001100BF0121002807DA0A0740
:1048B000150E1C4A00F00F031B1FD55403E00A0716
:1048C000130E194A135400BF14480078844220D0B4
:1048D000FEF76AF8CCB1002C0ADD80200D49091FD3
:1048E00008600D48007820F020000B49087005E0B2
:1048F0000948007840F02000074908700648007811
:1049000040F010000449087001E0FFF79FFF0349E1
:104910000C7070BD140801401B0000202E00002008
:104920001700002018ED00E000E400E010B50122BF
:104930001146FE48FBF7D0FC01220221FB48FBF7A1
:10494000CBFC01220421F948FBF7C6FC0122082117
:10495000F648FBF7C1FC01221021F448FBF7BCFC30
:1049600001222021F148FBF7B7FC0120EF4910316B
:1049700008600220086004200860082008601020F9
:1049800008602020086010BD00F0010121B1012164
:10499000E64A1432116003E00121E44A103211604A
:1049A00000F0020121B10821E04A1432116003E055
:1049B0000821DE4A1032116000F0040121B14FF4E9
:1049C0000051DB4A116004E04FF40051D84A121D37
:1049D00011607047D748006820F47020D5490860FE
:1049E0000846006840F400200860D2481030006893
:1049F00040F01000CF4910310860704710B5CE4824
:104A00004078032824D1CD48007ECD4908701C2071
:104A1000012181404209920002F1E022C2F8001116
:104A200000BF0121002807DA0A07140EC54A00F06A
:104A30000F031B1FD45403E00A07130EC24A13547A
:104A400000BFFFF7C7FF0120C0490870C0490870C8
:104A500010BD10B50020BE4908701C2000F03DFBC1
:104A60000A2000F03AFB0020B8490870B34890F8DB
:104A70003C00FF2804D1B048807800F02000B8B195
:104A8000AE4991F83C00FBF785FFAC4890F8280050
:104A900000F0040030B1AF48007820F00100AD49CB
:104AA000087005E0AB48007840F00100A9490870A3
:104AB00010BDA9488069A84949690844A649886188
:104AC00008468069A549884206D9A3488069401AEA
:104AD000A1498861012070470020FCE770B50446B9
:104AE0000D4605F00100002841D004F0200020B15F
:104AF00004208E491431086003E004208B491031F2
:104B000008609748007860B104F0400020B1202090
:104B100086491431086010E0202084491031086073
:104B20000BE004F0400020B12020804910310860E3
:104B300003E020207D491431086004F0800020B19A
:104B40004FF400607A49086004E04FF4006078494F
:104B5000091D08608348007800F0E00004F0E001DF
:104B6000884202D00520FBF731FF7E48047005F033
:104B7000020000284ED004F0040090B102206B49DE
:104B80001431086004F0200028B177480068401E06
:104B90007549086009E074480068401C7249086063
:104BA00003E0022061491031086004F0080090B170
:104BB00010205E491431086004F0400028B16B48B1
:104BC0000068401E6949086009E068480068401CA8
:104BD0006649086003E0102054491031086004F071
:104BE000100098B14FF400705149091D086004F09D
:104BF000800028B15E480068401E5D49086009E0F9
:104C00005B480068401C5A49086003E04FF400709C
:104C10004749086070BD10B50246B2F5803F03D227
:104C200091B20123084623E0B2F5002F04D2C2F36B
:104C3000CF010223C8001BE0B2F5800F04D2C2F3FB
:104C40008F110323880113E0B2F1807F04D2C2F3F5
:104C50000F21042308020BE0B2F1806F04D2C2F3EB
:104C60008F210523880203E04FF6FF710523880298
:104C70004FF080442385A18510BD70B50446B4F57E
:104C8000487F01D24FF448743A48B0FBF4F5284607
:104C9000FFF7C1FF3049486170BD10B54FF080404B
:104CA000008A00F0010000283FD04FF08040008AC9
:104CB00020F001004FF0804108820020888401210B
:104CC0001F480078FFF70AFF02211D480078FFF710
:104CD00005FF0220FBF77AFE02210020FFF7FEFE0F
:104CE00001202549087025480068002866D1FDF795
:104CF00043FE2249086008460068A8B10E48407883
:104D000003280AD108460068806A1349C861C86947
:104D1000FFF7B3FF1A481049886118480068006B14
:104D200000EB60000C492DE040E088E10008014004
:104D30001014014000180140DC000020D4070020BE
:104D40003800002018ED00E000E400E03000002012
:104D5000310000201B0000201408002040951600A0
:104D600048000020490000203C00002040000020B6
:104D7000440000200006A50839000020340000206F
:104D8000A04A0B000862D948006800694010404200
:104D90000860084600684860084600688860D34894
:104DA00000680069C8600020086107E0FFF751FE55
:104DB000CF48807840F00400CD498870CB48006827
:104DC00000287AD0C94800680078CA490870CA48E3
:104DD0000068C649096849680844C7490860084628
:104DE000006800281CDDC348007840F00400C14979
:104DF0000870C1480068C049C968401ABE490860C7
:104E0000BC48007800F0200028B1B9484068401E36
:104E1000B749486004E0B6484068401CB44948605F
:104E2000B5484068B149096889680844B249486092
:104E30000846406800281CDDAE48007840F00800B5
:104E4000AC490870AC484068AB49C968401AAA49E7
:104E50004860A848007800F0400028B1A448806865
:104E6000401EA349886004E0A1488068401CA04916
:104E70008860A14880689D490968C96808449E49BE
:104E800088600846806800281DDD9A48007840F058
:104E9000100098490870984880689749C968401A76
:104EA000954988609348007800F0800030B19048C0
:104EB000C068401E8E49C86005E027E08C48C06885
:104EC000401C8B49C8608C480069401C8A490861B5
:104ED00008460069854909680969884279D2844889
:104EE000407804281FD1FFF7E4FD00280ED0824847
:104EF000C0697E490968096B884208D8FFF7A9FD97
:104F00007B48807840F00400794988708DE07A48C9
:104F1000C06976490968096B401A7749C861C86950
:104F2000FFF7ABFE81E07448006970490968496B7E
:104F300088421CD2FFF7BDFD002876D06E48C069BC
:104F40006A490968096B08446B49C8610846C06929
:104F500066490968C96B884204D364480068C06B1D
:104F60006549C8616449C869FFF787FE5DE062482A
:104F700000695E490968896B884241D35E480069CF
:104F80005A490968896B884211D15B48C069574901
:104F90000968C96B884203D158485749886144E081
:104FA000554880695649081A534988613DE0FFF722
:104FB00080FD20B35048C0694F49096A884209D929
:104FC0004D48C06949490968096B401A4A49C86196
:104FD00005E025E04848C06940084749C86146489F
:104FE000C06942490968C96A884204D23F480068DA
:104FF000C06A4149C8614049C869FFF73EFE14E0F4
:105000003D48C06939490968C96B88420DD03748A5
:105010000068C06B3849C861C869FFF72EFE04E01C
:10502000002032490860FDF799FC3648007E31497E
:10503000097848402F49087000203349087010BD96
:1050400010B524212C4801F050FF4FF44870FFF7B1
:1050500014FE0020254908602B49087010BD10B5CA
:1050600003210020FFF73AFDFFF7C8FCFFF7F1FC32
:1050700010BD00B51E484078022804D103201C4909
:105080004870FFF7BBFC00BD19484078032804D1E5
:1050900004201749487000200874704710B5134861
:1050A0000068B0B1114909680969134A1269881A80
:1050B000FDF753FF00201049C861C869FFF7DDFD07
:1050C0000E480D4988610020086102200849487097
:1050D00002E000200649487010BD00F01F020121C7
:1050E00091400A4A430942F82310704734000020D7
:1050F000DC0000203800002014080020A04A0B002B
:1051000040951600D40700203900002080E100E01F
:105110000146002070477047F0B505460B4614461F
:10512000002211E0500008B9D01108B1012000E0C0
:105130000020024618781044C2B213F8011B28461A
:105140006D1CFFF7E8FF641E002CEBD111462846CA
:10515000FFF7E1FFF0BDF0B504460D46164600230B
:1051600011E028466D1CFFF7D3FF0246580008B92E
:10517000D81108B1012000E0002003469818C3B2FE
:1051800004F8012B761E002EEBD12846FFF7C0FF56
:10519000984201D10120F0BD0020FCE72DE9FF413C
:1051A00004460D4616461F464248844204D101215A
:1051B000C01400F08FFE36E0B4F1804F04D101211D
:1051C000084600F094FE2EE03B48844204D10121C1
:1051D000022000F08CFE26E03848844204D10121F0
:1051E000042000F084FE1EE03548844204D10121F1
:1051F000082000F07CFE16E03248844204D10121F0
:10520000102000F074FE0EE02F48844204D10121EA
:10521000202000F06CFE06E02C48844203D10121DE
:10522000401400F057FE681E80B2ADF80800701EF2
:1052300080B2ADF804000020ADF80A00ADF8060019
:1052400001A9204600F019FF0121204601F08AFC47
:1052500001221146204601F0B1F90121204601F05A
:1052600092F94FF4407000F033F8B4F1804F03D15D
:105270001C208DF8000013E00F48844203D11D204C
:105280008DF800000CE00D48844203D11E208DF8FB
:10529000000005E00A48844202D132208DF8000067
:1052A0008DF8017001208DF80300684600F015F8B4
:1052B000BDE8FF81002C01400004004000080040D0
:1052C000000C004000100040001400400034014079
:1052D00031490143314A1160704770B50021002304
:1052E0000F22C4780CB32D4C246804F4E064C4F598
:1052F000E064210AC1F10403CA40447804FA03F1CE
:105300008478144021430901254C0678A15504787E
:1053100004F01F050124AC4005786D114FF0E02624
:1053200006EB8505C5F8004109E0047804F01F0587
:105330000124AC401B4D0678761145F8264070BD1F
:10534000194A0A400243154B1B1F1A60704739B1B6
:10535000124A121D12680243104B1B1D1A6006E010
:105360000E4A121D126882430C4B1B1D1A607047B7
:10537000042808D14FF0E021096941F004014FF001
:10538000E022116107E04FF0E021096921F00401FA
:105390004FF0E022116170470000FA050CED00E0CB
:1053A00000E400E080E100E080FFFF1F01460020F4
:1053B000FB4A106800F03800084310607047F84955
:1053C000096821F00801F64A116011460968014395
:1053D00011607047F249096821F01001F04A11602C
:1053E00011460968014311607047EE48EC49486076
:1053F000ED4848607047EA48006940F08000E8499D
:10540000086170470420E649C96811F0010F01D016
:1054100001200EE0E249C96811F0040F01D002201A
:1054200007E0DF49C96811F0100F01D0032000E048
:105430000420704708B500200090FF20009002E093
:105440000098401E009000980028F9D108BD70B562
:1054500004460425FFF7D6FF054605E0FFF7EAFFFF
:10546000FFF7D0FF0546641E012D01D1002CF5D1B8
:1054700004B90525284670BD70B50546042440F6DC
:10548000FF70FFF7E4FF0446042C19D1C4480069FB
:1054900040F00200C249086108464561006940F0D9
:1054A0004000086140F6FF70FFF7D1FF0446012C71
:1054B00006D0BB48006941F6FD710840B849086153
:1054C000204670BD10B5042440F6FF70FFF7BFFF03
:1054D0000446042C18D1B248006940F00400B049D9
:1054E00008610846006940F04000086140F6FF701E
:1054F000FFF7ADFF0446012C06D0A948006941F62C
:10550000FB710840A6490861204610BD10B504246F
:1055100040F6FF70FFF79BFF0446042C3BD1A148E7
:105520009F498860A04888600846006940F02000D4
:1055300008610846006940F04000086140F6FF70CD
:10554000FFF785FF0446042C1CD19548006941F6FD
:10555000DF710840924908610846006940F0100078
:105560000861A520914908800F20FFF770FF0446CD
:10557000012C10D08A48006941F6EF710840884933
:10558000086108E0012C06D08548006941F6EF71FA
:10559000084083490861204610BD70B505460E4697
:1055A00004240F20FFF753FF0446042C25D17C4828
:1055B000006940F001007A4908612E800F20FFF752
:1055C00046FF0446042C0FD1300C68800F20FFF7F3
:1055D0003EFF0446012C10D07148006941F6FE716F
:1055E00008406F49086108E0012C06D06C4800694A
:1055F00041F6FE7108406A490861204670BD70B5E9
:1056000005460E4604240F20FFF721FF0446042C14
:1056100013D16348006940F00100614908612E80A0
:105620000F20FFF714FF0446012C06D05C480069E8
:1056300041F6FE7108405A490861204670BD70B5B8
:1056400005460E4604240F20FFF701FF0446042CF4
:1056500017D1544852498860534888600846006909
:1056600040F0100008612E800F20FFF7F0FE044686
:10567000012C06D04A48006941F6EF7108404849BC
:105680000861204670BD2DE9F04704464FF6FF76CD
:105690003746B046B1460425E443E6B2C4F30727D3
:1056A000C4F307484FEA14690F20FFF7D0FE054600
:1056B000042D40D13B483A4988603B488860084601
:1056C000006940F010000861FF2E06D0374808300E
:1056D00006800F20FFF7BBFE0546042D08D1FF2FE3
:1056E00006D032480A3007800F20FFF7B0FE05468B
:1056F000042D0AD1B8F1FF0F07D02C480C30A0F8C8
:1057000000800F20FFF7A3FE0546042D0AD1B9F152
:10571000FF0F07D025480E30A0F800900F20FFF7AC
:1057200096FE0546012D06D01D48006941F6EF7131
:1057300008401B4908612846BDE8F08770B505465A
:10574000042440F6FF70FFF782FE0446042C4AD181
:10575000144813498860144888600846006940F07E
:10576000200008610846006940F04000086140F6EA
:10577000FF70FFF76CFE0446042C2BD1084800692B
:1057800041F6DF710840064908610846006940F0AB
:105790001000086165B10020044908800BE000009A
:1057A0000020024023016745AB89EFCD00F8FF1FC1
:1057B000A5204549088040F6FF70FFF748FE0446E3
:1057C000012C10D04148006941F6EF7108403F4973
:1057D000086108E0012C06D03C48006941F6DF7101
:1057E00008403A490861204670BD2DE9F04107465E
:1057F0000D4616460424364834498860354888608A
:105800000F20FFF724FE0446042C1AD12F4800690C
:1058100040F010002D49086147EA0500304340F090
:10582000F8002949891C08800F20FFF710FE044664
:10583000012C06D02548006941F6EF710840234944
:1058400008612046BDE8F0812048C06980087047A3
:105850001E48006A704700201C49C96911F0020FF8
:1058600001D0012000E0002070470020174909689E
:1058700011F0200F01D0012000E00020704729B175
:10588000124A12690243114B1A6104E00F4A12696D
:1058900082430E4B1A61704701460020012908D14E
:1058A0000A4AD26912F0010F01D0012008E000205D
:1058B00006E0064AD2680A4201D0012000E000203A
:1058C00070470249C860704700F8FF1F002002407F
:1058D00023016745AB89EFCD10B50446C549601A71
:1058E0008C422FD009DCC448201810D0B0F5806F4E
:1058F00016D0B0F5006F4AD11BE0B0F5806F2AD00A
:10590000B0F5006F30D0B0F5406F40D135E00121E7
:10591000042000F0F9FA0021042000F0F5FA37E045
:105920000121082000F0F0FA0021082000F0ECFA34
:105930002EE00121102000F0E7FA0021102000F0F5
:10594000E3FA25E00121202000F0DEFA00212020EA
:1059500000F0DAFA1CE00121402000F0D5FA002125
:10596000402000F0D1FA13E00121802000F0CCFAB1
:105970000021802000F0C8FA0AE00121080200F0AE
:10598000C3FA00214FF4807000F0BEFA00E000BFBF
:1059900000BF10BD10B50121084600F0B5FA002186
:1059A000012000F0B1FA10BD2DE9F04102460025BA
:1059B0000026002000230024002791F803C00CF0EB
:1059C0000F0591F803C01CF0100F03D091F802C02E
:1059D0004CEA050591F800C0BCF1000F31D0146805
:1059E00000202BE04FF0010C0CFA00F3B1F800C0DE
:1059F0000CEA03069E4220D183004FF00F0C0CFAF4
:105A000003F7BC4305FA03FC4CEA040491F803C015
:105A1000BCF1280F06D14FF0010C0CFA00FCC2F8C3
:105A200014C00AE091F803C0BCF1480F05D14FF053
:105A3000010C0CFA00FCC2F810C0401C0828D1D39D
:105A40001460B1F800C0BCF1FF0F34DD54680020D1
:105A50002EE000F1080C4FF0010808FA0CF3B1F841
:105A600000C00CEA03069E4221D183004FF00F0CC8
:105A70000CFA03F7BC4305FA03FC4CEA040491F862
:105A800003C0BCF1280F05D100F1080C08FA0CF88E
:105A9000C2F8148091F803C0BCF1480F07D100F19F
:105AA000080C4FF0010808FA0CF8C2F81080401CEE
:105AB0000828CED35460BDE8F0814FF6FF71018015
:105AC000022181700421C170704702460020936852
:105AD0000B4201D0012000E0002070470146886899
