:020000040800F2
:10000000204E00206D730008070300080903000854
:100010000D0300081103000815030008000000008C
:1000200000000000000000000000000019030008AC
:100030001B030008000000001D0300081F03000848
:1000400087730008877300088773000887730008A8
:100050008773000887730008877300088773000898
:100060008773000887730008E7DC000887730008BF
:100070008773000887730008F91500088773000864
:1000800087730008E5180008877300082703000835
:100090002F030008877300088773000823030008F4
:1000A000877300082103000887730008877300081E
:1000B00049D8000887730008877300088773000811
:1000C0008773000887730008877300088773000828
:1000D00087730008FF1400088D1800088773000854
:1000E00025030008877300088773000887730008DA
:1000F00087730008877300088773000887730008F8
:1001000087730008877300088773000887730008E7
:1001100087730008877300088773000887730008D7
:1001200087730008877300088773000887730008C7
:1001300000F002F800F06DF80AA090E8000C82448C
:100140008344AAF10107DA4501D100F062F8AFF269
:10015000090EBAE80F0013F0010F18BFFB1A43F0A5
:1001600001031847B01E0100D01E01000A444FF0E1
:10017000000C10F8013B13F0070408BF10F8014B06
:100180001D1108BF10F8015B641E05D010F8016B4B
:10019000641E01F8016BF9D113F0080F1EBF10F8AF
:1001A000014BAD1C0C1B09D16D1E58BF01F801CBD2
:1001B000FAD505E014F8016B01F8016B6D1EF9D555
:1001C0009142D6D37047000000230024002500266A
:1001D000103A28BF78C1FBD8520728BF30C148BFAA
:1001E0000B607047662911F0C28164290DF03E86CC
:1001F00073290EF06982002070471FB50EF07EFA59
:100200000400002000210FF09DFFE0601FBD10B52D
:1002100010BD0EF073FB1146FFF7EFFF02F0F9FA85
:100220000EF091FB03B4FFF7F2FF03BC00F0DCFE1D
:1002300070B586B0002401A806F04DFB6421029839
:10024000B0FBF1F4042005F01AFB2146481EB0F182
:10025000807F00D31BE0481E4FF0E0225061501712
:100260000F22002807DA13071E0E234B00F00F059C
:100270002D1F5E5503E013071D0E204B1D5400BFBC
:1002800000204FF0E02290610720106100BF06B00F
:1002900070BD10B506F0E9FF00F054FE01F0E0F883
:1002A000012000F080FE01F045FB00F043FC00F06F
:1002B00057FC09F0FCFB09F000FC09F016FC07F004
:1002C0001DFE042005F02FFB0446641CA1B204208F
:1002D00005F01DFBFFF7ACFF10BD10B50446402133
:1002E000074806F0F2F8204600F033F840210448B1
:1002F00006F0E9F810BD000018ED00E000E400E0B1
:10030000002001407047704700BFFEE700BFFEE7D6
:1003100000BFFEE700BFFEE77047704770477047B9
:1003200070477047704710B507F03AFF10BD10B521
:1003300008F096FF10BD000000BF0100A0F1010011
:10034000FBD17047C10000BF0A00A1F10101FBD140
:1003500070474FF4FA5200FB02F100BF0A00A1F10E
:100360000101FBD17047FD4A00FB02F100BF0A000A
:10037000A1F10101FBD1704710B586B0044601A878
:1003800006F0A9FA012C06D0022C07D0032C07D0C6
:10039000042C09D106E0059806B010BD0298FBE7D1
:1003A0000398F9E70498F7E70198F5E701B59DF898
:1003B00000109DF801008DF800008DF80110BDF8C7
:1003C000000008BD01B59DF800109DF803008DF8F0
:1003D00000008DF803109DF801109DF802008DF8C3
:1003E00001008DF80210009808BD01B59DF80010BD
:1003F0009DF803008DF800008DF803109DF80110A2
:100400009DF802008DF801008DF80210009808BDDB
:100410000146302905DB392903DCA1F13000C0B2E7
:100420007047412905DB462903DCA1F13700C0B242
:10043000F6E7FF20F4E70146092903DC01F130006B
:10044000C0B270470A2905DB0F2903DC01F1370030
:10045000C0B2F6E7FF20F4E770B504460B46164637
:1004600004B970BD03B9FCE7002222E0A05CFFF7ED
:10047000CFFF0546FF2D00D1F3E703EB62000570C7
:1004800003EB620000780007000E03EB62010870C6
:10049000511C605CFFF7BCFF0546FF2D00D1E0E773
:1004A00003EB62000078284403EB62010870901CA3
:1004B00082B2B242DADB00BFD3E730B504460B4666
:1004C000154603B930BD04B9FCE700221BE0A15C6E
:1004D0000811FFF7B0FF03F81200985CFF2800D165
:1004E000F0E7A15C01F00F00FFF7A5FF012101EB90
:1004F00042015854012000EB4200185CFF2800D153
:10050000E0E7501C82B2AA42E1DB00BFDAE794497F
:10051000096801609249091D0968416090490831E4
:100520000968816070478E49098801808C49891C5F
:10053000098841808A49091D098881808849891D67
:100540000988C180864908310988018184490A31B6
:100550000988418170470EB50021009101910291F7
:100560007F49096800917E49091D096801917C490C
:100570000831096802910099090E01700099090C6F
:1005800041700099090A81700099C1700199090EA2
:1005900001710199090C41710199090A817101994F
:1005A000C1710299090E01720299090C41720299F6
:1005B000090A81720299C1720EBD2DE9F04105460A
:1005C0000E460027002419E0002412E0621C55F8B2
:1005D000221055F8240010F019FF09D255F8248094
:1005E000601C55F8200045F82400601C45F8208068
:1005F000641CF01B401EA042E8D87F1C701EB8424D
:10060000E2D8BDE8F0810146002002E0421CD0B2F1
:10061000491001F00102002AF8D170472DE9F04F8E
:100620008BB004468846282101A80DF082FD0026E3
:100630002EE04FF00009002523E04FF07E5A0027FE
:1006400010E0AF420CD004F12C0252F8271052F8FF
:10065000250010F017FF8346514610F00BFE82462E
:10066000781CC7B2B742ECDD211D51F82500514678
:1006700010F06EFC8346494610F0FCFB8146681C76
:10068000C5B2B542D9DD01A840F82690701CC6B2AB
:100690004645CEDB282201A9201D0DF018FD0BB028
:1006A000BDE8F08F2DE9F05F80460C461746D4F880
:1006B000049001251BE0201D50F825A000260DE028
:1006C00004F12C0050F82610404610F0DBFE834663
:1006D000514610F0CFFD8246701CC6B2AE42EFDB31
:1006E0005146484610F0C6FB8146681CC5B2BD4263
:1006F000E1DB4846BDE8F09F2DE9FF5F04460D466B
:1007000092469B460126B1462868206000BF1FE044
:10071000584610F083FB07468846A9F1010254F8B9
:10072000221055F8260010F0ADFE019010F076FB77
:1007300021F000413A464346CDE9020110F022F88B
:1007400005D855F8260044F8290009F10109761C5E
:100750005645DDDB484604B0BDE8F09F00127A0044
:10076000E8F7FF1F10B502460B46012102E001EB3E
:10077000810041001800A3F10104E3B2F7D101FBAD
:1007800002F010BD30B502460B46002100200BE000
:10079000545C00EB800504EB4504A4F130004C1CD4
:1007A000E1B2994200DB30BDF2E72DE9F04F87B0AE
:1007B00006460F469046A8F1010000F0FF094FF0F1
:1007C000000A00210C460D462CE016F80910A1F194
:1007D000300010F0EFFCD149019010F04BFD834642
:1007E00010F01CFB4FF02042CD4BCDE90401204618
:1007F000294610F003F8CDE90201DDE904230FF0EA
:10080000E9FC04460D46A9F1010000F0FF090AF1D8
:10081000010000F0FF0ABA4504DB2046294607B074
:10082000BDE8F08FD1E710B5002405F053FF4FF479
:10083000803005F06FFF05F0ACFF0446012C00D1BD
:1008400010BD0020FCE708B50121202006F0B0F81B
:100850000120ADF8000010208DF8030003208DF872
:1008600002006946AF4805F081FD0121202006F015
:100870009FF80220ADF8000010208DF8030003203F
:100880008DF802006946A74805F070FD0121A548D2
:1008900005F01BFE0221A34805F017FE0121C80345
:1008A00005F035FE05F016FF012005F098FF00BFAA
:1008B000212005F052FF0028FAD0102005F02CFA74
:1008C000022005F015FA002005F0A9FF4FF4806022
:1008D00005F0AEFF002005F0B4FF0021084605F04A
:1008E00081FF012005F08AFF00BF392005F035FFA8
:1008F0000028FAD0022005F084FF00BF05F08AFF2F
:100900000828FBD108BDC10441EA50307047C10C32
:1009100041EA4030704710B50B46002105E04C1C01
:1009200050F8244040F82140491C5C1E8C42F6D807
:1009300040F8242010BD10B50346986801609868FF
:10094000001D9860D3E90140A04201D91868986061
:100950001869904202D21869401C1861186910BDCC
:100960000246086990B18868001F88600B68886833
:10097000984201D2486888608868C860C868006882
:1009800010600869401E0861012070470020FCE7E4
:1009900030B504460D466448007802280BDA03227D
:1009A00021466248FFF7C7FF5F480078401C5E4958
:1009B0000870002030BD032221465C48FFF7BBFFD2
:1009C0005B4840685A49096888420AD958484068D3
:1009D00057498968884204D95548406828600120F1
:1009E000E8E70020E6E7F0B50546002400260027EA
:1009F00011B10BB102B10DB93046F0BD2C4616460F
:100A000013E0207896F800C0604506D0491E1646CF
:100A100057B1581E241A002706E07F1C9F4202D3BC
:100A2000581E201AE9E7761C641C0029E9D100262B
:100A30003046E2E702460B4600210AB90020704723
:100A400003E0491C994200D302E0505C0028F8D131
:100A500000BF0846F3E770B503467AB1002409E009
:100A600013F8015B11F8016BB54201D0012070BD94
:100A7000601CC4B2501EA042F2DC0EE007E013F886
:100A8000015B11F8016BB54201D00120EFE7187846
:100A90000028F4D108780028F1D10020E7E730B52C
:100AA00002460023002000BF0FE00C785CB11478F0
:100AB0000D78AC4201D001200AE0521C491C5C1C9C
:100AC000E3B2002001E0012002E01478002CECD118
:100AD00000BF30BD01460020302905DB392903DC89
:100AE000A1F13002D0B20EE0612905DB662903DCFA
:100AF000A1F15702D0B206E0412904DB462902DC0D
:100B0000A1F13702D0B270470146002002E0491C33
:100B1000421CD0B20A78002AF9D17047CDCCCC3D26
:100B20009999B93F00140140580000205C00002052
:100B30004C03002010B501214FF0C05005F045FFD7
:100B4000012005F06CFD04F000FF012004F0BEFE62
:100B5000012004F0C2FE002004F0BBFE10BD000026
:100B600008B50121082005F023FFC020ADF80000E2
:100B700003208DF8020014208DF803006946F04828
:100B800005F0F4FB08BD0A2000BF0100A0F101023E
:100B9000D0B2FAD17047014608E042F6DE6201E0C9
:100BA000531E9AB2002AFBDC4B1E99B20029F4DCDA
:100BB000704700B58020E24910310860402008608D
:100BC000FFF7E1FFDE480830006808B9012000E0C7
:100BD000002000F0800008B1012000BD8020D8492D
:100BE00014310860FFF7CFFFD5480830006800F0E7
:100BF000800008B10220F0E74020D149143108609C
:100C0000FFF7C1FF0020E8E700B58020CC49143190
:100C1000086040200860FFF7B6FF4020C849103147
:100C20000860FFF7B0FF8020C54910310860FFF76A
:100C3000AAFF00BD00B54020C14914310860FFF78C
:100C4000A2FF8020BE4914310860FFF79CFF4020BE
:100C5000BB4910310860FFF796FF4020B8491431B6
:100C60000860FFF790FF00BD00B54020B449143183
:100C70000860FFF788FF8020B14910310860FFF756
:100C800082FF4020AE4910310860FFF77CFF402012
:100C9000AB4914310860FFF776FF00BD00B5402076
:100CA000A74914310860FFF76EFF8020A449103176
:100CB0000860FFF768FF4020A14910310860FFF786
:100CC00062FF9F480830006800F0800028B1402093
:100CD0009B4914310860002000BD40209849143120
:100CE00008600120F8E710B5034608241BE0402007
:100CF000934914310860FFF746FF03F0800020B1EC
:100D000080208F491031086003E080208C49143125
:100D100008605806030EFFF736FF4020884910315F
:100D20000860FFF730FF2000A4F10101CCB2DED152
:100D3000402083491431086010BD10B508240023F9
:100D400080207F491031086015E05806030E4020CE
:100D50007B4914310860FFF716FF402078491031B5
:100D60000860FFF710FF76480830006800F0800048
:100D700008B143F001032000A4F10101CCB2E4D199
:100D800040206F4914310860184610BD70B5064602
:100D90000C46002220216A4805F099FB0120FFF74C
:100DA000FAFEFFF706FF05460DB1284670BDA020EC
:100DB000FFF799FFFFF772FF18B9FFF725FF002033
:100DC000F4E72012FFF78FFFFFF768FFE0B2FFF7AD
:100DD0008AFFFFF763FF3046FFF785FFFFF75EFFEF
:100DE000FFF712FF0C20FFF7D6FE01222021544806
:100DF00005F06DFB0320D9E770B50446FFF7D9FE77
:100E000005460DB1284670BDA020FFF76CFFFFF727
:100E100045FF18B9FFF7F8FE0020F4E72012FFF7AE
:100E200062FFFFF73BFFE0B2FFF75DFFFFF736FF22
:100E3000FFF7BFFEA120FFF756FFFFF72FFFFFF7D9
:100E40007CFF0646FFF710FFFFF7DEFE3046DAE7CD
:100E50002DE9F04104460D4616460022202138486F
:100E600005F035FB0120FFF796FEFFF7A2FE0746CF
:100E700017B13846BDE8F081A020FFF734FFFFF737
:100E80000DFF18B9FFF7C0FE0020F3E72812FFF7A7
:100E90002AFFFFF703FFE8B2FFF725FFFFF7FEFE8B
:100EA00007E02078FFF71FFFFFF7F8FE641C701EB5
:100EB000C6B2002EF5D1FFF7A7FE0C20FFF76BFEA0
:100EC000012220211E4805F002FB0020D2E7F0B5E8
:100ED00004460D461646FFF76CFE07460FB138462E
:100EE000F0BDA020FFF7FFFEFFF7D8FE18B9FFF70F
:100EF0008BFE0020F4E72812FFF7F5FEFFF7CEFE89
:100F0000E8B2FFF7F0FEFFF7C9FEFFF752FEA1209F
:100F1000FFF7E9FEFFF7C2FE07E0FFF70EFF2070C4
:100F2000FFF788FE641C701EC6B2012EF5D1FFF7D4
:100F300004FF2070FFF798FEFFF766FE0020CFE762
:100F4000000C014010B500214FF0006004F07FFC60
:100F50004FF4C06004F044FC10BD00003748006846
:100F60003749884201D1012070473448006835492B
:100F7000884201D10220F7E73048006832498842B0
:100F800001D10320F0E72D4800683049884201D1A3
:100F90000420E9E7294800682D49884201D105204D
:100FA000E2E70020E0E7062818D2DFE800F01703A8
:100FB000070B0F132249214A116013E021491F4AF0
:100FC00011600FE020491D4A11600BE01F491B4AC8
:100FD000116007E01E49194A116003E01849174AD9
:100FE000116000BF00BF704700BF704770B5044676
:100FF0000D4600BF80211148006806F06DF80028FA
:10100000F8D0E0B20D490968888000BF0B4800683D
:10101000008800F040000028F8D0204670BD10B5D0
:10102000044600BF20210548006806F055F8002856
:10103000F8D0034805F0E6FF10BD00007000002066
:10104000003801400044004000480040004C00408F
:10105000005000402DE9F041002400250026002723
:10106000002001F0CFFA9F2001F0DCFAAA2001F065
:10107000D9FA0546AA2001F0D5FA0646AA2001F0C1
:10108000D1FA0746012001F0BDFA280440EA062003
:1010900040EA07042046BDE8F08110B50024002096
:1010A00001F0B0FA9F2001F0BDFAAA2001F0BAFACF
:1010B0000446012001F0A6FA204610BD10B500201C
:1010C00001F0A0FA00BF052001F0ACFA044604F0DC
:1010D00001000028F7D1012001F094FA204610BD4C
:1010E00010B5002001F08EFA062001F09BFA0120D5
:1010F00001F088FAFFF7E2FF10BD10B5002001F003
:1011000081FA042001F08EFA012001F07BFAFFF74A
:10111000D5FF10BD10B5FFF7E3FF002001F072FA14
:10112000C72001F07FFA012001F06CFAFFF7C6FF3B
:1011300010BD10B504462403FFF7D2FF002001F0D4
:1011400061FA202001F06EFAC4F3074001F06AFA58
:10115000C4F3072001F066FAE0B201F063FA01205F
:1011600001F050FAFFF7AAFF10BD70B504460E4615
:101170002403002001F046FA0B2001F053FAC4F3D7
:10118000074001F04FFAC4F3072001F04BFAE0B238
:1011900001F048FAAA2001F045FA002504E0FF20FA
:1011A00001F040FA70556D1CB5F5805FF7D3012052
:1011B00001F028FAFFF782FF70BD2DE9F0410446E7
:1011C0000D462403002724E0FFF78AFF002001F0EA
:1011D00019FA022001F026FAC4F3074001F022FABE
:1011E000C4F3072001F01EFAE0B201F01BFA00265A
:1011F00003E0A85D01F016FA761CFF2EF9D905F57B
:10120000807504F58074012001F0FCF9FFF756FFAA
:101210007F1C102FD8D3BDE8F0812DE9F0410546A1
:101220000F46C5F3D3086E02C6F30B064C49404681
:10123000FFF79BFF002409E030194949085CFF28AB
:1012400003D04046FFF775FF03E0641CB4F5007F50
:10125000F2D300BF002404E0385D3119404A5054F5
:10126000641CB4F5007FF7D33D494046FFF7A5FF66
:10127000BDE8F0812DE9F04106460F4674020020DA
:1012800001F0C0F90B2001F0CDF9C4F3074001F0E3
:10129000C9F9C4F3072001F0C5F9E0B201F0C2F9C1
:1012A000AA2001F0BFF9002504E0FF2001F0BAF9FF
:1012B00078556D1CB5F5007FF7D3012001F0A2F938
:1012C000BDE8F08110B501F023F9002010BD2DE933
:1012D000F04705460E4617464FEA1538C5F30B0989
:1012E0001F494046FFF741FF4046FFF722FF002419
:1012F00005E0305D09EB0401194A5054641CBC42FE
:10130000F7D317494046FFF758FFBDE8F0872DE9AE
:10131000F04104460F4690462546002001F072F940
:101320000B2001F07FF9C5F3074001F07BF9C5F30D
:10133000072001F077F9E8B201F074F9AA2001F072
:1013400071F9002604E0FF2001F06CF9B855761C15
:101350004645F8D3012001F055F9BDE8F0810000C1
:101360005803002008B50121042005F021FB4FF4AB
:101370000070ADF8000018208DF8030003208DF8F0
:1013800002006946BC4804F0F1FF4FF48060ADF8FC
:10139000000004208DF803006946B74804F0E6FF1A
:1013A00008BD1FB50121880305F002FB4FF4E130B1
:1013B00000900020ADF80400ADF80600ADF808007C
:1013C000ADF80C000C20ADF80A006946AB4805F0FA
:1013D0001CFD1FBD08B525208DF8000001208DF8EB
:1013E00001008DF802008DF80300684604F0FDF955
:1013F00008BD00B58DB00121084605F0CCFA0E20DD
:101400008DF8300000208DF831008DF83200012079
:101410008DF833000CA804F0E8F9994804F0B0FA0C
:101420009648001D019097480290102003900020DC
:1014300005908020069000200790089009904FF4B6
:1014400040500A9000200B9001A98D4804F03AFB0F
:10145000012202218A4804F06CFB0DB000BD7047E8
:1014600010B5FFF79EFFFFF77DFFFFF7B3FF40F2D8
:101470002551824805F070FE012240F225517F4837
:1014800005F05BFD01217D4805F04BFD10BD10B559
:1014900004462146794805F0B1FD00BF8021774818
:1014A00005F01AFE0028F9D010BD70B505460E46AD
:1014B000002400BF0BE0295D704805F09FFD00BFD0
:1014C00080216E4805F008FE0028F9D0641CB44263
:1014D000F1D370BD70B505460C46224629466948D1
:1014E0000CF0B0FD664844388464012280216348D2
:1014F00005F048FD0121624804F00FFB70BD70B596
:1015000040F225515D4805F0FDFD012863D140F210
:1015100025515A4805F020FE584805F073FDC5B224
:10152000212D19D004DC0A2D07D0182D40D11AE046
:101530003F2D03D07E2D3BD107E04BE05248807811
:1015400040F001005049887044E04F48807840F0F6
:1015500002004D4988703DE04B48807840F008001B
:101560004949887036E04FF48041484804F0ADFFA7
:101570004FF40041454804F0A6FF002000F069FA4E
:101580006420FEF7E6FE012080F3138800BF00BF51
:10159000BFF34F8F3E48006800F4E0603D490843C8
:1015A000001D3B490860BFF34F8F00BF00BFFEE73F
:1015B00039480078401CC4B2802C00D10024374840
:1015C0000078844205D0364833490978455432487A
:1015D000047000BF0FE04FF45871284805F07CFDFF
:1015E000012803D1254805F00DFD04E040F22771E4
:1015F000224805F087FD70BD10B54FF4005004F08F
:10160000A7FA40B1002280211C4805F0BBFC002154
:101610001B4804F082FA4FF4704004F0ADFA10BD9C
:101620000146612905DB7A2903DCA1F12000C0B263
:101630007047412905DB5A2903DC01F12000C0B2C3
:10164000F6E70846F4E71548017813480078884221
:1016500001D1FF207047124A505C4A1CD1B2802948
:1016600000D100210D4A117000BFF3E70A4800784D
:101670000A49087070470000000801400038014026
:101680004400024018140020841500200018014076
:101690000CED00E00000FA05780000207900002041
:1016A0005813002008B50121242005F081F90420F9
:1016B000ADF8000018208DF8030003208DF802001B
:1016C0006946964804F052FE0820ADF80000042058
:1016D0008DF803006946914804F048FE0820ADF8F3
:1016E000000003208DF8020010208DF803006946E9
:1016F0008B4804F03BFE08BD1FB50121480405F0EE
:1017000064F94FF4E13000900020ADF80400ADF82A
:101710000600ADF80800ADF80C000C20ADF80A008A
:101720006946804805F071FB1FBD08B526208DF87D
:10173000000000208DF8010002208DF80200012039
:101740008DF80300684604F050F808BD00B58DB070
:101750000121022005F01FF911208DF83000002032
:101760008DF8310002208DF8320001208DF8330011
:101770000CA804F03AF86C4804F002F96948001D1E
:1017800001906A480290102003900020059080206C
:10179000069000200790089009904FF440500A905E
:1017A00000200B9001A9604804F08CF9012202216D
:1017B0005D4804F0BEF90DB000BD00205C494870E2
:1017C000704710B5FFF798FFFFF76CFFFFF7ADFF0D
:1017D000FFF7BCFFFFF7F1FF40F22551514805F03C
:1017E000BBFC012240F225514E4805F0A6FB012129
:1017F0004C4805F096FB10BD10B5044621464948FB
:1018000005F0FCFB00BF8021464805F065FC002880
:10181000F9D010BD70B505460E4600240821404899
:1018200004F051FE0520FEF794FD00BF0BE0295D9A
:101830003C4805F0E3FB00BF80213A4805F04CFC32
:101840000028F9D0641CB442F1D30821344804F0D4
:101850003CFE70BD70B505460C460821304804F0CA
:1018600032FE0520FEF775FD224629462F480CF072
:10187000E9FB2D48001D046001228021294805F064
:1018800081FB0121284804F048F970BD10B540F2F1
:101890002551244805F036FC012812D140F225518B
:1018A000204805F059FC1F4805F0ACFBC1B22048A8
:1018B0004278C01C8154C01E4078401C1C494870AE
:1018C0000FE04FF45871174805F006FC012803D1CA
:1018D000144805F097FB04E040F22771114805F029
:1018E00011FC10BD10B54FF0007004F031F978B163
:1018F000002280210B4805F045FB00210A4804F036
:101900000CF90520FEF725FD0821054804F0DDFD52
:101910004FF0706004F030F910BD00000008014085
:101920000014014000440040800002401F150020C8
:101930005414002008B501214FF4FE7005F038F86A
:101940000220ADF8000003208DF8020010208DF871
:1019500003006946F74804F009FD4FF44040ADF834
:10196000000003208DF8020010208DF80300694666
:10197000F14804F0FBFC4FF46060ADF80000482033
:101980008DF803006946ED4804F0F0FC0320ADF843
:10199000000048208DF803006946E94804F0E6FCA1
:1019A0000320ADF8000048208DF803006946E548A3
:1019B00004F0DCFC4FF6FF70ADF8000048208DF815
:1019C00003006946E04804F0D1FC43F6FC70ADF832
:1019D000000048208DF803006946D74804F0C6FC93
:1019E0004FF48070ADF8000003208DF80200102045
:1019F0008DF803006946CF4804F0B8FC4CF2800033
:101A0000ADF8000003208DF8020010208DF80300CF
:101A10006946CA4804F0AAFC4FF47070ADF80000A3
:101A200003208DF8020010208DF803006946C74896
:101A300004F09CFC47F27C00ADF8000003208DF818
:101A4000020010208DF803006946BE4804F08EFCA9
:101A500008BD10B50446E043BD490880084600783B
:101A600000F0010028B94FF48041B44804F02DFD86
:101A700004E04FF48041B14804F025FDB4480078FB
:101A8000C0F3400028B94FF40041AC4804F01DFDFC
:101A900004E04FF40041A94804F015FDAC4800787B
:101AA000C0F3800020B90421A64804F00EFD03E035
:101AB0000421A44804F007FDA5480078C0F3C00045
:101AC00020B908219F4804F000FD03E008219D484B
:101AD00004F0F9FC9E480078C0F3001020B9802182
:101AE0009A4804F0F2FC03E08021984804F0EBFCF3
:101AF00097480078C0F3401028B94FF4807193489C
:101B000004F0E3FC04E04FF48071904804F0DBFC47
:101B10008F480078C0F3801028B94FF400718B48CB
:101B200004F0D3FC04E04FF40071884804F0CBFCCF
:101B300087480078C0F3C01028B94FF480717D4801
:101B400004F0C3FC04E04FF480717A4804F0BBFC5D
:101B50007F480088C0F3002020B940217B4804F072
:101B6000B4FC03E04021794804F0ADFC78480088DB
:101B7000C0F3402020B94021724804F0A6FC03E0E5
:101B80004021704804F09FFC71480088C0F3802019
:101B900020B920216B4804F098FC03E0202169481B
:101BA00004F091FC6A480088C0F3C02020B91021DD
:101BB000644804F08AFC03E01021624804F083FCCE
:101BC00063480088C0F3003028B94FF480415D4875
:101BD00004F07BFC04E04FF480415A4804F073FCAD
:101BE0005B480088C0F3403028B94FF40051554895
:101BF00004F06BFC04E04FF40051524804F063FC25
:101C000053480088C0F3803028B94FF480514D48C4
:101C100004F05BFC04E04FF480514A4804F053FCAC
:101C20004B480088C0F3C03020B98021434804F0FD
:101C30004CFC03E08021414804F045FC10BD10B588
:101C40000446002043490870002C71D104213A4811
:101C500004F01FFC012807D13E48006820F0010075
:101C6000401C3C49086005E03A48006820F001004B
:101C7000384908600821304804F00BFC012807D1DE
:101C80003448006820F00200801C3249086005E0FA
:101C90003048006820F002002E49086010212648D4
:101CA00004F0F7FB012807D12A48006820F004005F
:101CB000001D2849086005E02648006820F004005F
:101CC0002449086020211C4804F0E3FB012807D1C7
:101CD0002048006820F0080008301E49086005E030
:101CE0001C48006820F008001A490860402112488A
:101CF00004F0CFFB012807D11648006820F010003F
:101D000010301449086005E01248006820F0100007
:101D10001049086001210C4804F0BBFB01281BD1CD
:101D20000C48006820F0200020300A49086019E0C3
:101D300041E000000008014000180140001401408B
:101D4000000C014000200140001C01400010014037
:101D5000800000207C000020FB48006820F020006C
:101D6000F94908600221F94804F093FB012807D1E2
:101D7000F548006820F040004030F349086005E075
:101D8000F148006820F04000EF4908600421EF4866
:101D900004F07FFB012807D1EB48006820F08000A9
:101DA0008030E949086009E2E748006820F08000D7
:101DB000E549086002E2012C72D10821E34804F0F1
:101DC00068FB012807D1E048006820F00100401CB2
:101DD000DD49086005E0DC48006820F00100DA49D0
:101DE00008601021D94804F054FB012807D1D648D7
:101DF000006820F00200801CD349086005E0D2484A
:101E0000006820F00200D04908602021CF4804F08B
:101E100040FB012807D1CC48006820F00400001DD9
:101E2000C949086005E0C848006820F00400C649B8
:101E300008604021C54804F02CFB012807D1C248A6
:101E4000006820F008000830BF49086005E0BE487F
:101E5000006820F00800BC4908608021BB4804F0FD
:101E600018FB012807D1B848006820F01000103096
:101E7000B549086005E0B448006820F01000B24998
:101E800008604FF48071B14804F003FB012808D1C9
:101E9000AD48006820F020002030AB49086006E023
:101EA00030E0A948006820F02000A74908604FF4FE
:101EB0000071A64804F0EDFA012807D1A248006895
:101EC00020F040004030A049086005E09E480068CE
:101ED00020F040009C4908604FF480619B4804F06A
:101EE000D8FA012807D19848006820F08000803097
:101EF0009549086062E19448006820F080009249AA
:101F000008605BE1022C75D10121914804F0C1FA0F
:101F1000012807D18C48006820F00100401C8A4944
:101F2000086005E08848006820F0010086490860E4
:101F30000221874804F0ADFA012807D182480068E1
:101F400020F00200801C8049086005E07E4800689F
:101F500020F002007C4908604FF400617B4804F0E7
:101F600098FA012807D17848006820F00400001D85
:101F70007549086005E07448006820F00400724963
:101F800008604FF48051714804F083FA012807D1AA
:101F90006D48006820F0080008306B49086005E0D3
:101FA0006948006820F00800674908604FF4005154
:101FB000664804F06EFA012807D16348006820F0F3
:101FC000100010306049086005E05F48006820F0AC
:101FD00010005D4908604FF480415C4804F059FAF4
:101FE000012808D15848006820F0200020305649C8
:101FF000086006E02FE05448006820F020005249B5
:1020000008604FF40041514804F043FA012807D119
:102010004D48006820F0400040304B49086005E022
:102020004948006820F040004749086001214948BC
:1020300004F02FFA012807D14348006820F08000FF
:10204000803041490860B9E03F48006820F08000D6
:102050003D490860B2E0032C75D102213D4804F0EF
:1020600018FA012807D13848006820F00100401C08
:102070003549086005E03448006820F00100324925
:1020800008608021344804F004FA012807D12E4862
:10209000006820F00200801C2B49086005E02A48F7
:1020A000006820F00200284908604FF480712A4837
:1020B00004F0EFF9012807D12348006820F004005C
:1020C000001D2149086005E01F48006820F0040059
:1020D0001D4908604FF400711F4804F0DAF9012827
:1020E00007D11948006820F0080008301649086038
:1020F00005E01548006820F00800134908604FF417
:102100008061154804F0C5F9012807D10E48006820
:1021100020F0100010300C49086005E00A48006803
:1021200020F01000084908604FF400610A4804F0EC
:10213000B0F9012812D10448006820F020002030B6
:102140000149086010E039E07C000020001C0140DB
:10215000000C01400020014000180140E5480068E3
:1021600020F02000E34908604FF48051E24804F079
:1021700090F9012807D1DF48006820F04000403086
:10218000DC49086005E0DB48006820F04000D949E0
:1021900008604FF40051D84804F07BF9012807D1BA
:1021A000D448006820F080008030D249086005E003
:1021B000D048006820F08000CE490860CD48007803
:1021C00010BD10B54FF48041CC4804F062F90128ED
:1021D00007D1CB48006820F00100401CC8490860C6
:1021E00005E0C748006820F00100C54908604FF4C9
:1021F0000041C24804F04DF9012807D1C0480068E9
:1022000020F00200801CBE49086005E0BC48006860
:1022100020F00200BA4908600421BA4804F039F9F4
:10222000012807D1B648006820F00400001DB44919
:10223000086005E0B248006820F00400B04908607A
:102240000821B04804F025F9012807D1AC480068FE
:1022500020F008000830AA49086005E0A848006896
:1022600020F00800A64908608021A74804F011F971
:10227000012807D1A248006820F010001030A049C2
:10228000086005E09E48006820F010009C49086046
:102290004FF480719C4804F0FCF8012807D198485D
:1022A000006820F0200020309549086005E094483F
:1022B000006820F02000924908604FF400719248B5
:1022C00004F0E7F8012807D18D48006820F04000AD
:1022D00040308B49086005E08948006820F04000E4
:1022E000874908604FF48071884804F0D2F80128CB
:1022F00007D18348006820F0800080308049086062
:1023000005E07F48006820F080007D49086040219A
:102310007D4804F0BEF8012808D17948006820F40F
:10232000807000F580707649086005E074480068A8
:1023300020F48070724908604021724804F0A9F8C6
:10234000012808D16E48006820F4007000F5007084
:102350006B49086005E06A48006820F4007068492D
:1023600008602021674804F094F8012808D16448E7
:10237000006820F4806000F580606149086005E035
:102380005F48006820F480605D49086010215D4866
:1023900004F07FF8012808D15948006820F4006053
:1023A00000F500605649086005E05548006820F4D3
:1023B0000060534908604FF48041524804F069F8C6
:1023C000012808D14E48006820F4805000F5805064
:1023D0004B49086005E04A48006820F480504849AD
:1023E00008604FF40051474804F053F8012808D121
:1023F0004348006820F4005000F500504049086050
:1024000005E03F48006820F400503D4908604FF463
:1024100080513C4804F03DF8012808D13848006854
:1024200020F4804000F580403549086005E03448DC
:10243000006820F480403249086080212F4804F071
:1024400028F8012808D12E48006820F4004000F543
:1024500000402B49086005E02948006820F400404E
:102460002749086026480088C04310BD10B50020E9
:10247000204908704FF40071204804F00AF838B978
:102480001C48006820F00100401C1A49086005E063
:102490001848006820F00100164908604FF4806178
:1024A000164803F0F6FF38B91248006820F0020021
:1024B000801C1049086005E00E48006820F002000A
:1024C0000C4908604FF400610C4803F0E2FF38B992
:1024D0000848006820F00400001D0649086005E077
:1024E0000448006820F004000249086001480078B0
:1024F00010BD00007C0000200018014000140140C5
:102500008000002000200140001001400008014030
:1025100000B587B00121042004F04AFA0121082007
:1025200004F046FA0121102004F042FA0121202093
:1025300004F03EFA0121880304F047FA4FF46040AA
:10254000ADF8180003208DF81A0018208DF81B0034
:1025500006A9414803F00AFF4FF48040ADF8180087
:1025600048208DF81B0006A93B4803F0FFFE4FF4FE
:102570008050ADF8180003208DF81A0010208DF857
:102580001B0006A9344803F0F1FE4FF48051324895
:1025900003F09BFF4FF48070ADF8180003208DF816
:1025A0001A0010208DF81B0006A92C4803F0DEFE4F
:1025B0004FF48071294803F086FF0020ADF8040035
:1025C0004FF48270ADF806000020ADF80800ADF8B9
:1025D0000A00ADF80C004FF40070ADF80E000820B2
:1025E000ADF810000020ADF812000720ADF814007F
:1025F00001A91B4804F066FA0121194804F007FB01
:1026000007B000BD10B504462CB94FF480511248F4
:1026100003F05BFF05E0012C03D121030E4803F01A
:1026200052FF10BD10B5044600BF02210C4804F053
:1026300072FB0028F9D02146094804F019FB00BFBD
:102640000121074804F067FB0028F9D0044804F092
:1026500011FBC0B210BD0000000C0140001401408D
:102660000038004010B5FFF701F809F0AFFA07F0A5
:1026700034FB09F0DDFD0BF07CFB07F0ABFA08F052
:102680005BFB0BF0C2FA09F054F800203C490870DB
:1026900088703C4890F8280000F0020008B1012042
:1026A000087437484078012808D1364890F8280047
:1026B00000F0100010B106203149487030484078D1
:1026C000062803D102200AF015F804E000202C4966
:1026D000487009F0B3FD10BD10B52B48046807E041
:1026E0002949206A086020460BF063FB26480468ED
:1026F000002CF5D10020254908602349086010BD51
:1027000000EB8001880000E0401E0028FCD17047EB
:1027100000201F4908601F4908601F490860704772
:10272000704710B5044604F0010028B14FF4004191
:102730001A4803F0CAFE04E04FF40041174803F0C2
:10274000C2FE04F0020020B14021154803F0BDFE96
:1027500003E04021124803F0B6FE04F0040028B163
:102760004FF480710F4803F0B0FE04E04FF4807125
:102770000C4803F0A8FE052008F0D5FF10BD0000AE
:10278000841500205C47002084000020A000002069
:10279000BC000020C0000020C40000200014014044
:1027A000001001400008014030B5ADF5237D002444
:1027B00000204949087001200874012247A11AA885
:1027C00001F055FB0546DDB90EE0641C01A807F0D9
:1027D000F4FB01AA214645A00BF012FB09F048FDCD
:1027E0003D48007800B106E01AAA642101A802F071
:1027F00079FD0028E9D100BF40A00BF001FB00BF2C
:102800000020354908701AA801F02FFE0DF5237D30
:1028100030BD1CB5FDF73DFD0020FFF71AF90AF0A9
:102820003BFF0BF001FA14212B480BF082FC012036
:10283000294908704870FFF715FF4FF4804133486D
:1028400003F041FE4FF40041304803F03EFE6420A7
:10285000FDF77FFD312003F080FF2D49002001F0BE
:10286000F3FA2C4908700846007838B96A4601A97D
:1028700029A001F062FF2749087000BF4FF4FA70E9
:10288000FDF72BFD1021254803F01FFEFFF7EEFD9D
:10289000012801D1FFF788FF1DE009F05AFE012051
:1028A000FDF757FD1E480078401C1D49087008467A
:1028B0000078642804D102211A4803F006FE0AE0D9
:1028C00017480078C82806DB0221164803F0FBFDF4
:1028D000002013490870E0E784150020303A2F7477
:1028E0006573742F646174612E6E63005B47636F60
:1028F00064652025645D202573000000576F726BAE
:102900002066696E6973680D0A00000000180140B6
:102910009831002018010020000000000020014034
:10292000190100200008014070B503460C4603E081
:1029300014F8015B03F8015B1500A2F10102F7D165
:1029400070BD30B5034601E003F8011B1400A2F18D
:102950000102F9D130BDF0B503461C460D460020FA
:1029600000BF1600A2F1010207D014F8017B15F890
:1029700001CBA7EB0C063000F3D0F0BD024600E01F
:10298000521C107810B110788842F9D11078704735
:102990002DE9F04104460D46E66AAE422FD020797B
:1029A00008B360780123324604F1300102F0A0FE42
:1029B00010B10120BDE8F08100202071D4E907109A
:1029C0000844B0420FD9E7780AE0E069064460782D
:1029D0000123324604F1300102F08AFE781EC7B2AC
:1029E000012FF2DC00BF55B1607801232A4604F1C3
:1029F000300102F062FE08B10120DBE7E562002051
:102A0000D8E770B5044600212046FFF7C1FF054610
:102A1000002D59D1207803284FD1607900284CD05F
:102A20000020E0624FF40072002104F13000FFF753
:102A300088FF552184F82E12AA2184F82F125220E3
:102A400084F8300052213120015561213220015596
:102A5000412133200155722184F8141284F8151293
:102A6000412184F81612612184F81712217C84F820
:102A70001812208A010A84F819122069010C84F8BE
:102A80001A122069010E84F81B12217B84F81C1293
:102A9000A089010A84F81D12E068010C84F81E1256
:102AA000E068010E84F81F126078012304F1300100
:102AB000626902F01DFE00206071607800221146FC
:102AC00002F031FE00B10125284670BD0246891E84
:102AD0009069801E884201D8002070479378906AE0
:102AE00001FB0300F9E72DE9F04105460C46022CF5
:102AF00002D3A869A04202D80120BDE8F08128785D
:102B0000012804D002282CD003285AD13DE02746C2
:102B100007EB5707286A00EB57212846FFF738FFD5
:102B200000B14EE0C7F3080105F1300010F8018054
:102B30007F1C286A00EB57212846FFF729FF00B1C8
:102B40003FE0C7F3080105F13000405C48EA002887
:102B500004F0010010B14FEA1810CEE7C8F30B00E3
:102B6000CBE7286A00EB14212846FFF711FF00B1DC
:102B700027E040F2FF1000EA440105F130000E1892
:102B80003078717840EA0120B7E7286A00EBD41169
:102B90002846FFF7FDFE00B113E040F2FF1000EA07
:102BA000840105F130000E18F0780006B17840EA93
:102BB0000140717840EA01203178084320F07040EC
:102BC0009BE700BF4FF0FF3097E72DE9F047054640
:102BD0000E461746022E02D3A869B04202D84FF023
:102BE00002088AE02878012804D0022841D003286E
:102BF0007DD154E0B14609EB5909286A00EB59210F
:102C00002846FFF7C5FE8046B8F1000F00D071E0FE
:102C1000C9F3080105F130000C1806F0010020B1DD
:102C2000F9B2207861F31F1000E03846207009F1F6
:102C3000010901202871286A00EB59212846FFF775
:102C4000A7FE8046B8F1000F00D053E0C9F3080199
:102C500005F130000C1806F0010010B1C7F30710A1
:102C600005E0207800F0F000C7F30321084320704E
:102C700040E0286A00EB16212846FFF789FE8046CF
:102C8000B8F1000F00D035E040F2FF1000EA460135
:102C900005F130000C182770380A60702AE0286AA5
:102CA00000EBD6112846FFF773FE8046B8F1000FFF
:102CB00000D01FE040F2FF1000EA860105F130006D
:102CC0000C18E0780006A17840EA0140617840EAFB
:102CD00001202178084300F0704007432770380A2C
:102CE0006070380CA070380EE07003E0FFE74FF022
:102CF000020800BF00BF012028714046BDE8F087F0
:102D00002DE9FC4704460E46B046B146022E02D3DA
:102D1000A069B04201D802273FE0002739E03146E0
:102D20002046FFF7E0FE054605B935E0012D01D14B
:102D3000022731E0681C08B901272DE00022314646
:102D40002046FFF742FF074607B125E02069401CF7
:102D500020B12069401C20610120607109F101004F
:102D6000A84201D1A94613E041462046FFF7AEFE36
:102D7000009049462046FFF7A9FEA1780844401E6E
:102D8000019060786A46042102F0CDFCA946A8466D
:102D90002E46A069B042C2D800BF3846BDE8FC87C5
:102DA0002DE9F04704468946B9F1000F06D1E768DE
:102DB00017B1A069B84211D801270FE04946204653
:102DC000FFF791FE0646022E02D20120BDE8F087F1
:102DD000A069B04201D93046F8E74F463D4600BFF2
:102DE0006D1CA069A84204D80225BD4201D900206B
:102DF000ECE729462046FFF776FE064606B909E0CD
:102E0000701C08B1012E01D13046DFE7BD42E7D189
:102E10000020DBE700BF6FF0704229462046FFF735
:102E2000D4FE8046B8F1000F08D1B9F1000F05D0EB
:102E30002A4649462046FFF7C8FE8046B8F1000FF3
:102E400009D1E5602069401C68B12069401E2061FD
:102E50000120607107E0B8F1010F02D14FF0FF309F
:102E600000E0012005462846B0E72DE9F041044680
:102E70000E46E680A568012D03D020688069A8422F
:102E800002D80220BDE8F0812DB92068007803281F
:102E900001D12068456A65B9E56020680089B042C3
:102EA00001DC0220EEE72068406A00EB161020618A
:102EB00020E020688078070112E029462068FFF7AB
:102EC00012FE0546681C08B90120DBE7022D03D37A
:102ED00020688069A84201D80220D3E7F01B86B29F
:102EE000BE42EADAE56029462068FFF7EFFD00EB15
:102EF000161020612068303006F00F0100EB411001
:102F000060610020BEE72DE9F0410446884600BF1D
:102F1000E088401C86B20EB1206910B90420BDE8DB
:102F2000F08106F00F0000286FD12069401C20615D
:102F3000E06828B920680089B04266DC0420EEE72A
:102F400020688078401E00EA161000285DD1E168F4
:102F50002068FFF7C8FD0546012D01D80220DEE7F5
:102F6000681C08B90120DAE720688069A84246D8C1
:102F7000B8F1000F01D10420D1E7E1682068FFF724
:102F80000FFF05460DB90720C9E7012D01D1022029
:102F9000C5E7681C08B90120C1E700212068FFF7D8
:102FA000F7FC08B10120BAE7216801F130004FF4C5
:102FB00000720021FFF7C5FC29462068FFF786FD57
:102FC0002168C862002710E00120216808710021F3
:102FD0002068FFF7DDFC08B10120A0E72068C06A87
:102FE000401C2168C862781CC7B220688078B8424B
:102FF000EADC2068C06AC01B2168C86200BFE560C7
:1030000029462068FFF762FD2061E68020683030A5
:1030100006F00F0100EB4110606100207FE710B562
:1030200002468C7ECB7E44EA03201378032B05D125
:103030000C7D4B7D44EA032340EA034010BD8176BA
:103040000B0AC3760A0C02750B0E437570472DE907
:10305000F04705460C46207820F04000401E00EB6B
:10306000800101EBC00600274FF0010800BFFA48BD
:10307000C05D205CF849C95D2144497840EA0129D6
:10308000B8F1000F10D0484602F08DFB8046322E7A
:1030900007D23146761C35F8110002F084FB40451A
:1030A00008D00020BDE8F0874FF6FF70814501D0C1
:1030B0000020F7E7781C07460D28D8D3207800F0C9
:1030C000400038B1B8F1000F04D035F8160008B14F
:1030D0000020E7E70120E5E7F0B50346087800F0B7
:1030E0003F00401E00EB800707EBC00200250126D1
:1030F00000BFD948405D085CD74F7F5D0F447F78A3
:1031000040EA07244EB1322A01D30020F0BD264602
:103110001046521C23F8104005E04FF6FF70844221
:1031200001D00020F2E7681C05460D28E1D308789D
:1031300000F0400030B1322A01D30020E6E7002041
:1031400023F812000120E1E7F0B504461D464D7357
:103150000F27CF7200270F738F76BC4681F81BC0F4
:10316000571E07EB870C0CEBC706002738463B467B
:1031700000BF4FF6FF77B84203D03746761C34F8CD
:103180001700DFF8D4C21CF803C001F80C000712C6
:10319000DFF8C4C21CF803C08C448CF8017008B975
:1031A0004FF6FF705F1C3B460D2FE2D34FF6FF77C3
:1031B000B84202D034F816700FB942F040020A70DB
:1031C000F0BD2DE9FC4780468A4617461C460B2277
:1031D00051464046FFF7A8FB052C0ADD00BF6010F2
:1031E00000EBC43137F8022B881884B238880028E5
:1031F000F5D1072500BF2046E11704EB1171091135
:10320000A4EB0111303101F0FF09B9F1390F03DDF1
:1032100009F1070000F0FF0928466D1E0DF8009027
:103220002046E11704EB1171C1F30F14002CE2D119
:103230007E200DF80500002600E0761CAE4203D289
:1032400018F806002028F8D100BF082D04D228461F
:103250006D1C1DF8000000E020203146761C08F8A7
:103260000100082EF1D3BDE8FC8730B501460020EF
:103270000B2200BF431003EBC01411F8015B63196C
:10328000D8B2531E1A00F5D130BD2DE9F0470446DF
:1032900000212046FFF7E9FD074617B13846BDE893
:1032A000F0874FF0FF09CA4600BF21692068FFF789
:1032B0006FFB074607B154E065692E780EB9042705
:1032C0004FE0E87A00F03F08E52E05D008F008004E
:1032D00028B1B8F10F0F02D04FF0FF093AE0B8F172
:1032E0000F0F1CD1E069A0B306F0400030B195F893
:1032F0000DA026F04006B146E08820844E450AD154
:10330000687B504507D12946E069FFF7A0FE10B160
:10331000A9F1010000E0FF2000F0FF091AE0B9F177
:10332000000F05D12846FFF7A0FF504500D118E057
:103330004FF0FF094FF6FF702084A069C07A00F0BB
:10334000010030B90B222846A169FFF704FB00B940
:1033500007E0FFE700212046FFF7D5FD0746002FD5
:10336000A3D000BF38469AE72DE9F04704464FF056
:10337000FF09CA4604274CE021692068FFF708FBD3
:10338000074607B148E0666935780DB9042743E080
:10339000F07A00F03F08E52D07D02E2D05D008F07B
:1033A000080028B1B8F10F0F02D04FF0FF0929E053
:1033B000B8F10F0F1AD105F0400030B196F80DA00A
:1033C00025F04005A946E08820844D450AD1707B50
:1033D000504507D13146E069FFF77EFE10B1A9F1F3
:1033E000010000E0FF2000F0FF090BE0B9F1000F41
:1033F00004D13046FFF739FF504502D04FF6FF7039
:10340000208409E000212046FFF77DFD074607B133
:1034100002E020690028AFD100BF0FB10020206179
:103420003846BDE8F0872DE9F04F85B00446D4F862
:103430001880D4F81CB00C22414601A8FFF774FA9A
:1034400000BF9DF80F0000F0010040B3002088F895
:103450000B00E06101270FE0621601083B465A4667
:1034600001A94046FFF7ADFE2046FFF70EFF0546D7
:1034700005B103E0781C87B2642FEFDB00BF642F37
:1034800003D1072005B0BDE8F08F042D01D02846F8
:10349000F8E79DF80F0088F80B00C4F81CB09DF801
:1034A0000F0000F0020070B1002601E0701C86B22F
:1034B0003BF816000028F9D106F119000D2190FB08
:1034C000F1F086B200E0012600212046FFF7CDFC96
:1034D00005460DB12846D5E700200746049000BFF9
:1034E00021692068FFF754FA054605B119E06069C3
:1034F00090F80090B9F1E50F02D0B9F1000F08D1B2
:103500000FB9E0880490781C80B20746B04201D120
:1035100007E0002701212046FFF7F5FC0546002DB6
:10352000DED000BF4DBB012E27DD20460499FFF7FA
:103530009CFC05460DBBA069FFF797FE0090701E2E
:1035400086B200BF21692068FFF722FA054605B15F
:1035500012E0F2B26169E069009BFFF7F5FD01201E
:103560002168087100212046FFF7CDFC05461DB9F2
:10357000701E80B20600E5D100BFD5B92169206870
:10358000FFF706FA0546A5B9D4F814A020220021B9
:103590005046FFF7D6F90B225046A169FFF7C4F950
:1035A000A069C07A00F018008AF80C000120216898
:1035B0000871284666E770B50446E688208C4FF609
:1035C000FF72904201D1304600E0208C0146204637
:1035D000FFF74BFC0546E5B900BF21692068FFF7FE
:1035E000D7F9054605B110E0E520616908700120B2
:1035F00021680871E088B04200DB06E00021204627
:10360000FFF781FC0546002DE7D000BF042D00D157
:103610000225284670BD2DE9F34F83B082460498F9
:10362000D0F800B001E00BF1010B9BF800002F284F
:10363000F9D09BF800005C28F5D0DAF81C90002542
:103640002E4600BF3046761C1BF80040202C03DBC2
:103650002F2C01D05C2C00D11CE0322D03D306208E
:1036600005B0BDE8F08FE4B20121204602F078F801
:1036700004460CB90620F3E7802C06DA2146FBA0AD
:10368000FFF77CF908B10620EAE728466D1C29F807
:103690001040D7E700BF0BEB060104980160202C17
:1036A00001DA042000E00020074608E0681E39F82F
:1036B0001040202C02D02E2C00D002E06D1E002DD8
:1036C000F4D100BF0DB90620CAE7002029F8150083
:1036D0000B222021DAF81800FFF733F9002600E06A
:1036E000761C39F816002028FAD039F816002E2852
:1036F000F6D00EB147F0030700E06D1E25B1681E3D
:1037000039F810002E28F8D14FF00008CDF80880C5
:103710000820019000BF3046761C39F8104004B9EB
:1037200055E0202C03D02E2C04D1AE4202D047F01D
:103730000307F0E7DDE90110884201D2AE4216D15D
:1037400001980B2802D147F0030740E0AE4201D0B8
:1037500047F00307AE4200D939E02E460820029018
:103760000B2001904FEA88604FEA1068D3E7802C65
:103770000BDB0021204601F0F3FF04461CB1A4F14D
:103780008000BD490C5C47F0020700BF24B1214610
:10379000BAA0FFF7F3F818B15F2447F003070FE072
:1037A000412C04DB5A2C02DC48F0020808E0612CB2
:1037B00006DB7A2C04DC48F00108A4F1200084B276
:1037C000DAF818300298411C02911C54A3E700BF9C
:1037D000DAF818000078E52803D10520DAF8181087
:1037E00008700198082803D14FEA88604FEA1068F2
:1037F00008F00C000C2803D008F00300032801D1C6
:1038000047F0020707F0020058B908F0030001284A
:1038100001D147F0100708F00C00042801D147F04F
:103820000807DAF81800C772002019E72DE9FC5FD5
:1038300081460E4606F10908D9F81000002851D03B
:10384000D9F81440207B0190002714E0E55D202D7D
:1038500000D112E0052D00D1E525019800F0080007
:1038600030B1412D04DB5A2D02DC05F12000C5B238
:1038700008F8015B7F1C082FE8D300BF207A2028BE
:1038800019D02E2008F8010B082711E0E55D202D46
:1038900000D10FE0019800F0100030B1412D04DBA1
:1038A0005A2D02DC05F12000C5B208F8015B7F1C2F
:1038B0000B2FEBD300BFE07A3072E07F0106A07FD0
:1038C00041EA0041607F41EA0020217F08433060E7
:1038D000217E607E41EA0020B080A17DE07D41EA4A
:1038E0000020F080002088F80000B06980B3F06903
:1038F00070B3B06900900027D9F8100020B3B9F870
:1039000020004FF6FF7188421ED0D9F81CB015E098
:103910000021504601F024FF8246BAF1000F01D188
:10392000002710E000BFF069401EB84201D8002710
:1039300009E038467F1C009901F800A03BF8021B03
:103940005FEA010AE4D100BF00210098C15500BF21
:10395000BDE8FC9F2DE9F3410446019800782F282B
:1039600003D0019800785C2802D10198401C019096
:103970000020A06001980078202807D2002120466E
:10398000FFF773FA05460020606129E000BF01A936
:103990002046FFF740FE054605B120E02046FFF730
:1039A00074FC0546A069C67A45B1042D00D016E026
:1039B00000BF06F0040000B9052510E006F0040081
:1039C00000B10CE06769F87A00F0100008B905252D
:1039D00005E039462068FFF722FBA060D7E700BF6B
:1039E0002846BDE8FC8170B504460D466078012389
:1039F0002A4604F1300101F060FE08B1032070BDD9
:103A000094F82E1294F82F0241EA00204AF655212C
:103A1000884201D00220F2E794F86900010694F888
:103A2000680041EA004194F8670041EA002094F8F8
:103A30006610084320F07F401249884201D10020DF
:103A4000DDE794F88500010694F8840041EA00411E
:103A500094F8830041EA002094F88210084320F093
:103A60007F40084988420FD10020C8E7222A3A3C0B
:103A70003E3F7C7F000000006F1601082B2C3B3D71
:103A80005B5D0000464154000120B8E72DE9F74F87
:103A900088B0089800680190019800783038079045
:103AA000079809280AD8019840783A2806D1019841
:103AB000801C019008990198086001E0002007909F
:103AC000002109980160079818B10B200BB0BDE8E0
:103AD000F08FFE49079851F820400CB90C20F5E70B
:103AE00009980460207878B1607801F0E3FD8046A1
:103AF00008F0010040B90A9820B108F0040008B1AC
:103B00000A20E3E70020E1E70020207007986070BA
:103B1000607801F0C1FD804608F0010008B1032083
:103B2000D4E70A9820B108F0040008B10A20CDE7D4
:103B30004FF0000B59462046FFF755FF054600BFE2
:103B4000012D21D14FF0000ABAF1000F03D0AAF1E4
:103B5000010000F0FF0A4FF4DF7000EB0A1104F1DE
:103B600030000F18387978B1F87A0106B87A41EA4E
:103B70000041787A41EA0020397A40EA010B59463F
:103B80002046FFF730FF0546032D01D101209DE7B8
:103B90000DB10D209AE73B20015D94F83C0041EA0D
:103BA0000020B0F5007F01D00D208FE74620015D99
:103BB00094F8470041EA0029B9F1000F0ED194F8BA
:103BC0005700010694F8560041EA004194F8550068
:103BD00041EA002094F8541040EA0109C4F81C900E
:103BE0004020065DE670012E03D0022E01D00D208C
:103BF0006CE709FB06F93D20005D0646A07016B192
:103C0000701E304008B10D2060E74120015D94F83E
:103C1000420041EA00202081207A00F00F0008B124
:103C20000D2053E74320015D94F8440041EA002051
:103C30000690069870B994F85300010694F8520063
:103C400041EA004194F8510041EA002094F85010F4
:103C5000084306903E20015D94F83F0041EA0020B1
:103C60000290029808B90D2030E702984844218953
:103C700000EB11100590DDE90501814201D20D2014
:103C800024E7DDE90510401AA178B0FBF1F00490BB
:103C9000049808B90D2019E7012540F6F67104983B
:103CA000884200D302254FF6F6710498884200D36B
:103CB00003250498801CA06105985844A0620298CE
:103CC00058442062032D16D1208908B10D20FDE64D
:103CD00094F85F00010694F85E0041EA004194F810
:103CE0005D0041EA002094F85C1008436062A0691E
:103CF0008000039014E0208908B90D20E6E6206AD0
:103D000048446062022D02D1A069400007E0207E95
:103D100000F00100A16901EB410100EB51000390AB
:103D2000E169039800F2FF10B1EB502F01D20D2092
:103D3000CCE64FF0FF3020610020E060032D5CD125
:103D4000607194F8601094F8610041EA00205844D2
:103D500060616078012304F13001626901F0ADFC1B
:103D6000F0BB94F82E1294F82F0241EA00204AF694
:103D70005521884241D13320005D01063220005D8B
:103D800041EA00413120005D41EA002094F8301002
:103D900008434F49884230D194F81702010694F83D
:103DA000160241EA004194F8150241EA002094F815
:103DB00014120843474988421FD194F81F02010694
:103DC00094F81E0241EA004194F81D0241EA0020E5
:103DD00094F81C120843E06094F81B02010600E00E
:103DE0000BE094F81A0241EA004194F8190241EA02
:103DF000002094F818120843206125703648008886
:103E0000401C80B234490880E0800020E0622071CC
:103E100000BF5BE670B505462C46206838B12068C7
:103E2000007820B12068C088A188884201D009208C
:103E300070BD2168487801F03DFC00F0010008B138
:103E40000320F5E70020F3E70246012A01DB0B20FF
:103E500070471E4850F822300BB10020187009B18D
:103E600000200870194840F822100020F0E72DE9E2
:103E7000F7438CB0054616461DB909200FB0BDE8C2
:103E8000F0830020286006F01F0626F0010203A937
:103E90000DA8FFF7FBFD0746002F74D1CDF824D005
:103EA0000E480A9003A80D99FFF754FD0746089C99
:103EB0000FB904B9062706F01C0000285CD0A7B192
:103EC000042F0ED103A8FFF7AEFA09E01C01002071
:103ED000525261417272416120010020C8330020BA
:103EE000074646F00806089C09E0E07A00F0110059
:103EF00008B1072703E006F0040000B10827002FEF
:103F000039D106F00800002835D001F025FC8046A4
:103F100084F80E804FEA1821E1734FEA18412174AA
:103F20004FEA186161740020E07220770021617708
:103F3000A177E17721460398FFF771F881460021C8
:103F40002046FFF77CF8012003990871B9F1000FB2
:103F500011D00398D0F82C8049460398FEF7D0FE84
:103F6000074647B9A9F101000399C8604146039883
:103F7000FEF70EFD07460FE077B9E07A00F010007B
:103F800010B1042708E02BE006F0020020B1E07A2F
:103F900000F0010000B1072747B906F0080008B19A
:103FA00046F020060398C06AE8612C62C7B9AE717A
:103FB00021460398FFF733F82861E07F0106A07FD0
:103FC00041EA0041607F41EA0020217F0843E86028
:103FD0000020A860A861039828600398C088A88082
:103FE00038464BE72DE9FF4F83B0044615469A4605
:103FF000DDF810B00020CAF800002046FFF70AFFE5
:104000000290029818B1029807B0BDE8F08FA0792D
:1040100000F0800008B10220F6E7A07900F001006E
:1040200008B90720F0E7D4E90210401A0090009880
:10403000854200D9009DB5E02089C0F30800002822
:104040007ED120688078401EA16800EA512000F0EF
:10405000FF09B9F1000F1DD1A06810B920690190C6
:1040600004E061692068FEF73EFD01900198022896
:1040700005D2A07940F08000A0710220C4E7019829
:10408000401C28B9A07940F08000A0710120BBE756
:104090000198606161692068FEF718FD06462EB937
:1040A000A07940F08000A0710220ADE74E444FEAB5
:1040B0005528B8F1000F2DD009EB08002168897848
:1040C000884203D920688078A0EB090808F0FF0334
:1040D000216848783246594601F0EFFA28B1A079B4
:1040E00040F08000A07101208EE7A07900F0400030
:1040F00068B1A069801B404509D2A169891B0BEBFF
:1041000041204FF4007204F12401FEF70DFC4FEA48
:1041100048273DE0A069B04226D0A07900F04000D9
:1041200098B121684878012304F12401A26901F0C3
:10413000DFFA30B1A07940F08000A071012063E780
:1041400013E0A07920F04000A07121684878012395
:10415000324604F1240101F0B0FA28B1A07940F010
:104160008000A07101204FE7A6612089C0F30800FC
:10417000C0F50077AF4200D92F462089C0F308026E
:1041800004F1240011183A465846FEF7CDFB00BF53
:10419000BB44A0683844A060DAF800003844CAF88C
:1041A0000000ED1B002D7FF447AF00202CE72DE928
:1041B000FF4F83B0044615469B46049801900020AB
:1041C000CBF800002046FFF725FE0290029818B1B8
:1041D000029807B0BDE8F08FA07900F0800008B128
:1041E0000220F6E7A07900F0020008B90720F0E706
:1041F000E0682844E168884200D20025CDE02089AB
:10420000C0F30800002877D120688078401EA1689C
:1042100000EA512000F0FF0ABAF1000F2AD1A0688D
:1042200058B9D4F81080B8F1000F0BD100212068E4
:10423000FEF7B6FD8046206104E061692068FEF764
:10424000AFFD8046B8F1000F00D1A9E0B8F1010F31
:1042500005D1A07940F08000A0710220B9E708F1F3
:10426000010028B9A07940F08000A0710120B0E7DA
:10427000C4F81480A07900F0400090B1216848781B
:10428000012304F12401A26901F032FA28B1A079D6
:1042900040F08000A07101209BE7A07920F0400051
:1042A000A07161692068FEF711FC06462EB9A0795D
:1042B00040F08000A07102208BE756444FEA552958
:1042C000B9F1000F2FD00AEB0900216889788842E4
:1042D00003D920688078A0EB0A0909F0FF03216860
:1042E00048783246019901F003FA30B1A07940F0E4
:1042F0008000A07101206CE72CE0A069801B48457C
:104300000ED2A069801B019A02EB40214FF400728B
:1043100004F12400FEF708FBA07920F04000A07112
:104320004FEA49272DE0A069B04212D0D4E902013A
:1043300088420ED2216848780123324604F12401D4
:1043400001F0BBF928B1A07940F08000A0710120F4
:104350003FE7A6612089C0F30800C0F50077AF42AF
:1043600000D92F462189C1F3080204F12401501815
:104370003A460199FEF7D8FAA07940F04000A071C2
:1043800000BF019838440190A0683844A060DBF871
:1043900000003844CBF80000ED1B002D7FF42FAF58
:1043A00000BFD4E90201884201D9A068E060A07989
:1043B00040F02000A07100200BE72DE9F0410446F9
:1043C0002046FFF727FD0746002F4CD1A07900F0CB
:1043D0002000002847D0A07900F0400078B1216883
:1043E0004878012304F12401A26901F081F910B198
:1043F0000120BDE8F081A07920F04000A071E169C2
:104400002068FEF7C5FA0746002F2CD1256AE87A06
:1044100040F02000E872207B2877A089010A6977A4
:10442000E068010CA977E068010EE9772846216968
:10443000FEF705FE01F090F90646AE75310AE97502
:10444000310C2976310E69760020A8740021E974B8
:10445000A07920F02000A071012021680871206857
:10446000FEF7CFFA07463846C3E770B50446204644
:10447000FFF7A3FF05460DB900202060284670BD58
:104480002DE9F04704460E462046FFF7C3FC82465E
:10449000BAF1000F02D05046BDE8F087A07900F0D5
:1044A000800008B10220F7E7E068B04204D2A079AA
:1044B00000F0020000B9E668D4F808904FF0000858
:1044C000C4F80880002E77D0206880784702B9F1C0
:1044D000000F11D0701EB0FBF7F1A9F10100B0FB85
:1044E000F7F0814208D3A9F10100791E8843A0604A
:1044F000A068361A656918E02569ADB90021206801
:10450000FEF74EFC0546012D05D1A07940F0800054
:10451000A0710220C0E7681C28B9A07940F0800093
:10452000A0710120B8E725616561002D44D029E024
:10453000A07900F0020038B129462068FEF730FC6F
:10454000054635B93E461FE029462068FEF7CBFAFE
:104550000546681C28B9A07940F08000A0710120B0
:104560009AE7012D03D920688069A84205D8A0796F
:1045700040F08000A07102208EE76561A068384499
:10458000A060F61BBE42D3D800BFA0683044A06034
:10459000C6F3080068B129462068FEF797FA8046FE
:1045A000B8F1000F06D1A07940F08000A071022080
:1045B00072E701E008EB56282089C0F3080050B3E9
:1045C000A069404527D0A07900F0400090B1216853
:1045D0004878012304F12401A26901F089F828B187
:1045E000A07940F08000A071012055E7A07920F06B
:1045F0004000A071216848780123424604F124015B
:1046000001F05BF828B1A07940F08000A071012092
:1046100042E7C4F81880D4E90201884205D9A068AD
:10462000E060A07940F02000A071504634E773B5F7
:1046300084B0044614B9092006B070BD002221469A
:1046400005A8FFF723FA0546266835BB01A8A06137
:10465000FE48E06120460599FFF77CF90546ADB9B3
:10466000606958B16069C07A00F0100028B1304626
:104670006169FEF7D4FCA06000E0052535B9F0883B
:10468000A08000212046FEF7F0FB0546042D00D156
:10469000052525B10020206001E00020206028468B
:1046A000CAE7FEB504460E462046FFF7B3FB0546B3
:1046B00015BB2EB900212046FEF7D7FB05461BE0AF
:1046C000C4F818D0E148E0612046FEF74DFE0546EB
:1046D000042D02D10020206100256DB9314620460D
:1046E000FFF7A4F800212046FEF70DFC0546042D37
:1046F00002D10020206100252846FEBD33B58DB0D3
:104700000D46002204A90DA8FFF7C0F904468CB994
:1047100001A80A90CD480B9004A80D99FFF71AF94B
:1047200004463CB9099820B1294604A8FFF77EF851
:1047300000E0062420460FB030BD2DE9F74F82B0CF
:104740008B46002202A80499FFF7A0F90190049873
:104750000468019800286ED1A069801E21698142F9
:1047600003D82069CBF8000065E094F800A000268B
:10477000BAF1010F1CD1022700BF39462046FEF7CF
:10478000B2F9804608F1010010B9012001900EE055
:10479000B8F1010F02D10220019008E0B8F1000F3A
:1047A00000D1761C781C0746A1698842E5D33AE01F
:1047B000A769206A00904FF00009002500BFB9F1F9
:1047C000000F0ED10098421C014620460092FEF7D1
:1047D000DFF80190019800B124E004F130054FF4B6
:1047E0000079BAF1020F09D12878697840EA0120EE
:1047F00000B9761CAD1CA9F1020910E0E8780006AA
:10480000A97840EA0140697840EA01202978084304
:1048100020F0704000B9761C2D1DA9F10409781E06
:104820000700CCD100BF2661BAF1030F01D10120EE
:104830006071CBF80060019805B0BDE8F08F70B5ED
:1048400004460CB9092070BD2046FFF7E3FA05467F
:1048500055B9A07900F0800008B1022504E0A079E4
:1048600000F0020000B90725002D36D1D4E902106E
:1048700088422DD9A068E060A07940F02000A071A6
:10488000A06838B921692068FEF73AFA0546002089
:1048900020611DE061692068FEF725F906460025C4
:1048A000701C00B90125012E00D1022585B92068B0
:1048B0008069B0420CD96FF0704261692068FEF7E0
:1048C00084F9054625B931462068FEF719FA0546F0
:1048D0001DB1A07940F08000A0712846B3E771B502
:1048E00095B001220CA915A8FFF7D0F80446002CBA
:1048F00048D1CDF848D0554813900CA81599FFF72A
:1049000029F8044600BF002C3CD1119E0EB90624A4
:1049100004E0F07A00F0010000B1072431460C9861
:10492000FEF77DFB0546E4B9F07A00F01000C0B157
:10493000022D01D2022414E024220CA903A8FDF7C1
:10494000F3FF0595022103A8FEF78FFA044644B948
:1049500003A8FEF709FD044604B90724042C00D17E
:1049600000247CB90CA8FEF726FE044654B925B1F4
:1049700029460C98FEF7C4F904461CB90C98FEF7BA
:1049800040F80446204616B070BD2DE9F1478DB0C1
:1049900000F0E2FE0646012204A90DA8FFF776F812
:1049A0000546002D74D101A80A9028480B9004A850
:1049B0000D99FEF7CFFF054605B9082500BF042D68
:1049C000F0D100210498FEF7EBF90746002507B95E
:1049D0000725012F00D10225781C00B9012525B932
:1049E00000210498FDF7D4FF0546002D5FD139461C
:1049F0000498FEF76BF88146049800F130044FF4F8
:104A0000007200212046FDF79CFF0B22202120464A
:104A1000FDF797FF2E2020701020E072A675310A56
:104A2000E175310C2176310E617639462046FEF76C
:104A300006FB2022214604F12000FDF775FF2E2001
:104A400084F82100DDF818A0049801E0C8330020A4
:104A50000078032804D10498406A504500D1AA4642
:104A6000514604F12000FEF7EAFA049890F802801B
:104A700019E00498C0F82C9009F10109012004996B
:104A8000087100210498FDF783FF05460DB10DE084
:104A90002DE04FF4007200212046FDF752FFA8F1EF
:104AA000010000F0FF08B8F1000FE2D100BF1DB90E
:104AB00004A8FEF7B8FC054625B139460498FEF770
:104AC0001FF914E0099C1020E072A675310AE17507
:104AD000310C2176310E617639462046FEF7AFFA69
:104AE0000120049908710498FDF78BFF05462846BC
:104AF0000EB0BDE8F087F7B58CB00F461446012222
:104B000003A90CA8FEF7C2FF0646EEB9CDF824D0E3
:104B1000FE480A9003A80C99FEF71CFF064600BF4A
:104B200096B9089D0DB906260EE004F0270407EAA1
:104B30000400E97AA1430843E8720120039908714F
:104B40000398FDF75EFF064630460FB0F0BD73B523
:104B50008CB00D46012203A90CA8FEF797FF06466C
:104B6000FEB9CDF824D0E9480A9003A80C99FEF7C5
:104B7000F1FE064600BFA6B9089C0CB9062610E057
:104B8000A879A075E8880112E17528792076A888AF
:104B9000011261760120039908710398FDF731FF36
:104BA000064630460EB070BD2DE9F3419CB00F466D
:104BB000012213A91CA8FEF769FF0446002C7BD133
:104BC00013980A9001A81990D0481A9013A81C991C
:104BD000FEF7C0FE044600BF002C6DD1189808B93E
:104BE000042469E0189800F10B01152204A8FDF7D0
:104BF0009BFE242213A90AA8FDF796FE39460AA8AF
:104C0000FEF7A8FE044604B90824042C54D10AA8CF
:104C1000FEF709FC0446002C4ED10F9D13220DF126
:104C2000120105F10D00FDF77FFE9DF8100040F028
:104C30002000E8720120139908710C991598884298
:104C400030D0E87A00F0100060B329461398FEF7E0
:104C5000E6F9804641461398FDF738FF06460EB93F
:104C600002241FE031461398FDF792FE0446139884
:104C700000F15005B4B968782E2813D11398007844
:104C8000032806D113990C98496A884201D1002063
:104C900000E00C98064631462846FEF7D0F9012080
:104CA0001399087144B913A8FEF785FC04461CB992
:104CB0001398FDF7A6FE044620461EB0BDE8F0811D
:104CC0002DE9F74F90B090461098012803DB0B2098
:104CD00013B0BDE8F08F1198012801DD1320F7E72C
:104CE000A8F1010000EA080008B11320F0E78849A4
:104CF000109851F820B0BBF1000F01D10C20E7E76C
:104D000000208BF8000010980D9000200C900D985A
:104D100000F0C2FC0290029800F0010008B10320EC
:104D2000D6E7029800F0040008B10A20D0E700BFDF
:104D300005AA01210D9800F0F6FC10B9059880280D
:104D400001D20120C4E7119808B1002000E03F2003
:104D500081460598A0EB09000590B8F1000F13D12A
:104D60004FF4FA610598B0FBF1F00B904FF0000A98
:104D700001E00AF1010A674830F81A100B988142E5
:104D8000F7D8654830F81A804FEA5828B8F1000F74
:104D900001D14FF00108B8F1800F01D94FF0800820
:104DA0000598B0FBF8F6012540F6F670864200D370
:104DB00002254FF6F670864200D30325032D0AD153
:104DC000082000EB860000F2FF10470A2020049024
:104DD0000020039011E0012D05D106EB4600401C98
:104DE0004008C01C01E07000001D074607F2FF10DC
:104DF000470A01200490202003900498484408901A
:104E00000898384407900399079808440690069834
:104E10004044A0EB09000599884201D90E2057E7CC
:104E20000AAA03210D9800F07EFC28B90A9818B14F
:104E30000A98B0F5004F01D901200A900A99069806
:104E40000844401E491E88430A900A990698081A89
:104E50000A90032D08D10A990498084404900A99ED
:104E600008980844089001E00A980744DDE9040125
:104E7000081AC11B0398081AB0FBF8F6022D03D1DB
:104E800040F6F670864205D3032D05D14FF6F67035
:104E9000864201D20E201BE7012D02D0022D0CD13B
:104EA00002E001200E900BE00598B0F5803F01D2A2
:104EB000042000E006200E9002E00C200E9000BFBF
:104EC00000BF00BF119810B1F0200F904EE04FF4DA
:104ED000007200210BF13000FDF733FD0BF5F77484
:104EE00001206070A0700020E0700E982071FE20FC
:104EF0006071059848443F21B0FBF1F0FF21B0FB01
:104F0000F1F00A903F210A9808E00000C833002021
:104F10001C010020F01601080617010841EA900064
:104F2000A0710A98E0713F20207200216172A17285
:104F3000E172059820730598010A61730598010CC8
:104F4000A1730598010EE17355218BF82E12AA2149
:104F50008BF82F12012300220BF130010D9800F085
:104F6000C7FB08B10120B3E6F8200F900BF1300425
:104F70004FF4007200212046FDF7E3FC0B22FAA15A
:104F80002046FDF7D1FC4FF4007A84F80BA04FEADD
:104F90001A21217384F80D800498A0730498010AE3
:104FA000E17301202074032D01D1002001E04FF4B2
:104FB0000070824684F811A04FEA1A21A174059866
:104FC000B0F5803F05D20598E0740598010A217577
:104FD00010E0059884F820000598C0F307212120EF
:104FE00001550598C0F30741222001550598010E8F
:104FF000232001550F9860753F20207600216176AF
:10500000FF20A076E17684F81C904FEA19216177A1
:105010004FEA1941A1774FEA1961E17700F09CFB53
:105020000A90032D3ED10A9884F843000A98C0F3F1
:105030000721442001550A98C0F307414520015536
:105040000A98010E4620015584F82470C7F3072101
:1050500025200155C7F3074126200155390E272089
:105060000155022084F82C0000212D2001552E200E
:1050700001552F200155012084F8300031200155C1
:10508000062084F8320033200155802084F8400047
:10509000292084F842001322B6A104F14700FDF74D
:1050A00043FC1FE00A9884F827000A98C0F3072100
:1050B000282001550A98C0F30741292001550A9874
:1050C000010E2A200155A775390AE175802084F860
:1050D0002400292084F826001322ABA104F12B0020
:1050E000FDF722FC552084F8FE01AA2140F2FF10B2
:1050F000015501234A4621460D9800F0F9FA08B1FE
:105100000120E5E5032D06D1012309F10602214620
:105110000D9800F0EDFA089809904FF0000A61E050
:105120004FF4007200212046FDF70BFC0F980A9007
:10513000032D14D0012D01D1984801E06FF0FF003C
:105140000A9908430A900A9820700A98000A607029
:105150000A98000CA0700A98000EE07019E00A98F6
:1051600060F0FF000A900A9820700A98000A6070A8
:105170000A98000CA0700A98000EE070FF202071C1
:10518000FF216171A171E17120726172A1720F2121
:10519000E1720998411C02460123099121460D98AC
:1051A00000F0A6FA08B1012092E54FF40072002148
:1051B0002046FDF7C6FB01200A900EE00998411C2D
:1051C00002460123099121460D9800F091FA08B199
:1051D00001207DE50A98401C0A900A98B842EDD358
:1051E0000AF1010ABAF1000F9AD0032D01D140460D
:1051F00000E00398824600BF0998411C0246012343
:10520000099121460D9800F073FA08B101205FE57D
:10521000AAF101005FEA000AEED109980090032D7F
:1052200001D1012000E00020311A099801FB08009B
:10523000401E01906A4604210D9800F074FA032D77
:1052400046D15220207060706120A0704120E07033
:10525000722084F8E401722140F2E51001554121E9
:10526000401C01556121401C0155701E84F8E80165
:10527000C0F3072140F2E9100155701EC0F3074149
:105280004FF4F5700155701E010E40F2EB10015500
:10529000022084F8EC01002140F2ED100155401C81
:1052A0000155401C0155552084F8FE01AA2140F209
:1052B000FF100155012309F1010221460D9800F06C
:1052C00017FA012309F1070221460D9800F010FAA0
:1052D000002211460D9800F026FA08B10120F7E4EB
:1052E0000020F5E42DE9FC47074688469146002555
:1052F0003E4615E06B46012201A94846FEF772FEC4
:105300000098012800D00FE09DF804400D2C00D13A
:1053100006E006F8014B6D1C0A2C00D104E000BF2A
:10532000A8F10100A842E5DC00BF0020307015B1F3
:105330003846BDE8FC870020FBE77CB504460E46F6
:105340000A2C03D131460D20FFF7F7FF8DF80040FE
:10535000012501AB2A4669463046FEF728FF019831
:10536000A8421DD17CBD0000EBFE904D53444F532D
:10537000352E30004E4F204E414D452020202046F6
:1053800041543332202020004E4F204E414D4520C5
:1053900020202046415420202020200000FFFF0034
:1053A0004FF0FF307CBD70B504460E4600250AE084
:1053B00020783146FFF7C1FF401C10B94FF0FF3095
:1053C00070BD641C6D1C20780028F1D12846F7E7D9
:1053D0000FB42DE9F04F89B014A808900020814641
:1053E000019040E1139810F8014B139004B93FE18C
:1053F000252C0AD020461299FFF79FFF814609F11C
:10540000010008B14FF001092AE10020064682465A
:10541000139810F8014B1390302C05D101261398E6
:1054200010F8014B139006E02D2C04D1022613989E
:1054300010F8014B139009E00AEB8A0004EB4000DE
:10544000A0F1300A139810F8014B1390302C01DBB7
:10545000392CF1DD6C2C01D04C2C05D146F0040622
:10546000139810F8014B139004B901E12546612D02
:1054700004DB7A2D02DCA5F12000C5B24F2D59D0F6
:1054800006DC422D53D0432D47D0442D5CD154E04F
:10549000532D04D0552D51D0582D55D151E0089899
:1054A000006802900898001D08904FF0000801E085
:1054B00008F10108029810F808000028F8D10090BF
:1054C00006F0020068B907E020201299FFF735FFC7
:1054D0008146009908440090404608F10108504573
:1054E000F2D312990298FFF75EFF814600990844B3
:1054F000009007E020201299FFF71FFF81460099D6
:1055000008440090404608F101085045F2D309F1E3
:10551000010008B1DDF80090A2E0089911F8042B11
:10552000D0B208911299FFF708FF814698E0022057
:1055300007900FE0082007900CE000BF0A200790BA
:1055400008E01020079005E020461299FFF7F5FECD
:10555000814685E000BF06F0040028B10898006885
:105560000899091D08910CE0442D05D108980068A0
:105570000899091D089104E0089800680899091D18
:1055800008918346442D06D10BF0004018B1CBF1B1
:10559000000B46F00806002700BF0798BBFBF0F1A0
:1055A00000FB11B0C5B20798BBFBF0FB092D06DD6F
:1055B000782C01D1272000E007202844C5B205F14E
:1055C0003000C2B238467F1C03A90A54BBF1000F59
:1055D00001D0102FE1D306F0080020B12D2238466B
:1055E0007F1C03A90A54B84606F0010008B1302018
:1055F00000E0202005460020019007E0284612998F
:10560000FFF79BFE814601990844019006F00200D5
:1056100020B9404608F101085045EFD300BF791E7C
:105620000F4603AA505C1299FFF787FE8146019945
:1056300008440190002FF2D107E020201299FFF7D3
:105640007CFE8146019908440190404608F101081A
:105650005045F2D309F1010008B1DDF8049000BF14
:1056600001984844019009F1010000287FF4BAAE86
:1056700000BF0020089009F1010028B9484609B090
:10568000BDE8F00F5DF814FB0198F8E710B50024B1
:10569000FCF73EFF204610BD70B504460CB1012555
:1056A00006E0FFF7F3FF08B1012000E00020054607
:1056B000284670BD0146002070472DE9F041804624
:1056C0000E4614461F46FBF7E8FCC22802D0012014
:1056D000BDE8F081002507E031462046FBF7CAFD12
:1056E000641C06F500766D1CBD42F5D30020EFE783
:1056F0002DE9F04180460E4614461F46FBF7CDFCCF
:10570000C22802D00120BDE8F081002507E0314623
:105710002046FBF782FD641C06F500766D1CBD4239
:10572000F5DB0020EFE710B50346002021B1012989
:1057300009D002290CD101E000200BE04FF40074E5
:105740001460002006E04BF678741460002001E03D
:10575000042000BF00BF10BD004870472A008246E9
:1057600010B50246802A01DA10461BE051B1FF2A2B
:1057700001DD002304E0A2F18003164C34F813305D
:1057800018460FE0002007E0124B33F81030934228
:1057900000D103E0431C98B28028F5DB00BF00F184
:1057A0008003D8B210BD0246002100E0491C0A481F
:1057B00030F8110020B1084830F811009042F5D1BE
:1057C000054830F8110018B1044830F8110070474E
:1057D0001046FCE71C1701081C180108FC190108F9
:1057E00031490143314A1160704770B500210023EF
:1057F0000F22C47804B32D4C246804F4E064C4F58B
:10580000E064210AC1F10403CA40447804FA03F1B8
:105810008478144021430901254C0678A155047869
:1058200004F01F050124AC4005786D11AD0005F1B1
:10583000E025C5F8004109E0047804F01F050124C3
:10584000AC401C4D0678761145F8264070BD1A4ACA
:105850000A400243154B1B1F1A60704739B1134AA7
:10586000121D12680243114B1B1D1A6006E00F4AFD
:10587000121D126882430D4B1B1D1A6070470428CD
:1058800008D14FF0E021096941F004014FF0E02216
:10589000116107E04FF0E021096921F004014FF0A8
:1058A000E0221161704700000000FA050CED00E0F5
:1058B00000E400E080E100E080FFFF1F10B5012060
:1058C00001F0AAF8002001F0A7F810BD2A490860ED
:1058D00070472949091F08607047274984310860CB
:1058E000704701460020254A10884FF67F4210403D
:1058F0000843224A10807047014600201F4A108842
:105900004FF68072104008431C4A1080704708B55B
:1059100000220092194A2C3A0092009A0244009206
:10592000009A116008BD08B5014600200090134898
:105930002C3800900098084400900098008808BD1A
:105940000D489C300068C0B270470C480830008891
:1059500040F0010009490831088070470648A0302E
:105960000068C0B2704705480830008840F0020067
:10597000024908310880704704860D422C6C0040B3
:1059800001684FF6FE721140016000210160416024
:105990008160C1608D49884208D18C4908394968C5
:1059A00041F00F01894A083A51608AE08749143171
:1059B000884208D185490839496841F0F001834A95
:1059C000083A51607DE081492831884208D17F49F9
:1059D0000839496841F470617C4A083A516070E0C6
:1059E0007A493C31884208D178490839496841F4FC
:1059F0007041764A083A516063E0744950318842F8
:105A000008D172490839496841F470216F4A083A4F
:105A1000516056E06D496431884208D16B490839BC
:105A2000496841F47001694A083A516049E06749A0
:105A30007831884208D165490839496841F0706178
:105A4000624A083A51603CE06149884206D1011F30
:105A5000096841F00F01021F116032E05C49143106
:105A6000884208D15A49091F096841F0F001584A93
:105A7000121F116025E056492831884208D1544947
:105A8000091F096841F47061514A121F116018E042
:105A90004F493C31884208D14D49091F096841F4FA
:105AA00070414B4A121F11600BE049495031884246
:105AB00007D14749091F096841F47021444A121F60
:105AC0001160704710B50022026847F6F0739A43E0
:105AD0000C6A8B6823430C6923434C6923438C690C
