:020000040800F2
:10000000880C002035020008A91F0008171A0008F4
:10001000A51F0008D71800080F28000800000000DE
:10002000000000000000000000000000492300085C
:10003000DB18000800000000312000085D240008E3
:100040004F0200084F0200084F0200084F0200084C
:100050004F0200084F0200084F0200084F0200083C
:100060004F0200084F0200084F0200084F0200082C
:100070004F0200084F0200084F0200084F0200081C
:100080004F0200084F0200084F0200084F0200080C
:100090004F0200084F0200084F0200084F020008FC
:1000A0004F0200084F0200084F0200084F020008EC
:1000B0004F0200084F0200084F0200084F020008DC
:1000C0004F0200084F0200084F0200084F020008CC
:1000D0004F020008C1240008492500084F0200080B
:1000E0004F0200084F0200084F02000800F002F81B
:1000F00000F090F80AA090E8000C82448344AAF132
:100100000107DA4501D100F085F8AFF2090EBAE82F
:100110000F0013F0010F18BFFB1A43F0010318473B
:100120001C5300003C530000103A24BF78C878C12B
:10013000FAD8520724BF30C830C144BF04680C60ED
:10014000704700000023002400250026103A28BF35
:1001500078C1FBD8520728BF30C148BF0B60704739
:100160006E2900F03383702900F04981662902F07E
:10017000D986652902F0D686672902F0D3866129DF
:10018000AFF3008003681B0A28BF41F08001692992
:1001900000F0BA80642900F0B780752900F0B480BF
:1001A0006F2900F02B84782900F01581E92900F0EF
:1001B000C583E42900F0C283F52900F0BF83EF294D
:1001C00000F02884F82900F014810368DB0928BFB7
:1001D00041F08001632900F03483732900F03983F2
:1001E000E32900F0A486F32900F0A98600207047D7
:1001F0001FB500F0F9FE04000020002102F07CFE93
:10020000401C60600020002102F060FEE0601FBD25
:1002100010B510BD00F0BBFE1146FFF7E9FF02F07C
:10022000E5FB00F093FF03B4FFF7F2FF03BC02F01D
:1002300084FB00000948804709480047FEE7FEE7C5
:10024000FEE7FEE7FEE7FEE7FEE7FEE7FEE7FEE786
:1002500004480549054A064B704700006124000820
:10026000ED00000888060020880C00208808002087
:1002700088080020704700001CB50C46064B7B44E4
:1002800069460090204600F0BAFA0446002069460C
:1002900000F0C8FA20461CBDA30500000FB40449B5
:1002A00010B503AA029800F0D9FA10BC5DF814FB4F
:1002B0008C00002070B50C460546012A05D0287830
:1002C000800600D5EA69002302E0012305E05B1CFB
:1002D000934202D2E05C0028F9D1A869E618C01A5E
:1002E000A861286A18442862284600F0DDF904E075
:1002F000D5E9012114F8010B9047B442F8D3284600
:1003000000F0E8F970BD00002DE9F0410646002438
:1003100010687529314616A510D000F0ECF90028B8
:1003200002DA404213A507E031688A0701D512A519
:1003300002E0490704D511A5012401E000F0E4F929
:1003400000210A2206F1240709E0B0FBF2FCB0FB11
:10035000F2F302FB1C00303078541846491C002888
:10036000F3D123462A463046BDE8F04100F0D5B926
:10037000000000002D0000002B0000002000000005
:10038000F0B40D460188090502D5214C7C4402E0F9
:100390001F4C7C440E34002100F1240608E002F0DA
:1003A0000F071209E75D42EA03721B097754491CE3
:1003B00052EA0307F3D102780023120704D5702D07
:1003C00006D009B1022311342246F0BC00F0A5B9D1
:1003D00001231034F8E770B504460D462146106835
:1003E00000F092F9024629462046BDE870400023FD
:1003F000C6E7D21D22F00703D3E90023C0E7036854
:10040000126843F0200303600823C3610023B7E7A9
:10041000D74F00002DE9F05F894604464FF0000AEF
:10042000DFF874B1FB44C0F820A02046E16888479B
:10043000002874D0252806D0D4E901219047206AED
:10044000401C2062F1E700265F462046E1688847AD
:100450002028054607DB312D05D2781910F8200C2D
:1004600008B10643F1E7B00701D526F00406C4F849
:100470001CA00027C4F818A02A2D09D0284602F095
:1004800055FA38B304EB8708303DC8F8185019E026
:1004900059F8041B204604EB87029161E168884704
:1004A000012F054618D1E069002820DA26F0200641
:1004B0001DE0D8F8180000EB800005EB4000303854
:1004C000C8F818002046E1688847054602F02EFA71
:1004D0000028EED1012F0AD02E2D08D12046E16848
:1004E00088477F1C0546022F46F02006C4DBA06922
:1004F000002803DA404246F00106A061F00701D06F
:1005000026F010066C2D0BD0682D09D04C2D39D05B
:100510006A2D35D0742D35D07A2D33D016E038E0E1
:10052000E1682F4620468847B842054609D16C2F1E
:1005300026D04FF48060E168064320468847054690
:1005400004E06C2F1AD04FF4807006430DB3A5F170
:100550004100192802D8203546F400664A4629464B
:10056000204626604E46FFF7FBFD80B101280BD0E8
:10057000F61D26F0070000F1080956E74020E4E7E1
:100580008020D8E70020D6E706F104094DE7284689
:1005900052E7206ABDE8F09F674F000010B5431C8A
:1005A00002E010F8011B71B18107FAD14FF001325E
:1005B00002C88C1A8C4314EAC211F9D0C01A0A0678
:1005C00003D0C01E10BDC01A10BD0A0401D0801E89
:1005D00010BD0902FCD0401E10BD4FF000020429DE
:1005E000C0F0128010F0030C00F02082CCF1040C5B
:1005F000BCF1020F18BF00F8012BA8BF20F8022B96
:10060000A1EB0C0100F012BA5FEAC17C24BF00F834
:10061000012B00F8012B48BF00F8012B70470000A8
:100620004FF0013C50F8042B51F8043B9A4221D181
:10063000A2EB0C03934313EACC1317D150F8042B0D
:1006400051F8043B9A4215D1A2EB0C03934313EAF1
:10065000CC130BD150F8042B51F8043B9A4209D12A
:10066000A2EB0C03934313EACC13DBD04FF0000052
:10067000704700BFD01A01BAB1FA81F101F0180138
:1006800022FA01F0CB40C1F12001DBB2C0B2C01AA6
:100690002CFA01F3D11A914311EAC311E6D1704744
:1006A000704770477047704770B5044685690068A9
:1006B000C10601D5302600E02026C00707D070BD56
:1006C000D4E9012130469047206A401C20626D1E0B
:1006D000F6D570BD70B5044685690078C00707D1AE
:1006E00070BDD4E9012120209047206A401C20627F
:1006F0006D1EF6D570BD09684A0501D540B2704738
:10070000C905FCD500B2704709684A0501D5C0B2D9
:100710007047C905FCD580B270472DE9F0470D46FA
:1007200099469246044600F124080168880604D5DB
:10073000E06921F01001216000E00120A84201DD04
:10074000471B00E00027A1697A1902EB0900081A8B
:10075000A0612078C00602D42046FFF7A5FF00263E
:1007600008E0D4E901211AF806009047206A401CED
:10077000761C20624E45F4DB2078C0060AD5204660
:10078000FFF792FF06E0D4E9012130209047206A6C
:10079000401C2062381EA7F10107F4DC07E0D4E911
:1007A000012118F805009047206A401C2062281E8D
:1007B000A5F10105F3DC2046FFF78CFF2078000649
:1007C00002D50220BDE8F0870120FBE7116802682E
:1007D000006A530501D508700AE0D30501D50880E9
:1007E00006E0130603D5C217C1E9000200E0086065
:1007F0000120704701694A1C02610878704700B502
:100800008FB0CDE901310021059105497944CDE949
:10081000031011466846FFF7FDFD0FB000BD000054
:10082000E5FFFFFF0A6802F8010B0A60704710B588
:10083000436913B1AFF3008001E0FFF73BFD0120F6
:1008400010BD127800F124010A7000224A700122C2
:10085000EDE711684FF0FF32E9E70000074B70B594
:100860000D467B44FFF7CBFF0446284600F06BFBA8
:1008700010B14FF0FF3070BD204670BD6B210000FD
:100880002DE9FF5F15468A460446DFF8AC80F84440
:100890000027D8E900103E46CDE9001010E03AF8F4
:1008A00016106A4602A800F052FB411C07D02178BE
:1008B000890603D5E269391891420DD80744761CA0
:1008C0002078800602D5E069B84205DDAE42E6DB5D
:1008D0003AF816000028E2D1A069C01BA0612046AA
:1008E000FFF7E2FED8E90010CDE90010002017E084
:1008F0003AF818106A4602A800F029FBB0F1FF3F51
:1009000081460BD000250DF1080B05E0D4E901214B
:100910001BF8050090476D1C4D45F7D308F1010009
:10092000B0428046E4DB206A384420622046FFF76C
:10093000D1FEBDE8FF9F00000E4B00002DE9F04105
:100940008046D21D22F007020025D2E90002F529D7
:1009500015A614D0011E72F1000106DA0023D0EBB7
:10096000030063EB020211A608E0D8F800108B0721
:1009700001D50FA602E0490701D50EA601251146B3
:10098000002408F1240704E000F075F830323A55ED
:10099000641C50EA0102F7D12B46324621464046FC
:1009A000BDE8F041FFF7B9BE000000002D000000D7
:1009B0002B0000002000000030B4002100F12404CE
:1009C00008E002F00705D208303542EA4372DB083E
:1009D0006554491C52EA0305F3D10468002310A2B0
:1009E000250708D504F020040C4304D0C469012372
:1009F0000CA2641EC46130BCFFF78FBE10B5044664
:100A000021461068FFF780FE02462046BDE81040F0
:100A10000023D1E7D21D22F00701D1E90023CBE763
:100A200000000000300000004FF0000200B5134647
:100A300094469646203922BFA0E80C50A0E80C50FE
:100A4000B1F12001BFF4F7AF090728BFA0E80C50AF
:100A500048BF0CC05DF804EB890028BF40F8042BA8
:100A600008BF704748BF20F8022B11F0804F18BF15
:100A700000F8012B704730B5B0F10A024FEA900E32
:100A800071F100034EEA817EB0EB0E0061EB910143
:100A90004FEA101E4EEA017E10EB0E0041EB1111E1
:100AA0004FEA102E4EEA016E10EB0E0041EB1121C1
:100AB0004FEA104E4EEA014E10EB0E0041EB114191
:100AC000401841F100014FEAD00040EA41704FEA7E
:100AD000D10110EB80054FEA810444EA907444EBA5
:100AE00001046D1944EB0404521BA3414FF00003B1
:100AF00048BF0A3200D530BD401C41F1000130BD75
:100B000070472DE9FF4F0C461E464FF0FF378BB064
:100B1000D2E90001DDF860800A908A46C1F30A55E7
:100B200005B93D46002108464FF00000BAF1000F1C
:100B300000F4400005DA00EB80004FF4400101EAC8
:100B400050004FEA9059B9F1010F00DDB9460A98FB
:100B500050EA4A000ED044F61050A5F2FF35454346
:100B60002F14B8F1000F1ED07542291E1EDDC9F1E9
:100B700000021CE0B8F1010F4FF0000001D030215D
:100B800003E0F24305E02154401CB042FBDB304659
:100B90000022002121540B99C1F80880C1E90020EE
:100BA0000FB0BDE8F08FBD1B6D1CDEE74A4600DAD2
:100BB000694206A800F05CFA06AB93E8070003ABB5
:100BC00083E8070050460A9900F0CAFA8DE807004A
:100BD000A0F500501F3800900398002D09DD42F267
:100BE0001F014A46084403A90390684600F029FD06
:100BF00008E0A0F500504A461F3803A90390684654
:100C000000F033FD8DE807000004000C03D04FF026
:100C1000FF30410800E01046B8F1000F03D0002279
:100C2000009215461EE0751E05D4FFF724FF3032F2
:100C300062556D1EF9D5B3460122084302D0002249
:100C40007F1C04E02078302801D100227F1E002A7A
:100C5000099786D01DE0112D07DAFFF70CFF30321F
:100C600062556D1C50EA0102F5D1084302D000988C
:100C7000C8B10EE00021681E05E0235C625C63548D
:100C80002254401E491C8142F7DBAB46A81B401E84
:100C90000990002004F80B000B98099AC0F808800E
:100CA000C0E9002B7CE711264FF0000859E72DE939
:100CB000F04F88460446D21D22F0070191B0D1E9D9
:100CC0000001CDE90A0101F01DFE02460B98C00F9C
:100CD00001D02D2007E02068810701D52B2002E0FC
:100CE000202101EAC000032A099001D0072A05DB70
:100CF00003464146204600F07BF90BE12078800650
:100D000001D5E06900E00620B8F1650F814606D004
:100D1000B8F1660F18D0B8F1670F70D131E000203C
:100D2000B9F1110F009001DB112301E009F101037A
:100D30000AAA01A90CA8FFF7E4FEDDE90C70002661
:100D400009F10105834647E001204B4600904FF032
:100D500000470AAA01A90CA8FFF7D3FEDDE90DB0F0
:100D60000C995D46002610B909F101000D18B9EB88
:100D7000050003D4C0F1FF3609F10105A5EB090018
:100D80002BE0B9F1010F01DA4FF001090020B9F1B0
:100D9000110F0090484601DD112300E003460AAA26
:100DA00001A90CA8FFF7ADFEDDE90C704D46002649
:100DB0008346207800070AD4AB4500DA5D4601A8D7
:100DC000012D04DD411911F8011C302907D04F45D0
:100DD00002DA17F1040F04DA012082460FE06D1EDB
:100DE000EEE7002F02DCED1B3E4403E0781CA84236
:100DF00000DD7D1CB81B00F1010A4FF00047207890
:100E0000000703D4AA4501DB4FF0FF3A0021B7F1F8
:100E1000004F0DF143088DF8431024D002202B23FE
:100E2000002F01DA7F422D230A21021EA0F10100CA
:100E300000DC5FB197FBF1FC97FBF1F201FB1C7C3E
:100E400017460CF1300C08F801CDEEE7A8F10100CF
:100E500003702188090501D5452100E06521A0F135
:100E6000010800F8011C09980FA9A1EB0807FF1D54
:100E700000B10120411901EBEA70A1693844081A58
:100E8000401EA0612078C00602D42046FFF70CFC6B
:100E9000099828B1D4E901219047206A401C2062BA
:100EA0002078C00622D52046FFF7FEFB1EE0002E6C
:100EB00004DBB34502DD01A8805D00E03020D4E909
:100EC00001219047206A401C2062761CAAF1010093
:100ED0005FEA000A0AD100F087F8C0680168405C48
:100EE000D4E901219047206A401C2062281EA5F108
:100EF0000105DCDC07E0D4E9012118F8010B90477B
:100F0000206A401C2062381EA7F10107F3DC20464E
:100F1000FFF7E0FB032011B043E610B5436913B1BE
:100F2000AFF3008001E0FFF7ABFC012010BD128899
:100F300000F1240182840022C2840122EDE71168BD
:100F40004FF0FF32E9E7007B00F08000704770B59A
:100F500016460C46054600F03FF8036893F8010179
:100F6000012806D0FF2C0FD8185D68B101202C7025
:100F700070BDD3F807013246214603F2071303443C
:100F80002846BDE8704018474FF0FF3070BD7546E9
:100F900000F0E2F8AE4605006946534620F007002F
:100FA000854618B020B5FFF753F9BDE820404FF053
:100FB00000064FF000074FF000084FF0000B21F043
:100FC0000701AC46ACE8C009ACE8C009ACE8C00910
:100FD000ACE8C0098D46704710B500F005F8001D5B
:100FE00010BD00BF151F00000048704748060020D4
:100FF0002DE9F0411F46044603260168072A01F443
:10100000006004DB08B116A505E016A503E008B1F1
:1010100015A500E015A521F010002060A069C01EF4
:10102000A0610FB1401EA0612046FFF73DFB4FB10C
:10103000D4E9012138469047206A401C2062C01C38
:10104000206206E0206AFAE7D4E9012115F8010BD5
:101050009047761EF8D22046FFF73CFBBDE8F081B2
:101060004E414E006E616E00494E4600696E66004C
:101070002DE9F047814616468AB0334878440DC8BA
:101080008DE80D0030487844801C03AC0DC884E81E
:101090000D0041F69B300844372190FBF1F290FBA4
:1010A000F1F5A5F1800501FB12041B3C02D5644259
:1010B000012000E00020DFF890A080460027FA44DD
:1010C000AAF1BE0A0DE0E00709D03246684607EBF8
:1010D00047010AEB810100F0C8FA8DE807006410AF
:1010E0007F1C002CEFD1184F7F44AC3F18E0E8077D
:1010F00014D007EB04100DF1180A90E80E008AE8EE
:101100000E00C068F04201D198190890324606A935
:1011100003A800F0AAFA03AB83E807006D10641C73
:10112000002DE4D132466946B8F1000F03A802D081
:1011300000F087FA01E000F098FAC9E90001C9F867
:1011400008200AB0BDE8F087A44300000446AFF3CE
:1011500000802046FFF767F8004870472806002007
:101160005FEA400C08BF91F0000F4FEA8C234FEA72
:10117000C12243EA51514FEA1C5018BF00F5F0401C
:101180004FEA300018BF41F000415FEA6C5C00F0AC
:101190002980BCF1FF3F08BF40F080407047130C2E
:1011A00006BF12044FF0100C4FF0000C130E04BFDA
:1011B00012020CF1080C130F04BF12010CF1040C05
:1011C000930F04BF92000CF1020CD30F04BF520026
:1011D0000CF1010C11464FF00002A0F11F00A0EB32
:1011E0000C00704711F0004F08BF704731F000410C
:1011F0003FF4D5AF0B0C06BF09044FF0100C4FF0B5
:10120000000C0B0E04BF09020CF1080C0B0F04BFFD
:1012100009010CF1040C8B0F04BF89000CF1020CC6
:10122000CB0F04BF49000CF1010CCCF12003A0EB63
:101230000C0022FA03F302FA0CF241EA030100F176
:101240000100704720F07F4C80EA030023F07F47C5
:10125000ACEB070303F57C5300F0004003F1FF0300
:101260002DE980494FEA154B09B44FEA144325EAAA
:101270000B4E24EA03480FF2042606EB1327490815
:101280003E785FEA320203FB0667C7F5000707FBFB
:1012900006F64FEA54374FEAD64606F1020607FB38
:1012A000066CCCF1005C4FEA1C472CEA074C07FBAC
:1012B00006F40CFB06F504EB15464FEA961634BF10
:1012C00000204FF000404FEAD13706FB07FC4FEA01
:1012D0001C4C0CFB0BF7D21B03FB0CF761EB07015B
:1012E0000CFB0EF7B0EB074072EB17420CFB08F754
:1012F00034BFA2EB0742B2EB074261EB17414FEA62
:101300000C444FEA910706FB07FC4FEA1C4C0CFB10
:101310000BF7B0EBC74072EB573203FB0CF734BF4F
:10132000A2EBC742B2EBC74261EB57310CFB0EF7A1
:10133000B0EBC70072EB57720CFB08F734BFA2EB9F
:10134000C702B2EBC70261EB5771039F4FEA81619D
:1013500041EA921104EBCC044FEAD1374FEA8262A2
:1013600006FB07FC42EA90124FEA80604FEA1C4CF1
:101370000CFB0BF7D21B03FB0CF761EB07010CFB1B
:101380000EF7B0EB074072EB17420CFB08F734BFC7
:10139000A2EB0742B2EB074261EB17414FEA8C55D3
:1013A0004FEA910704EB9C2406FB07FC4FEA1C4C18
:1013B0000CFB0BF7B0EBC74072EB573203FB0CF79B
:1013C00034BFA2EBC742B2EBC74261EB57310CFB13
:1013D0000EF7B0EBC70072EB57720CFB08F734BF87
:1013E000A2EBC702B2EBC70261EB577115EB4C25BC
:1013F0004FEA816141EA92114FEA82624FEAD137A6
:1014000042EA901206FB07FC44F100044FEA8060B8
:101410004FEA1C4C0CFB0BF7D21B03FB0CF761EBE8
:1014200007010CFB0EF7B0EB074072EB17420CFB09
:1014300008F734BFA2EB0742B2EB074261EB17415A
:1014400015EB1C154FEA813141EA92414FEA823295
:1014500042EA90424FEA80304FEA0C7644F10004B1
:1014600048EA03434EEA0B484FF0000EB2EB080C7B
:1014700071EB030724BF624639464EEB0E0E4FF068
:10148000000B0018524149414BEB0B0BB2EB080C1F
:1014900071EB03077BF1000B24BF624639464EEB2C
:1014A0000E0E4FF0000B0018524149414BEB0B0B55
:1014B000B2EB080C71EB03077BF1000B24BF624613
:1014C00039464EEB0E0E51EA020718BF46F00106F0
:1014D00016EB0E7655F1000254F1000103D5BDE87C
:1014E0008901BDE80088BDE88901BDE80048B6195A
:1014F000524141EB0101A3F10103704780807F7EDF
:101500007D7C7B7A79787776767574737271717079
:101510006F6E6E6D6C6C6B6A6A696868676666652B
:101520006464636362616160605F5F5E5E5D5D5CB9
:101530005C5B5B5A5A59595858575756565555552A
:101540005454535352525251515050504F4F4F4E8A
:101550004E4D4D4D4C4C4C4B4B4B4A4A4A494949D8
:10156000484848474747474646464545454444441A
:10157000444343434342424242414141002B26D42B
:10158000770021D01CB54FEA370703B44FF01000A5
:101590004FF010014FF000000FBCBDE810400BF100
:1015A000010BBBF1010F08BF5FEA170722BF12F161
:1015B000010211F101014FF0004143F1000300F07D
:1015C000004043EA00007047F9D35708DAE746EADB
:1015D000064613F1400F4FEA16461FDD13F1200FA8
:1015E000DFBF16430A46002120335B42C8D0C3F157
:1015F000200746EA064602FA07F74FEA164646EA89
:101600000706C3F1200722FA03F201FA07F721FACD
:1016100003F14FF0000342EA0702B1E746EA02068F
:1016200046EA06464FEA164646EA0106BCBF46EAC7
:101630000646360C4FF000034FF000024FF0000159
:101640009EE72DE9C048934630B491E8380007C8BA
:1016500031EA400C48BF34EA430C03D5FFF7F2FDF2
:10166000FFF78CFFF0BCBDE800882DE9C048934629
:1016700030B491E8380007C810F0804F08BF13F06D
:10168000804F03D100F005F8FFF778FFF0BCBDE80C
:10169000008820F07F4780EA030023F07F4C07EBAF
:1016A0000C03A3F57C5300F00040A3F1FE0392F07D
:1016B000000F00F0B38095F0000F00F077802DE967
:1016C00001494FEA11404FEA144621EA004800FB65
:1016D00006FC24EA064708FB06F607FB08F800FBB1
:1016E00007F718EB06484CEB164C4FEA124B18EB79
:1016F00007484FEA15464CEB174022EA0B4E0BFB0E
:1017000006FC25EA06470EFB06F607FB0EFE0BFB62
:1017100007F71EEB064E4CEB164C4FF000061EEB87
:10172000074E4CEB174B18EB0B0840F1000018EB81
:101730000E0B58EB000840F100008F1A4FF000012B
:101740003CBFC943661B14BFB5EB040C00213CBF72
:10175000C943F61B4FEA17444EEA8E0E27EA0445AA
:101760004FEA1C4704FB07622CEA074C05FB07F70E
:101770000CFB05F604FB0CFC16EB074642EB17428C
:1017800016EB0C4642EB1C421BEB060658EB020222
:10179000414146EA9E0601D5BDE80189B61952418C
:1017A00041EB0101A3F10103BDE801894FEA1445B2
:1017B0004FEA114724EA054621EA074C05FB07F4E6
:1017C00006FB07F70CFB06F105FB0CFC11EB0741D0
:1017D00044EB17444FEA124711EB0C4144EB1C4415
:1017E00022EA074C05FB07F206FB07F70CFB06F69F
:1017F00005FB0CFC16EB074642EB174216EB0C46BA
:1018000042EB1C456A1854F1000148BF7047B619F5
:10181000524141EB0101A3F10103704795F0000F24
:1018200037D04FEA11424FEA144721EA024624EA30
:10183000074C02FB07F106FB07F70CFB06F402FB63
:101840000CFC14EB074441EB17414FEA154714EB2E
:101850000C4441EB1C4125EA074C02FB07F506FB53
:1018600007F70CFB06F602FB0CFC16EB074645EBF4
:10187000174516EB0C4645EB1C42121951F10001BD
:1018800048BF7047B619524141EB0101A3F1010372
:1018900070474FEA14454FEA114724EA054621EA0A
:1018A000074C05FB07F106FB07F70CFB06F24FF0B0
:1018B000000605FB0CFC12EB074241EB174112EB53
:1018C0000C4251EB1C4148BF7047921841EB01019B
:1018D000A3F10103704700BFFEE770472DE9F04117
:1018E000024600250026002000230024002791F84E
:1018F00003C00CF00F0591F803C00CF0100CBCF104
:10190000000F03D091F802C04CEA050591F800C021
:10191000BCF1000F31D0146800202BE04FF0010C17
:101920000CFA00F3B1F800C00CEA03069E4220D185
:1019300083004FF00F0C0CFA03F7BC4305FA03FCCD
:101940004CEA040491F803C0BCF1280F06D14FF013
:10195000010C0CFA00FCC2F814C00AE091F803C0B4
:10196000BCF1480F05D14FF0010C0CFA00FCC2F895
:1019700010C0401C0828D1D31460B1F800C0BCF1DD
:10198000FF0F34DD546800202EE000F1080C4FF00A
:10199000010808FA0CF3B1F800C00CEA03069E42F5
:1019A00021D183004FF00F0C0CFA03F7BC4305FA6A
:1019B00003FC4CEA040491F803C0BCF1280F05D1E4
:1019C00000F1080C08FA0CF8C2F8148091F803C072
:1019D000BCF1480F07D100F1080C4FF0010808FADC
:1019E0000CF8C2F81080401C0828CED35460BDE823
:1019F000F0810161704770B504460D461646681CBB
:101A000083B2601C82B22946204600F077FA304645
:101A100000F004F970BD00BFFEE7000008B5012129
:101A2000042000F027FB4FF4F870ADF800004820C8
:101A30008DF8030069460248FFF750FF08BD00001B
:101A40000008014008B50121042000F013FB032029
:101A5000ADF800008DF8020010208DF803006946F3
:101A60000A48FFF73BFF0121082000F003FB4FF479
:101A70007070ADF8000003208DF8020010208DF882
:101A8000030069460248FFF729FF08BD000801402E
:101A9000000C01402DE9F84F80460E4617461C46C3
:101AA000B3462046E31704EB5373DB1021464FEA9D
:101AB000E47C04EB5C7C4FEAEC0CA4EBCC0CBCF1BA
:101AC000000F02D04FF0010C01E04FF0000C634416
:101AD000224604EBD27C4FEA6C0C03FB0CF3DBB226
:101AE0000093A7F12000C7B2002553E00C2C07D1CA
:101AF00007EB47002A4901EB800010F8059013E03E
:101B0000102C05D1274800EB071010F805900BE0CA
:101B1000182C07D107EBC700234901EB800010F810
:101B2000059001E0BDE8F88F4FF0000A2CE009F0C5
:101B3000800030B11D48028831464046FFF75BFF08
:101B400007E00A9828B91A48028831464046FFF74C
:101B500052FF4FEA49604FEA1069701C86B2802E2E
:101B600000DBDFE7A6EB0B00A04209D15E4608F1DF
:101B700001001FFA80F8B8F1800F00DBD2E706E021
:101B80000AF1010000F0FF0ABAF1080FCFDB00BF35
:101B9000681CC5B200988542A8DB00BFC2E7000000
:101BA000A73B00081B4000080B46000894000020DB
:101BB000960000202DE9F84F04460D4690469946C0
:101BC000DDE90A6704F0FF0A08EB04001FFA80F859
:101BD00009EB05001FFA80F916E0444502DB544684
:101BE000A81985B24D4500DB14E0002000903A783A
:101BF000334629462046FFF74DFF304606EBD071AD
:101C000004EB61018CB27F1C38787E2802DC3878C6
:101C10002028E2DA00BFBDE8F88F000010B50446C6
:101C2000012008490860402007490860201200F0A0
:101C30006BFBE0B200F068FB01200249091F08605D
:101C400010BD000014080140100C014008B501212E
:101C5000102000F00FFA4FF40050ADF800001020F3
:101C60008DF8030003208DF8020069460448FFF751
:101C700035FE4FF400510248FFF7BBFE08BD0000DF
:101C80000010014070B506467F231A460021084621
:101C900000F034F92C2000F071F9002408E0002550
:101CA00003E03046FFF7BAFF6D1C802DF9D3641CAA
:101CB000802CF4D370BD10B5FFF7C4FE00F00CF912
:101CC000112000F05BF9782000F05CFEB12000F0FC
:101CD00055F9012000F03EF92C2000F03BF92D20B1
:101CE00000F038F9B22000F049F9012000F032F993
:101CF0002C2000F02FF92D2000F02CF9B32000F05B
:101D00003DF9012000F026F92C2000F023F92D20C8
:101D100000F020F9012000F01DF92C2000F01AF944
:101D20002D2000F017F9B42000F028F9072000F06A
:101D300011F9C02000F022F9A22000F00BF90220D6
:101D400000F008F9842000F005F9C12000F016F930
:101D5000C52000F0FFF8C22000F010F90A2000F0C2
:101D6000F9F8002000F0F6F8C32000F007F98A2007
:101D700000F0F0F82A2000F0EDF8C42000F0FEF8A2
:101D80008A2000F0E7F8EE2000F0E4F8C52000F02B
:101D9000F5F80E2000F0DEF8362000F0EFF8C8204D
:101DA00000F0D8F8E02000F0E9F80F2000F0D2F8B9
:101DB0001A2000F0CFF80F2000F0CCF8182000F027
:101DC000C9F82F2000F0C6F8282000F0C3F8202022
:101DD00000F0C0F8222000F0BDF81F2000F0BAF893
:101DE0001B2000F0B7F8232000F0B4F8372000F0F3
:101DF000B1F8002000F0AEF8072000F0ABF80220A8
:101E000000F0A8F8102000F0A5F8E12000F0B6F8E6
:101E10000F2000F09FF81B2000F09CF80F2000F02E
:101E200099F8172000F096F8332000F093F82C2052
:101E300000F090F8292000F08DF82E2000F08AF8AC
:101E4000302000F087F8302000F084F8392000F0CE
:101E500081F83F2000F07EF8002000F07BF807209A
:101E600000F078F8032000F075F8102000F072F808
:101E70002A2000F083F8002000F06CF8002000F029
:101E800069F8002000F066F87F2000F063F82B204E
:101E900000F074F8002000F05DF8002000F05AF81F
:101EA000002000F057F89F2000F054F8F02000F0D8
:101EB00065F8012000F04EF8F62000F05FF80020F1
:101EC00000F048F83A2000F059F8052000F042F8F8
:101ED000292000F053F810BD10B580200649086095
:101EE000642000F04FFD80200349091F0860322064
:101EF00000F048FD10BD0000140C0140F0B5044690
:101F00000D4616461F462A2000F038F8002000F043
:101F100021F8A11CC8B200F01DF8002000F01AF84A
:101F2000B11CC8B200F016F82B2000F027F80020F2
:101F300000F010F8E91CC8B200F00CF8002000F026
:101F400009F8F91CC8B200F005F82C2000F016F8CA
:101F5000F0BD000010B5044601200649086040208D
:101F600005490860204600F0CFF901200149091F0A
:101F7000086010BD14080140100C014010B5044663
:101F8000012006490860402005490860204600F00D
:101F9000BBF901200149091F086010BD1408014068
:101FA000140C014000BFFEE77047000070B500212F
:101FB00000230F22C47804B3154C246804F4E064B1
:101FC000C4F5E064210AC1F10403CA40447804FA6C
:101FD00003F184781440214309010E4C0678A15581
:101FE000047804F01F050124AC4005786D11AD00A4
:101FF00005F1E025C5F8004109E0047804F01F056B
:102000000124AC40044D0678761145F8264070BD99
:102010000CED00E000E400E080E100E00249014353
:10202000024A1160704700000000FA050CED00E064
:102030007047000029B1064AD2690243044BDA61B5
:1020400004E0034AD2698243014BDA617047000021
:102050000010024029B1064A12690243044B1A617A
:1020600004E0034A12698243014B1A617047000081
:102070000010024029B1064A92690243044B9A615A
:1020800004E0034A92698243014B9A617047000061
:102090000010024029B1064AD2680243044BDA60BC
:1020A00004E0034AD2688243014BDA6070470000C3
:1020B0000010024030B500210022002400232D4DE5
:1020C0006D6805F00C0121B1042905D0082923D140
:1020D00005E0294D056022E0274D05601FE0254DF4
:1020E0006D6805F47012234D6D6805F48034022587
:1020F00005EB92421CB9214D554305600BE01D4D87
:102100006D6805F400351DB11C4D5543056002E0B6
:10211000194D5543056002E0174D056000BF00BF33
:10212000144D6D6805F0F0010909154D6B5C0568EB
:10213000DD4045600F4D6D6805F4E061090A104D02
:102140006B5C4568DD4085600A4D6D6805F4605143
:10215000C90A0B4D6B5C4568DD40C560054D6D6877
:1021600005F44041890B074D6B5CC568B5FBF3F581
:10217000056130BD0010024000127A0000093D00E8
:102180009C000020AC00002000B587B00121082091
:10219000FFF770FF01218803FFF74CFF4FF4604009
:1021A000ADF8180018208DF81B0003208DF81A00D8
:1021B00006A91848FFF792FB4FF460411548FFF756
:1021C00018FC0020ADF804004FF48270ADF8060052
:1021D0000020ADF808000220ADF80A000120ADF89B
:1021E0000C004002ADF80E003820ADF810000020C1
:1021F000ADF812000720ADF8140001A9064800F060
:1022000065F80121044800F047F8FF2000F006F8C7
:1022100007B000BD000C01400038004070B5054615
:10222000002405E0601CC4B2C82C01DD002070BD94
:1022300002210E4800F03CF80028F3D029460B4854
:1022400000F042F8002405E0601CC4B2C82C01DD97
:102250000020ECE70121054800F02AF80028F3D01F
:10226000024800F02EF8C0B2E1E70000003800405C
:1022700010B50446074800884FF6C7710840054965
:10228000088008460088204308800121014800F0AA
:1022900003F810BD0038004021B1028842F040022E
:1022A000028004E002884FF6BF731A400280704734
:1022B0000246002013890B400BB1012000E00020F2
:1022C00070470146888970478181704710B50022A8
:1022D000028802F441520B884C8823438C882343A4
:1022E000CC8823430C8923434C8923438C89234383
:1022F000CC8923431A430280838B4FF2FF7423401F
:1023000083830B8A038210BD0021082117E000F0AF
:10231000800222B14FF480720A4B1A6004E04FF43D
:102320008072084B1B1D1A604FF40072054B1B1D79
:102330001A601B1F1A604206100E4A1ED1B20029F5
:10234000E5DC7047100C0140704710B500F002F852
:1023500010BD00000CB500200190009033480068CB
:1023600040F480303149086000BF3048006800F414
:10237000003000900198401C0190009818B9019815
:10238000B0F5A06FF1D12948006800F4003010B119
:102390000120009001E0002000900098012843D126
:1023A0002348006840F01000214908600846006892
:1023B00020F0030008600846006840F00200086052
:1023C0001A4840681949486008464068486008460D
:1023D000406840F4806048600846406820F47C1003
:1023E00048600846406840F4E810486008460068C5
:1023F00040F08070086000BF0C48006800F000707A
:102400000028F9D00948406820F0030007494860D7
:102410000846406840F00200486000BF034840683A
:1024200000F00C000828F9D10CBD0000001002409B
:1024300000200240042808D14FF0E021096941F052
:1024400004014FF0E022116107E04FF0E02109693B
:1024500021F004014FF0E022116170477047000045
:1024600010B51348006840F00100114908600846A3
:102470004068104908400E494860084600680E4907
:1024800008400B4908600846006820F48020086076
:102490000846406820F4FE0048604FF41F00886042
:1024A000FFF753FF4FF000600449086010BD0000C3
:1024B000001002400000FFF8FFFFF6FE08ED00E00C
:1024C00010B540F225511D4800F0DDF810B31B484F
:1024D00000F094F9C4B21A48008800F40040C8B96A
:1024E0001748008800F4804060B10A2C03D0002017
:1024F0001349088020E01248008840F40040104949
:10250000088019E00D2C06D10D48008840F4804069
:102510000B49088010E00A480088C0F30D00094903
:102520000C5407480088401C05490880084600886C
:10253000C72801DD0020088010BD000000380140E0
:1025400090000020B000002070B5002540F2255119
:102550000E4800F098F8C0B10C4800F04FF9C4B232
:102560000B480088C0F30E000A490C540848008844
:10257000401C074908800846008840F40040088055
:1025800040F22551014800F007F870BD00440040BA
:102590009A0000207801002010B50022002340F6A8
:1025A0006A14A14200D100BF0A1201249440A3B2D0
:1025B000DC43048010BD21B1828942F40052828143
:1025C00004E082894DF6FF731A4082817047000053
:1025D00010B504462048844209D101218803FFF741
:1025E00059FD00214FF48040FFF754FD32E01B48B5
:1025F000844209D101214804FFF72CFD00214FF44A
:102600000030FFF727FD25E01548844209D101215C
:102610008804FFF71FFD00214FF48020FFF71AFD0B
:1026200018E01048844209D10121C804FFF712FDC7
:1026300000214FF40020FFF70DFD0BE00A48844213
:1026400008D101210805FFF705FD00214FF4801096
:10265000FFF700FD10BD00000038014000440040BD
:1026600000480040004C004000500040024600205E
:10267000B1F5007F00D100BF13880B400BB10120E2
:1026800000E00020704770B50246002400230025BA
:10269000002040F66A16B14200D100BFC1F34215D6
:1026A00001F01F03012606FA03F3012D02D19689DA
:1026B000334006E0022D02D1168A334001E0968AAB
:1026C00033400C12012606FA04F41688344013B184
:1026D0000CB1012000E0002070BDF0B503460024DD
:1026E00000260025002040F66A17B94200D100BF3D
:1026F0001846C1F3421401F01F06012707FA06F538
:10270000012C01D10C3004E0022C01D1103000E08A
:1027100014301AB107682F43076002E00768AF431F
:102720000760F0BD2DE9F04786B005460E4600244F
:10273000A24600BFA1460027B08900B100BF2F46C6
:102740002C8A4CF6FF700440F08804432C82AC893C
:102750004EF6F3100440B08831890843718908436C
:102760000443AC81AC8A4FF6FF400440B089044377
:10277000AC8201A8FFF79EFC1F48874202D1DDF81A
:1027800010A001E0DDF80CA0A88900F4004040B1E1
:102790000AEBCA0000EB0A1031684900B0FBF1F8FF
:1027A00007E00AEBCA0000EB0A1031688900B0FBB1
:1027B000F1F86420B8FBF0F004012009642101FB6A
:1027C0001089A88900F4004040B1322000EBC90014
:1027D000B0FBF1F000F00700044308E0322000EB0A
:1027E00009106421B0FBF1F000F00F0004432C81CC
:1027F00006B0BDE8F0870000003801400146888837
:10280000C0F308007047C1F308028280704700BF20
:10281000FEE7000008B501210820FFF72BFC4FF46C
:102820008050ADF8000010208DF8030003208DF8D3
:10283000020069460A48FFF751F84FF480510848F2
:10284000FFF7D7F8012007490860FFF79DFC00203B
:10285000FFF70EFD00F032F80349088008BD0000C4
:10286000000C0140B0812142980000202DE9F04188
:1028700006460C46174600200F4908600320FFF764
:10288000CDFCC4F30740FFF7C9FCC4F30720FFF7F2
:10289000C5FCE0B2FFF7C2FC002505E0FF20FFF712
:1028A000BDFC7055681C85B2BD42F7DB01200249B2
:1028B0000860BDE8F0810000B081214210B500241D
:1028C00000200E4908609020FFF7A8FC0020FFF7C9
:1028D000A5FC0020FFF7A2FC0020FFF79FFCFF20D3
:1028E000FFF79CFC44EA0024FF20FFF797FC044319
:1028F00001200349C1F8B001204610BDB08121423A
:1029000000802142490050EAC12018BF04204A0D2E
:1029100018BF40F0010040F2FF72B2EB515F08BFF8
:1029200040F00200012808BF0520704730380A280F
:1029300001D20120704700207047014600BF704758
:1029400010B56FF00400FFF775FD0A4800680A49EA
:10295000B0FBF1F0094908700846007800EB40012F
:10296000C1EBC0104FF6FF7101EAC00004490880B6
:1029700010BD00007000002000127A0084000020CA
:10298000860000200146114A12884A434FF0E02396
:102990005A6100229A611A46126942F001021A61D4
:1029A00000BF4FF0E022106900F001021AB100F4FC
:1029B0008032002AF5D04FF0E022126922F00102A5
:1029C0004FF0E0231A6100229A61704786000020D0
:1029D00000BF054A128802F04002002AF9D0C2B2B4
:1029E000014B1B1D1A807047003801401CB50125A2
:1029F00000BF00BF00BF0120A14908700020A1490D
:102A00000880FFF79DFF4FF4A060FFF707FB4FF42E
:102A1000165000F0B1F94FF4165000F0FDF9FFF731
:102A2000F9FEFFF713F9FEF7F9FFFFF744F902206B
:102A3000954908604FF6FF70FFF724F9FFF73EFF56
:102A40004EF61771884216D1002090490860C820C0
:102A5000FFF798FF01208E49C1F8B401C820FFF7A5
:102A600091FF002089490860C820FFF78BFF0120F3
:102A70008749C1F8B4017F231A4600210846FFF7B1
:102A80003DFA01240FE0012000EB440102228148BD
:102A9000FFF7ECFE7F4909787E4A527841EA02202E
:102AA000FFF7BCF8641C43F601708442EBD94FF485
:102AB0007A70FFF767FF78A0FDF7F0FB78A000F0D1
:102AC00033F900207C490880D9E07B48008800F475
:102AD000004010B300206D4908601420FFF752FF3A
:102AE00001206B49C1F8B401744975A0FDF7D6FB0C
:102AF0004FF49670FFF746FF704973A000F014F989
:102B000000206D4908806D480C210B465A22CDE902
:102B1000001000210846FFF74DF84FF41671674882
:102B2000FDF75BFD6B480068D0B90520FFF72AFF71
:102B300068480068A0B900BF664800680028FBD05C
:102B400065A0FDF7ABFB0020504908600A20FFF7A5
:102B500019FF01204E49C1F8B40162A0FDF79EFBA8
:102B60005C48001F0068E0B90520FFF70BFF5948DB
:102B7000001F0068A8B900BF5648001F0068002861
:102B8000FAD055A0FDF78AFB0020404908600A20D2
:102B9000FFF7F8FE01203E49C1F8B40155A0FDF74A
:102BA0007DFB4C4810380068E0B90520FFF7EAFECD
:102BB000484810380068A8B900BF46481038006877
:102BC0000028FAD044A0FDF769FB00202F490860D7
:102BD0000A20FFF7D7FE01202D49C1F8B40148A013
:102BE000FDF75CFB3B480C380068E0B90520FFF7B7
:102BF000C9FE38480C380068A8B900BF35480C3801
:102C000000680028FAD034A0FDF748FB00201F49D7
:102C100008600A20FFF7B6FE01201D49C1F8B40183
:102C20003AA0FDF73BFB2B480838006838BB05206D
:102C3000FFF7A8FE27480838006800BB681CC5B22B
:102C4000022D00D100250020104908600A20FFF75E
:102C500099FE01200E49C1F8B40100BF1D48083893
:102C600000680028FAD01CA0FDF718FB012D02D146
:102C700029A0FDF713FB15B929A0FDF70FFB24E7E9
:102C8000920000209000002010080140B401224270
:102C900000002242000000204D300D0A000000001C
:102CA00057656C636F6D6520746F204772626C208E
:102CB000302E38630D0A00009A00002078010020B1
:102CC00025730D0A000000005265636976653A2598
:102CD000730D0A00200121426374726C2D780D0A75
:102CE000000000004739312047303120582B310D8A
:102CF0000A00000047303120582D310D0A00000035
:102D000047303120592B310D0A0000004730312067
:102D1000592D310D0A0000004D340D0A000000004D
:102D20004D320D0A000000000FB438B505A8009020
:102D30000F48009A0499FDF79FFA002000900C4874
:102D4000FDF72CFC85B200240DE000BF40210948AE
:102D5000FFF78CFC0028F9D00548015D0548FFF716
:102D600052FD601C84B2AC42EFDB38BC5DF814FB52
:102D7000D00300200044004010B586B00446012175
:102D800044F20400FFF776F94FF40070ADF8140038
:102D900003208DF8160018208DF8170005A91C488F
:102DA000FEF79CFD4FF48060ADF8140004208DF810
:102DB000170005A91648FEF791FD25208DF80000A3
:102DC00003208DF801008DF8020001208DF803002A
:102DD0006846FFF7EBF801940020ADF80800ADF865
:102DE0000A00ADF80C00ADF810000C20ADF80E0094
:102DF00001A90848FFF796FC012240F22551054839
:102E0000FFF76BFC01210348FFF7D5FB06B010BDAF
:102E1000000801400038014010B586B00446012189
:102E20000420FFF727F901214804FFF703F924489C
:102E3000FFF7CEFB0420ADF8100003208DF8120040
:102E400018208DF8130004A91E48FEF747FD08203E
:102E5000ADF8100004208DF8130004A91948FEF7FE
:102E60003DFD00940020ADF80400ADF80600ADF87B
:102E70000800ADF80C000C20ADF80A0069461048B7
:102E8000FFF750FC01210E48FFF795FB012240F2AD
:102E900025510B48FFF721FC26208DF81400022055
:102EA0008DF8150003208DF8160001208DF817000D
:102EB00005A8FFF77BF800200349088006B010BD85
:102EC00000440040000801409A00002010B500298D
:102ED0000AD00878002807D005487844FDF7A0FB01
:102EE000002801D0002010BD0248784410BD000029
:102EF000822500007A25000010B500290AD0087844
:102F0000002807D005487844FDF78AFB002801D047
:102F1000002010BD0248784410BD0000722500005A
:102F20006A250000FDF7C3BE00000000000000009D
:102F30000000000000000000001010101010101021
:102F4000101000001010000000006C6C2424000021
:102F500000000100000000000024242424FE484852
:102F60004848FC909090900000103C54929050384B
:102F700014121292547810000000225C94A8481099
:102F800010242A5254880000000030484850206E17
:102F900054948C888A74000000003828380000009F
:102FA0000000000000000000000408101020202095
:102FB0002020201010080400008040202010101055
:102FC0001010102020408000000000001054381025
:102FD000385410000000000000000010101010FE17
:102FE00010101010000000000000000000000000A1
:102FF000000000001010200000000000000000FE93
:1030000000000000000000000000000000000000C0
:103010000000000010100000000004040808101058
:10302000202040408080000000003844828282825C
:10303000828282824438000000001070101010104C
:1030400010101010107C0000000038448282040828
:103050001020408284FC00000000384482020438C2
:1030600004020282443800000000040C14142424DA
:103070004444FE04040E00000000FC808080B8C4BC
:10308000820202828478000000003C428280B8C440
:10309000828282824438000000007E42820404085A
:1030A00008081010101000000000384482824438D4
:1030B0004482828244380000000038448282828246
:1030C000463A028244380000000000001010000060
:1030D00000001010000000000000000010100000B0
:1030E00000000010102000000000000006186080A2
:1030F0006018060000000000000000000000FE0054
:1031000000FE00000000000000000000C0300C02C3
:103110000C30C00000000000003844828202040825
:10312000101010001010000000003844829AAAAA63
:10313000AAAAAA9680423C00000010101028282855
:1031400044447C4444EE00000000FC424242427C85
:103150004242424242FC000000003C4482808080A7
:1031600080808282443800000000F844424242429B
:103170004242424244F800000000FC444240447C89
:103180004440404244FC00000000FC444240447C77
:103190004440404040F000000000344C8280808079
:1031A0008E8484844C3400000000EE444444447C0B
:1031B0004444444444EE000000007C101010101001
:1031C00010101010107C000000003E0808080808CD
:1031D00008080888887000000000EE4448485060E5
:1031E0005048484444EE00000000E0404040404069
:1031F0004040404244FC00000000C6446C6C6C54EB
:103200005454444444EE00000000CE4464646454CA
:10321000544C4C4C44E400000000384482828282CA
:1032200082828282443800000000F84442424244D4
:103230007840404040E000000000384482828282B2
:10324000828282BA443C02000000F0484444444870
:103250007048444444E6000000003C448280403012
:103260000C0202824478000000007C54921010107E
:1032700010101010103800000000EE444444444484
:1032800044444444443800000000EE44444444288C
:1032900028282810101000000000EE445454545404
:1032A00054542828282800000000EE444428281000
:1032B0001028284444EE00000000EE44442828284A
:1032C000101010101038000000007E448408081010
:1032D0002020408284FC0000001C101010101010F0
:1032E0001010101010101C000000EE445454FE5436
:1032F00054542828282800000070101010101010B6
:1033000010101010101070000030488400000000F1
:1033100000000000000000000000000000000000AD
:10332000000000000000FE0000402000000000003F
:103330000000000000000000000000000000788491
:10334000047C84848C7600000000C04040405864B7
:10335000424242426458000000000000000038442D
:10336000808080804438000000000C040404344C49
:10337000848484844C3600000000000000007884BF
:1033800084FC808084780000000018242020F8202D
:1033900020202020207000000000000000003A449F
:1033A0004478807C82827C000000C04040405864A9
:1033B0004444444444EE000000001010000030106B
:1033C0001010101010380000000010100000301015
:1033D00010101010109060000000C04040405C4889
:1033E0005060504844EE00000000001070101010B3
:1033F00010101010107C0000000000000000ACD283
:103400009292929292D6000000000000000058E4D0
:103410004444444444EE0000000000000000003C2E
:1034200042424242423C0000000000000000D864DA
:10343000424242645840E000000000000000364C68
:103440008484844C34040E000000000000006C30C2
:10345000202020202070000000000000000078885C
:103460008460188444780000000000202020F820A8
:103470002020202024180000000000000000C64288
:1034800042424242463A0000000000000000EE4482
:103490004428282810100000000000000000EE441E
:1034A0004454542828280000000000000000EE4486
:1034B0002810102844EE0000000000000000EE4438
:1034C0004428281010A0C0000000000000007E4426
:1034D0008810204284FC0000000C101010101060B6
:1034E0001010101010100C00001010101010101000
:1034F000101010101010100000C0202020202018E4
:10350000202020202020C0000000000000000072C9
:103510008C0000000000000000B3C900A000900073
:10352000807FF8408040907C90449044A044A04428
:103530004858A84118820800000000B9A6010001FF
:1035400000F90023F0211021102110211021103941
:1035500010C21002100410086000000000D1A10089
:10356000000120012003FC62203420042003FC24FD
:103570000021B021202220323E18000FE00000CFB1
:10358000EE0000000003FE00607C4012FC110411FC
:1035900006113611241F44794400C0009C018600A6
:1035A00000C8B70000004000F878C41F8C313821F3
:1035B000EC2126413A7DE2272225FA3D260124010D
:1035C000040000B6A80000010001705FFC70042038
:1035D000042FF801001100113821C431003F0063AD
:1035E000E040380000082008207FFC08200FE00899
:1035F000200FE00820FFFE082011102108CFE6016F
:103600000001003FF800003FF80100010001000147
:1036100000FFFE01000100010001000100010001A6
:10362000000500020000000000B4BF000000000020
:1036300000020100063FC00C3FE01803001002002A
:103640003336603726203E66301C643018642031E3
:10365000FEE03F1FC01C0C00000C000704003E07EA
:10366000F00001C0000000000000000000000000A9
:10367000000000C9AB00000000000001FE0003E3F1
:10368000000703000C03001C3F003BFFC03F3060FD
:103690000C30200C30200C10200C10600FFFC008E4
:1036A0003F000800000800600E3FE007FC0000003B
:1036B00000000000000000000000000000CCEE0050
:1036C000000000000000030000FFE00C07F00C0603
:1036D000000CFF803FF0E01FC0600CFE300CCC30CF
:1036E00004F83004FF2004C0201FFE603EC06001CB
:1036F000FFF001FFF00060600040000000000000EB
:1037000000000000000000B3E40000000000000022
:10371000200000300007FFF03FFFE003000006013B
:10372000800C01800801C01807E00FFE7007E00060
:103730000206000604000404000404000C06700CD9
:1037400007E0000000000000000000000000000092
:1037500000B2E200000000000000003039FC301F21
:10376000CC300706B00F06F01907B03137B031364C
:10377000F01F27F00167F001E5F001E1F00041F0F2
:103780000CF8B03CD830008C3000803000000000D5
:103790000000000000000000000000CAD40000008B
:1037A0000000000803600C03700C0330003FE000D1
:1037B0003F800801003C0180047F80047D800C0074
:1037C000800C10C00C10C00C18400C1C600F7E60E8
:1037D0000670300000300000000000000000000013
:1037E0000000000000CEC400000000C00000E000A7
:1037F00000700001FFE01FFFC0180100000300007F
:103800000600000E00001C000E180007300001E04A
:103810000000F00000FC00018F000303C00201E083
:10382000000000000000000000000000000000D7C1
:10383000D6000000000000002000003F0031FFE043
:103840003FC02038003030FE2033C6601002000038
:103850000C00001800001800000C0007FFE03FFFFC
:10386000E0000400000C00000C000000000000005C
:10387000000000000000000000CFD40000000000A5
:103880000007FF000F03C00C00401FF86018006025
:103890000800400E01C007FF000000000184000185
:1038A00084001987800F8CE0078C2000CC0003FF78
:1038B000E01FFFC00000000000000000000000004A
:1038C000000000CABE0000000000000E00001FFF44
:1038D000C0007FE0000000000000000000000000C9
:1038E000003FC03FFFE00030000030000030000625
:1038F00013000C13C00C18F0181800181800000062
:1039000000000000000000000000000000CDBC002E
:10391000000000000007FF000F03801CC0C019FC5E
:103920006011C66033062033E63036FF30301FF0BA
:1039300030703030FC30339F3036002010E060189B
:103940007C400E01C003FF000038000000000000B2
:1039500000000000000000C6AC00000000000008ED
:103960001800180800180800180800180C201FFF7D
:10397000F01FF80018000010000010F8001FFE00F3
:103980001E030010030010030010030010030018B2
:103990000200000000000000000000000000000025
:1039A00000CFD400000000000007FF000F03C00C90
:1039B00000401FF8601800600800400E01C007FFBB
:1039C000000000000184000184001987800F8CE052
:1039D000078C2000CC0003FFE01FFFC000000000A8
:1039E0000000000000000000000000CABE0000004F
:1039F0000000000E00001FFFC0007FE0000000007C
:103A00000000000000000000003FC03FFFE0003069
:103A1000000030000030000613000C13C00C18F03A
:103A20001818001818000000000000000000000036
:103A30000000000000B4A5000000000000060180A6
:103A40000FC1801E6180304FC020CFE0078D303F16
:103A5000C9303379303379303FFB3037FF2032675C
:103A6000E03FE3803FE3C03263603267F0304FB045
:103A7000000000000000000000000000000000C383
:103A8000FE0000000000000030C000FFF00C79C014
:103A90000C1F800C7FE03FE0600CC0300CFC300459
:103AA000C03007C0301E60603C3FC0041C00047F73
:103AB000E000FFE00030C000606000000000000097
:103AC000000000000000000000CAE4000000000048
:103AD000000C03800C0FC0081C703F70001F9FC0BB
:103AE000101FC0100000367C3017E6301FE3B00610
:103AF0007FB00277F007E3F03F7FF01336F0032644
:103B0000300326300000000000000000000000002C
:103B1000000000C8EB000000000000060000038069
:103B20000001C00000E00000700000780000CC0040
:103B300000C6000183000301800700C00600E00CFE
:103B40000070180030180000300000000000000075
:103B50000000000000000000000000000000000065
:103B60000000000000000000000000000000000055
:103B70000000000000000000000000000000000045
:103B80000000000000000000000000000000000035
:103B90000000000000000000000000000000000025
:103BA0000000000000000000000000000000000015
:103BB000000000000000003F400000000000000086
:103BC000003000400030004000000009000BC03D04
:103BD000000BC03D00090018C024407FE0224031A6
:103BE000800000180024C01B000D803240018003BB
:103BF000801C4027401C80074000401000600000EF
:103C0000000000000000000000000000001F8020F5
:103C10004040200000402020401F8000000000099C
:103C20000006001F80060009000000040004003F99
:103C3000800400040000000010006000000000008C
:103C40000000000400040004000400040000000060
:103C50000000400000000000000000002001C0063D
:103C6000003800400000001F802040204020401FFE
:103C7000800000000010403FC0004000000000181D
:103C8000C0214022402440184000001080204024E1
:103C90004024401B80000002000D0011003FC001C5
:103CA0004000003C80244024402440238000001F2A
:103CB000802440244034400380000030002000274E
:103CC000C03800200000001B802440244024401BFA
:103CD0008000001C0022C0224022401F8000000003
:103CE0000000000840000000000000000000000488
:103CF00060000000000000000004000A0011002025
:103D00008040400900090009000900090000000086
:103D1000004040208011000A000400180020002309
:103D2000402400180000001F802040274029401F29
:103D3000400000004007C039000F0001C0004020D3
:103D4000403FC0244024401B8000001F80204020B2
:103D50004020403080000020403FC0204020401FD5
:103D600080000020403FC024402E4030C000002092
:103D7000403FC024402E00300000000F0010802083
:103D80004022403380020020403FC0040004003F36
:103D9000C02040204020403FC02040204000000084
:103DA00060202020203FC02000200020403FC02471
:103DB000400B0030C0204020403FC0204000400069
:103DC0004000C03FC03C0003C03C003FC00000209A
:103DD000403FC00C4023003FC020001F80204020F7
:103DE0004020401F80000020403FC0244024001895
:103DF0000000001F802140214020E01FA000002083
:103E0000403FC02440260019C0004018C024402470
:103E100040224031800000300020403FC020403030
:103E200000000020003F80004000403F8020002034
:103E3000003E0001C0070038002000380007C03CE9
:103E40000007C038000000204039C0060039C020FB
:103E50004000002000384007C038402000000030FB
:103E60004021C02640384020C00000000000007FF4
:103E7000E0402040200000000070000C00038000A3
:103E80004000000000402040207FE00000000000D3
:103E90000020004000200000000000001000100082
:103EA0001000100010001000000000400000000092
:103EB000000000000002800540054003C0004020D3
:103EC000003FC00440044003800000000003800461
:103ED0004004400640000000000380044024403FAE
:103EE000C000400000038005400540034000000082
:103EF0000004401FC0244024402000000002E005D0
:103F00005005500650042020403FC00440040003E8
:103F1000C000400000044027C00040000000000036
:103F2000100010041027E00000000020403FC001F6
:103F300040070004C00440204020403FC000400033
:103F400040000007C0040007C0040003C0000004D4
:103F50004007C00440040003C00040000003800488
:103F600040044003800000041007F00450044003A4
:103F7000800000000003800440045007F00010049B
:103F80004007C00240040004000000000006400595
:103F900040054004C00000000004001F80044000F1
:103FA000400000040007800040044007C0004004B7
:103FB00000070004C0018006000400060001C007DD
:103FC0000001C006000000044006C0010006C00455
:103FD0004000000410071004E00180060004000007
:103FE00000044005C006400440000000000000043A
:103FF000007BE040200000000000000000FFF00017
:10400000000000000040207BE004000000000040B1
:104010000080004000200020004000000000000060
:104020000000000000000000000000000000000090
:10403000001FCC000C000000000000000008003051
:104040000060000800300060000000022003FC1E39
:1040500020022003FC1E200220000000000E181188
:10406000043FFF10840C78000000000F0010840F44
:104070003800C0077818840078000000780F84109A
:10408000C411240E9800E400840008080068007041
:104090000000000000000000000000000000000020
:1040A0000007E01818200440020000000040022031
:1040B00004181807E0000000000000024002400160
:1040C000800FF0018002400240000000800080006C
:1040D000800FF800800080008000000001000D00CB
:1040E0000E00000000000000000000000000800042
:1040F00080008000800080008000800000000C00B4
:104100000C0000000000000000000000000006009D
:104110001800600180060018002000000007F00869
:104120000810041004080807F00000000008040844
:10413000041FFC000400040000000000000E0C102E
:10414000141024104411840E0C000000000C1810F0
:10415000041104110412880C700000000000E00338
:1041600020042408241FFC0024000000001F9810D5
:104170008411041104108810700000000007F0087A
:10418000881104110418880070000000001C001041
:104190000010FC13001C001000000000000E38117D
:1041A000441084108411440E3800000000070008F9
:1041B0008C10441044088807F00000000000000044
:1041C00000030C030C0000000000000000000000D1
:1041D0000101060000000000000000000000800156
:1041E00040022004100808100400000220022002EF
:1041F00020022002200220022000000000100408FB
:10420000080410022001400080000000000E00128F
:1042100000100C106C10800F00000003E00C18134D
:10422000E4142417C4082807D000000004003C034D
:10423000C41C40074000E4001C000410041FFC11D3
:1042400004110411040E880070000003E00C181023
:10425000041004100410081C10000010041FFC10AF
:104260000410041004080807F0000010041FFC11DB
:1042700004110417C410040818000010041FFC11D6
:1042800004110017C010000800000003E00C181013
:1042900004100410441C780040000010041FFC109F
:1042A000840080008010841FFC10040000100410A3
:1042B000041FFC10041004000000000003000110A3
:1042C0000110011FFE10001000000010041FFC115F
:1042D0000403801464181C1004000010041FFC1058
:1042E00004000400040004000C000010041FFC1F64
:1042F0000000FC1F001FFC1004000010041FFC0C39
:1043000004030000E010181FFC100007F00808105C
:104310000410041004080807F0000010041FFC102B
:10432000841080108010800F00000007F008181023
:10433000241024101C080A07F2000010041FFC11AE
:1043400004110011C011300E0C000400000E1C11ED
:10435000041084108410441C380000180010001051
:10436000041FFC100410001800000010001FF810BB
:10437000040004000410041FF8100010001E0011B7
:10438000E0001C007013801C0010001FC0103C00D7
:10439000E01F0000E0103C1FC000001004180C16C5
:1043A0003401C001C01634180C100410001C001396
:1043B0000400FC13041C00100000000804101C1072
:1043C00064108413041C0410180000000000000096
:1043D000007FFE4002400240020000000030000C5E
:1043E0000003800060001C00030000000040024049
:1043F0000240027FFE0000000000000000000020DC
:1044000000400040004000200000000001000100CA
:104410000100010001000100010001000040004016
:1044200000200000000000000000000000009801D3
:104430002401440144014400FC000410001FFC005E
:104440008801040104008800700000000000700072
:1044500088010401040104008800000000007000CD
:10446000880104010411081FFC0004000000F80189
:104470004401440144014400C8000000000104015B
:10448000040FFC1104110411001800000000D601F3
:10449000290129012901C90106000010041FFC009F
:1044A0008401000100010400FC0004000001041963
:1044B0000419FC00040004000000000000000300D8
:1044C000010101190119FE0000000010041FFC0089
:1044D00024004001B4010C0104000000001004108D
:1044E000041FFC0004000400000000010401FC01A2
:1044F00004010001FC0104010000FC010401FC00B6
:104500008401000100010400FC0004000000F80127
:104510000401040104010400F80000010101FF008E
:104520008501040104008800700000000000700094
:104530008801040104010501FF00010104010401D7
:10454000FC00840104010001800000000000CC0197
:10455000240124012401240198000000000100012D
:104560000007F80104010400000000010001F80048
:104570000400040004010801FC00040100018001A2
:1045800070000C001001600180010001F0010C00BE
:104590003001C00030010C01F001000000010401F5
:1045A0008C00740170018C01040000010101810183
:1045B00071000E00180160018001000000018401FB
:1045C0000C013401440184010C00000000000000D3
:1045D00000000001003EFC4002400200000000001C
:1045E000000000FFFF00000000000000004002404B
:1045F000023EFC010000000000000000006000809E
:10460000008000400040002000200000000000006A
:10461000000000000000000000000000000000009A
:10462000000000000000000000000000000000008A
:1046300000000000000000000000000000000F80EB
:10464000380FFE380F803800000000000000000026
:104650000000000000000000000100000600000C47
:1046600000003800003100000600000C0000380097
:10467000003000000000000000000061800067F8CA
:1046800007F9800061800061800061800061800026
:1046900067F807F98000618000000000000000005A
:1046A0000001C0E003E0F00630080418081FFFFE18
:1046B000040E080787F00381E000000000000001FD
:1046C000F000060C00040408060C7001F9C0000E8E
:1046D00000003BE000EC18070808040C180003E099
:1046E0000000000001E00007F003F818041C0804B3
:1046F000170807E1D003C0E00023B0003C08002009
:10470000080000100000000000000100003100005F
:104710003200001C0000000000000000000000004B
:104720000000000000000000000000000000000089
:1047300000000000000000000000007F0001FFC03A
:104740000780F00C00181000042000020000000098
:1047500000002000021000040C00180780F001FF88
:10476000C0007F000000000000000000000000000A
:10477000000000000000004200006600006600002B
:104780003C0000180003FFC0001800003C00006659
:104790000000660000420000000000080000080061
:1047A00000080000080000080001FFC00008000029
:1047B00008000008000008000008000000000000D9
:1047C0000100003100003200001C00000000000069
:1047D00000000000000000000000000000000000D9
:1047E00000000008000008000008000008000008A1
:1047F0000000080000080000080000080000080091
:104800000000000000000000000000380000380038
:104810000038000000000000000000000000000060
:104820000000000000000000000000000600001C66
:10483000000070000180000E0000380000C000077A
:1048400000001C0000300000000000000000007F9D
:104850008001FFE0038070060018040008040008CF
:1048600006001803807001FFE0007F800000000058
:10487000000000000001000801000801000803FF1B
:10488000F807FFF80000080000080000080000001A
:1048900000000000000001C03802C0580400980465
:1048A0000118040218040418061C1803F81801E083
:1048B000F800000000000000000001C0E003C0F0AC
:1048C00004000804080804080806180803F418017E
:1048D000E7F00001E000000000000000000000031D
:1048E00000000D00001100006100008108030108B4
:1048F00007FFF80FFFF800010800010800000000A2
:1049000000000000E007FCD00608080610080610AA
:1049100008061008061838060FF00607C000000049
:10492000000000000000003F8001FFE0038430022F
:104930000818041008041008041008071810030FC2
:10494000F00007C000000000000000000003C000ED
:104950000700000600000600F80607F80618000623
:10496000E00007000006000000000000000001E178
:10497000E003F7F0063410041808041808040C08C3
:10498000040C0806161803F3F001C1E00000000053
:10499000000000F80003FC3003063804020804029B
:1049A000080402080404100308F001FFC0007F009F
:1049B00000000000000000000000000000000000F7
:1049C00000000070380070380070380000000000EF
:1049D00000000000000000000000000000000000D7
:1049E00000000000000000301A00301C0000000031
:1049F00000000000000000000000000000000000B7
:104A00000000080000140000220000410000808027
:104A1000010040020020040010080008000000000F
:104A200000000021000021000021000021000021E1
:104A300000002100002100002100002100002100D1
:104A40000000000000000000000800080400100240
:104A5000002001004000808000410000220000147E
:104A60000000080000000000000003C00004C000B7
:104A7000040000080038080F380808380810000C37
:104A8000300007E00003C000000000000000003F0D
:104A90008000FFE0038070020F1006708804C08859
:104AA000048308047F8802C09003012000FE4000B8
:104AB00000080000180001F8003E0801C2000702CB
:104AC0000007E20000FE00001FC80001F8000038E7
:104AD00000000804000807FFF807FFF804080804AE
:104AE000080804080804080806180803F41801E771
:104AF000F00001E0000000000000003F8001FFE046
:104B00000380700200180400080400080400080470
:104B100000100600200780C000000004000807FF06
:104B2000F807FFF80400080400080400080400184F
:104B300002001003807001FFE0007F80000000048D
:104B4000000807FFF807FFF804080804080804082D
:104B500008040808043E0804000806001801006064
:104B600000000004000807FFF807FFF80408080425
:104B70000800040800040800043E000600000600C7
:104B800000018000000000000000003F8001FFE005
:104B900003807006001804000804020804020802DA
:104BA00003F00783F000020000020004000807FF82
:104BB000F807FFF8040808000800000800000800D3
:104BC00000080004080807FFF807FFF804000800C1
:104BD000000000000004000804000804000807FFAB
:104BE000F807FFF8040008040008040008000000AB
:104BF00000000000000000000600000700000104A3
:104C0000000104000104000307FFFE07FFFC04008D
:104C10000004000004000004000807FFF807FFF884
:104C2000040C08001800003E0004C7800503C806F5
:104C300000F804003804001800000804000807FF0A
:104C4000F807FFF80400080000080000080000084A
:104C500000000800000800001800006000000004C8
:104C6000000807FFF807800807FC00007FC000036A
:104C7000F80007C000780007800807FFF807FFF872
:104C800004000804000807FFF807000803C000003C
:104C9000E000003800001E000007000001C0040012
:104CA000F007FFF8040000000000007F8001FFE033
:104CB00003807006001804000804000806001803AA
:104CC000003001FFE0007F8000000004000807FFC3
:104CD000F807FFF8040408040400040400040400B6
:104CE000040400060C0003F80001F00000000000BE
:104CF0000000007F8001FFE0038070060088040050
:104D0000880400C806003C03003E01FFE6007F84E3
:104D100000000004000807FFF807FFF80408080473
:104D20000800040C00040F00040BC00610F003F090
:104D30003801E00800000800000001E0F803F0304E
:104D4000063010041808041808040C08040C0802A3
:104D500006180207F00781E000000001800006004D
:104D60000004000004000004000807FFF807FFF833
:104D70000400080400000400000600000180000494
:104D8000000007FFE007FFF0040018000008000023
:104D90000800000800000800000804001007FFE0F9
:104DA00004000004000006000007E00007FE000405
:104DB0001FE00001F80000380001E0043E0007C0D9
:104DC0000006000004000004000007E00007FFC028
:104DD000041FF80007C007F80007FF80043FF80031
:104DE00007C004F8000700000400000000000400F1
:104DF0000806001807C07805F1C8003E00001F80B3
:104E00000463E80780F806001804000800000004A6
:104E1000000006000007800007E008047C08001F6F
:104E2000F80007F800180804E00807000006000072
:104E30000400000000000100080600380400F80427
:104E400003E8040F08047C0805F00807C008070001
:104E500018040060000000000000000000000000D6
:104E60000000000000003FFFFE20000220000220A2
:104E700000022000022000020000000000000000EC
:104E80000008000007000000C00000380000060015
:104E90000001C000003000000E0000010000000012
:104EA000000000000020000220000220000220007C
:104EB000022000023FFFFE00000000000000000092
:104EC00000000000000000000000000008000010CA
:104ED000000030000020000030000010000008003A
:104EE00000000000000000000001000001000001BF
:104EF00000000100000100000100000100000100AD
:104F0000000100000100000100000100000000009D
:104F10000000000020000020000010000010000031
:104F20000000000000000000000000000000000081
:104F300000000000F00019F8001B180022080026ED
:104F400008002408002410003FF8001FF8000008A3
:104F500000001800000004000007FFF80FFFF00039
:104F60001818001008002008002008003018001F42
:104F7000F0000FC00000000000000007C0001FF09C
:104F8000001830002008002008002008003C08001D
:104F90001C1000006000000000000000000000077E
:104FA000C0001FF00038180020080020080020086A
:104FB00004101007FFF80FFFF000001000000000C1
:104FC00000000000000007C0001FF00012300022A7
:104FD00018002208002208003208001E10000E20CF
:104FE0000000000000000020000020080020080150
:104FF000FFF803FFF8062008042008042008072013
:105000000003000000000000000000000E000E6E13
:10501000001FF30031B10020B10020B10031910038
:105020001F13002E1E00200E0030000000000400A0
:105030000807FFF80FFFF80010080020000020000C
:10504000002008003FF8001FF800000800000000E2
:105050000000000000002008002008002008063F93
:10506000F8063FF8000008000008000008000000F3
:10507000000000000000000000000003000003002A
:105080002001002001002003063FFE063FFC000037
:105090000000000000000000000004000807FFF806
:1050A0000FFFF8000188000300002FC00038F8004F
:1050B0002038002008000008000000000000000068
:1050C0000004000804000804000807FFF80FFFF8B8
:1050D00000000800000800000800000000000000B8
:1050E0002008003FF8003FF8001008002000003FB3
:1050F000F8003FF8001008002000003FF8003FF8DB
:10510000000008000000002008003FF8003FF80001
:105110001008001000002000002008003FF8001FC9
:10512000F80000080000000000000007C0000FF0B9
:105130000018300030080020080020080030080067
:105140001830000FF00007C0000000000000002031
:1051500001003FFF003FFF00101100200900200860
:10516000002008003038001FF0000FC000000000D1
:1051700000000007C0001FF00038180020080020C1
:1051800008002009001011001FFF003FFF00000170
:10519000000000002008002008002008003FF80060
:1051A0003FF8000808001008002008002000003028
:1051B00000003000000000000000000000000C783B
:1051C000001E180033080023080021080021880071
:1051D00021980030F000386000000000000000203E
:1051E0000000200000200000FFF003FFF80020086E
:1051F000002008002008000030000000000000002F
:105200000000002000003FF0007FF80000180000C0
:1052100008000008002010003FF8007FF000001098
:10522000000000000000002000003000003C0000F2
:105230003F800023F0000078000070002380003CD5
:1052400000003000002000002000003C00003FE093
:105250000023F80000E0002700003E00003FE000CF
:1052600021F80001E0003E000020000000000020C6
:1052700008002008003838003E680027800003C876
:10528000002CF8003838002018002008000000002A
:105290000000002000003003003C01003F83002399
:1052A000EC000070002380003C0000200000200083
:1052B0000000000000000000000038080020380056
:1052C00020F80023E8002F88003E0800380800205E
:1052D0001800007000000000000000000000000046
:1052E0000000000000000008000014001FF7FC3060
:1052F0000006200002000000000000000000000086
:1053000000000000000000000000000000FFFFFFA0
:10531000000000000000000000000000000000008D
:1053200000000000002000023000061FF7FC0014FF
:105330000000080000000000000000000000000065
:105340000000000000001800006000004000004065
:10535000000020000010000008000004000004000D
:10536000000C00001000003031323334353637384D
:10537000394142434445464030580030313233349D
:1053800035363738396162636465664030780004C9
:1053900000000800000000000000020001000010F2
:1053A000000000000000000002400000000000A01B
:1053B0000000000005400000000000C800000000E0
:1053C0000C4000000000409C00000000194000005C
:1053D0000020BCBE0000000034400000BFC91B8E8E
:1053E00000000004B5400000504BCFD06607E2CF6C
:1053F000010000006C4100003E8251AADFEEA7349C
:1054000001000000D9420000DCB5A0E23A301F974D
:10541000FFFFFFFFB4450000FD25A0C8E9A3C14F71
:10542000FFFFFFFFFF3F00000000008000000000C2
:10543000FF3F0000000000800000000088550008C9
:1054400000000020B00000002801000838560008C5
:10545000B0000020D80B0000440100081C00000030
:1054600043000000F8FFFFFF0C0000000E000000EA
:105470000F0000002E00000010010000430000009B
:10548000F8FFFFFF00404040404040404040414165
:105490004141414040404040404040404040404009
:1054A00040404040400502020202020202020202A3
:1054B00002020202022020202020202020202002A0
:1054C0000202020202029090909090901010101030
:1054D00010101010101010101010101010101010CC
:1054E0000202020202028888888888880808080860
:1054F000080808080808080808080808080808082C
:105500000202020240000000000000000000000053
:10551000000000000000000000000000000000008B
:10552000000000000000000000000000000000007B
:10553000000000000000000000000000000000006B
:10554000000000000000000000000000000000005B
:10555000000000000000000000000000000000004B
:10556000000000000000000000000000000000003B
:10557000000000000000000000000000000000002B
:1055800000000000000000000000546869732070F3
:10559000726F6A6563742069732064657369676EEE
:1055A000206279204561676C6520696620796F7596
:1055B000206861766520616E792071756573746904
:1055C0006F6E20706C6561736520636F6E6E6563CE
:1055D00074206D65205E5F5E2051513A2031343673
:1055E000303835333536392054656C3A31333637F7
:1055F000393432373537390000A24A040000000040
:105600000000000001020304060708090000000072
:105610000010000000000000000000000000FFFF7C
:1056200017EF000000000000010203040102030460
:08563000060708090204060840
:0400000508000235B8
:00000001FF
